:020000021000EC
:1080000088E900209D8D0100B3090200898D0100DF
:10801000898D0100898D0100898D0100898D010004
:108020000000000000000000000000002D8F010093
:10803000898D010000000000BD8E0100898D0100C6
:10804000B5900100B5900100B5900100B590010018
:10805000B5900100B5900100B5900100B590010008
:10806000B5900100B5900100B5900100B5900100F8
:10807000B5900100B5900100B5900100B5900100E8
:10808000B5900100B5900100B5900100B5900100D8
:10809000B5900100B5900100B5900100B5900100C8
:1080A000B5900100B5900100B5900100B5900100B8
:1080B000B5900100B5900100B5900100B5900100A8
:1080C000B5900100B5900100B5900100B590010098
:1080D000B5900100B5900100B5900100B590010088
:1080E000B5900100B5900100B5900100B590010078
:1080F000B5900100B5900100B5900100B590010068
:10810000B5900100B5900100B5900100B590010057
:10811000B5900100B5900100B5900100B590010047
:10812000B5900100B5900100B5900100B590010037
:10813000B5900100B5900100B5900100B590010027
:04814000B5900100F5
:1081440053B94AB9002908BF00281CBF4FF0FF31BA
:108154004FF0FF3000F00CB8ADF1080C6DE904CE1F
:1081640000F010F8DDF804E0DDE9022304B0704704
:10817400704700BF034613F8012B002AFBD1181ADD
:10818400013870472DE9F04786468C460846089E1C
:10819400154674461946002B40F0C1808542B2FA58
:1081A40082F245D94AB1C2F1200300FA02FC95409B
:1081B40094402EFA03F343EA0C0C4FEA154EA8B28E
:1081C400230CBCFBFEF80EFB18CC08FB00F943EAB9
:1081D4000C43994528D9EB1808F1FF3704D2994587
:1081E40002D9A8F102072B44A3EB0903A4B2B3FB01
:1081F400FEFC0EFB1C330CFB00F044EA0344A042DB
:1082040014D92C190CF1FF3304D2A04202D9ACF1D9
:1082140002032C44241A43EA07401EB1D44000232D
:1082240034607360BDE8F0874746DDE76346F1E7F5
:1082340092BB431B01214FEA154EAFB2200CB3FB96
:10824400FEFC0EFB1C330CFB07F840EA0343984585
:1082540061D9EB180CF1FF3004D2984502D9ACF186
:1082640002002B44A3EB0803A4B2B3FBFEFC0EFBF9
:108274001C330CFB07F744EA0344A7424DD92C19DD
:108284000CF1FF3304D2A74202D9ACF102032C440F
:10829400E41B43EA0040C0E7C2F120039540944048
:1082A40020FA03F12EFA03F34FEA154E9040AFB2D1
:1082B4000343B1FBFEFC0EFB1C10190C0CFB07F86E
:1082C40041EA0041884522D969180CF1FF3004D2F3
:1082D400884502D9ACF102002944A1EB08019BB204
:1082E400B1FBFEFC0EFB1C110CFB07F743EA014338
:1082F4009F420ED9EB180CF1FF3104D29F4202D9F0
:10830400ACF102012B44DB1B41EA004193E76046D8
:10831400E3E76146F7E76046A4E76346B8E78342CC
:1083240006D916B9002108467CE7C6E900E0F9E75A
:10833400B3FA83F78FB9834201D3724508D8BEEBF1
:10834400020460EB030301209C461EB9002169E787
:108354003846FAE7C6E9004CF8E7C7F1200CBB4001
:108364000EFA07F522FA0CF42EFA0CF1BA401C436B
:1083740020FA0CF3B8404FEA144901431FFA84FE73
:10838400B3FBF9F809FB18300B0C08FB0EFA43EAAF
:1083940000439A4540D9E31808F1FF3004D29A45C6
:1083A40002D9A8F102002344A3EB0A0389B2B3FB68
:1083B400F9F809FB183308FB0EFE41EA03418E4528
:1083C4002CD9611808F1FF3304D28E4502D9A8F1E3
:1083D4000203214443EA0040A1EB0E01A0FB0298F2
:1083E4004145CE46434602D306D14D4504D2013819
:1083F400B9EB020E68EB0403002EA7D0B5EB0E0216
:1084040061EB030101FA0CFC22FA07F3F9404CEA90
:108414000303C6E9003199E74046C5E74346D9E777
:1084240038B5114C20460AF00EFEC8B12269A56881
:108434001368002123F00103136020464FF4202227
:108444002B68984700280BDB012120466B6998476D
:10845400002805DB00214FF400400BF0A4F8F3E7FB
:108464004FF0FF3038BD00BFE8390200014B1B68F4
:10847400184700BFB0C50020014B1860704700BF0B
:10848400B0C5002030B585B004460D461022002149
:1084940068460BF089F902238DF80230044B2A4612
:1084A40021466846019307F011FB05B030BD00BFBB
:1084B4007184010080B505460E461746984606F0BD
:1084C40067FF03460BF02AFA0446DFF81890424689
:1084D40049F8003039463046A84754F8090000F0FE
:1084E400D5FC00BF08000000044608B5EFF3118373
:1084F400202383F31288BFF36F8F03F0E7FB20463A
:1085040000F07AFC024808F027F808F068FAFCE763
:10851400764002002DE9F043079D15B9156000204F
:1085240012E00324B5FBF4F404EB4407BD4218BF86
:108534000134B4F1804F09D2A40001348C4200D834
:1085440038B96FF00B001460BDE8F0834FF0FF34CE
:10855400F7E704460021DFF8B4E0B94203F1030C65
:1085640004F104062BD3A942274623D201F1010CBE
:10857400AC451F7828BF002324494FEAA70E38BF13
:108584005B7811F80EE0AC4584F800E001EB131EB3
:108594002EBF3D239B0003F03C034FEA071738BF6F
:1085A400CB5C07F030071EF80770A3703D2367709B
:1085B4003746E3700023381A10603B70AFE71CF8AD
:1085C400034C1CF8023C4FEAA4091EF8099024014C
:1085D4001CF8018C04F0300406F8049C0EEB13190B
:1085E40019F804409B0006F8034C03F03C030EEB1F
:1085F4009814E35C08F03F0806F8023C1EF80830C3
:10860400344606F8013C03316346A6E71F410200E5
:108614002DE9F04300273C463D46DDF81CE0DFF839
:10862400288175451FD3E4BB00201460BDE8F083A6
:108634000136764533D013F806C0BCF1200FF7D0CD
:10864400AEEB0609B9F1010FA6EB05050DD0BCF19F
:108654000D0F0AD103EB060999F80190B9F10A0F3D
:108664006ED1751CDDE72E46E3E7BCF10A0FF8D0A6
:108674002DB9BCF13D0F05D10137022F0DD96FF093
:108684001500D3E71CF0800FF9D118F80C507F2D9A
:10869400F5D03F2D01D8002FF1D10134E1E7354663
:1086A400C1E74FF0060C04F00706E4080CFB06F6DD
:1086B4000CFB04F40736E41B04EBD60470B18C42C3
:1086C4000CD80027014603263C46DFF87CE0DFF89F
:1086D4007C801D449D4205D10C1AA5E76FF00B0068
:1086E4001460A3E713F8019BA9F10A0C5FFA8CFC50
:1086F400BCF1160F04D848FA0CFC1CF0010FE9D0A9
:108704001EF809C00134BCF1400F08BF013E0CF053
:108714003F0C042C4CEA8717DCD17EB13C0C012EB3
:108724000C7002D101310024D4E7022E4FEA172441
:108734004C7016BF8F7002310331F4E73446C9E739
:10874400002DA2D09BE700BF9F400200F6FFBFFFB1
:108754002DE9F047058B04462807904611D40229D9
:1087640005F0070540F0CC80204607F002FF78B101
:108774000138218B042811D8DFE800F0C2106D8580
:10878400950001290CBF45F0100545F0200525830F
:1087940088F31188BFF36F8FBDE8F08701F0070AF3
:1087A400AA4500F0A5800027B9463E46A368002BE1
:1087B40000F0BC8041F00801218388F31188BFF3E5
:1087C4006F8FA168002900F0BA800D68002900F0BD
:1087D400B680334652462046D1F80480C047002D67
:1087E40076D02B6829461D46F0E701F007035A1F8F
:1087F400012A1BD8002221F00701062B276889B221
:10880400C4E9002209D13B4603E0628B0132628352
:108814001B68002BF9D141F002012046218307F0A7
:10882400A8FE00287AD041F0200176E0042B0AD17A
:1088340021F0070189B22046218307F09AFE10B186
:1088440041F020012183218B01F0070AAA454FD072
:108854000027B946AAE7236921F0070141F0060180
:10886400062DD3F8009021832DD1B9F1000F3FD00C
:1088740041F00801218388F31188BFF36F8F2046EC
:108884003949C84729E021F00701236941F004016F
:1088940089B2042DD3F804902183E6D000274FF049
:1088A400040A3E4682E721F00701236941F00501ED
:1088B40089B2052DD3F808902183D6D000274FF034
:1088C400050A3E4672E700274FF0060A3E466DE76A
:1088D4002B4687E7B9F1000FD1D1EFF3118820239C
:1088E40083F31288BFF36F8F238B23F00803238352
:1088F400258BEA062ED525F01003238305F0070502
:108904006669218B002EBFF670AF00232768C4E987
:10891400003321F0070141F001012183218B4FF045
:10892400000901F0070AAA457FF440AF002F9CD04C
:1089340041F00801218388F31188BFF36F8F002F62
:10894400C8D03D68394633465246204607F03DFEBE
:108954002F46F4E7AB067FF51BAF25F020032383F6
:1089640005F0070500E700BFFB050200014B0360AB
:1089740000207047383D020070B5104B0D461C684E
:10898400B4B10F4B196800238B4202DB6FF0010076
:1089940070BD224612F8106B864202D01446013391
:1089A400F2E7E0680AF04FFB28B100202C60EFE703
:1089B4006FF00C00ECE76FF01200E9E7B4C500209B
:1089C400383D02002DE9F7430D46DDE90A9790464C
:1089D4001E46044610B96FF00D003CE00029FAD0A1
:1089E400002AF8D08B680846DB6898470368B6FB12
:1089F400F3F203FB1262002AEDD1B9FBF3F203FB9D
:108A04001292002AE7D1002FE5D0B7FBF3F103FB64
:108A140011710029DFD1C4E90086C4E905972161F9
:108A2400A160E56003686A4623620C9BE3614379B5
:108A3400CDE900612846094984F8243008F0A0FBF8
:108A4400019A002AC7D0D4E905310B449A422CBFBD
:108A540000206FF00D0003B0BDE8F083F3070200BF
:108A640008B5054807F078FD044807F075FDBDE832
:108A74000840034807F070BD5F41020093410200C3
:108A8400C641020030BFFFF7FDBF00BF2DE9F04132
:108A940005460B4EDFF82C80324606EB0807CC1B4C
:108AA400204609490AF059FEA01942460021083C13
:108AB4000AF07AFE2C6707F10800BDE8F08100BFD8
:108AC4000000000008000000183D0200074A9368F7
:108AD40093F90E10002907DB526993421FBF044A21
:108AE400536843F080535360704700BFC4D30020E1
:108AF40000ED00E0154B9A6A12F0007F9A6A14BFE9
:108B04001E201D2012F0807F9A6A18BF1F2012F4C5
:108B1400801F9A6A18BF022012F4002F9A6A18BFA5
:108B2400212012F4802F9A6A18BF222012F4003FE9
:108B34009A6A18BF232012F4803F9A6A18BF24202F
:108B44006FEA02426FEA12429A62704700ED00E057
:108B540010B5194B0246986A9C6A10F4805F14BFE2
:108B64001720162014F4006F9C6A18BF1820A4055F
:108B740009D5986B986A000404D51AB19A6A22F44C
:108B840000429A6219200C4B9A6A12F4806F9A6A16
:108B940018BF1A20D2050CD49B6A13F4005F18BFC7
:108BA4001C20054A936A43F47F43936200230B70AD
:108BB40010BD1B20F5E700BF00ED00E010B51C4B15
:108BC4000246986A9C6A10F0100F14BF11201020FE
:108BD40014F0080F9C6A18BF1220A40709D5586B1B
:108BE400986A000604D51AB19A6A22F080029A6241
:108BF40013200F4B9A6A12F0010F9A6A18BF1420BF
:108C040012F0200F9A6A18BF1520D40658BF9B6A29
:108C1400074B9A6A920642BF5A6A22F400525A6279
:108C24009A6A42F0FF029A6200230B7010BD00BFE3
:108C340000ED00E0F0B54A4B04465B6800258BB0BC
:108C4400C3F3080385F31188BFF36F8F02F07F40ED
:108C5400B0F17F4F16D1D60714D4550603D41007AC
:108C640004D4012504E012F0040200D00C460025CF
:108C74000022033B8DF80720032B05D8DFE803F01F
:108C84002462665F2C46F3E700239DF80720CAB9E7
:108C940002AE04F12007324620686168083403C23A
:108CA400BC421646F7D1099A002D53D0C2F30801ED
:108CB40021B96FEA52226FEA42220992184602A9A8
:108CC40007F06BFE0BB0F0BD254BDA6A9107DBD4DD
:108CD400DA6A002AD8DBDA6A5200D5D55A69A16962
:108CE40042F480725A61BFF34F8FBFF36F8F5A699A
:108CF40031F8021C22F480725A61BFF34F8FBFF324
:108D04006F8F4DF60272914201D12368BDE79A6AD2
:108D1400D2B232B101200DF10701FFF74FFF034634
:108D2400B3E79A6A12F47F4F05D001200DF10701D1
:108D3400FFF70EFFF3E79B6AB3F5803FA4D3FFF779
:108D4400D9FEECE700200DF10701E6E700200DF164
:108D54000701EDE722F4FF7222F00102ADE700BF44
:108D640000ED00E0064B5A6942F010025A615A695C
:108D740042F480625A615A6922F008025A617047CB
:108D840000ED00E0EFF30880EFF3098101B57246CE
:108D9400FFF750FF01BD00BF002080F31488BFF32C
:108DA4006F8F002080F30A8880F30B880F4880F3CC
:108DB400088809F017FA00200D490860BFF34F8FA7
:108DC40000F03EF8202080F311880A484FF4006137
:108DD400401880F30988EFF314800221084380F3DC
:108DE4001488BFF36F8F00F0F7F8000088E90020C3
:108DF40094ED00E048DC0020BFF34F8F0549064B9B
:108E0400CA6802F4E0621343CB60BFF34F8F00BF24
:108E1400FDE700BF00ED00E00400FA05002318465A
:108E24000649D1F89020C2F30722934200DB704731
:108E3400C1F89830C1F8A0000133F6E700ED00E076
:108E440010B572B6002484F31388FFF7E7FF2346B6
:108E54004FF0FF300C4A03F120010133102B42F88C
:108E64002100F8D100234FF0FF30074A03F16001DD
:108E74000133102B42F82100F8D162B6BFF34F8FB3
:108E8400BFF36F8F10BD00BF00E100E0084B9B688B
:108E940083420BD1EFF3058343B1064B5A6842F08A
:108EA40080525A605A6A22F400425A6206F076BA34
:108EB400C4D3002000ED00E018498A6882F87DE000
:108EC4004FF030001044EFF3098C80E8F01F2020AD
:108ED40080F31288BFF36F8F114F4FF000664A6919
:108EE4008A603E604FF07004141920680D4C2060B5
:108EF40092F97DE0506F0023536780F3118802F1EB
:108F0400300090E8F01F8CF3098802F1000004B5EA
:108F140007F05AFDBDE8044070470000C4D30020A8
:108F240004ED00E0B8CA00201EF0040F0CBFEFF3FC
:108F34000880EFF30980816911F8021C0229FFD02F
:108F440001B5724607F02FFD01BD00BF40B20028F5
:108F540007DB01234109034A00F01F00834042F864
:108F64002130704700E100E040B200280CDB012210
:108F74000649430900F01F008240203341F82320B2
:108F8400BFF34F8FBFF36F8F704700BF00E100E066
:108F9400054B420953F82220012300F01F0003FA75
:108FA40000F01040704700BF00E100E040B200282C
:108FB40001F10101ACBF00F16040064B4FEA4111E1
:108FC400C9B2ABBF00F5614000F00F0080F8001398
:108FD4001954704714ED00E00B4A08B50B4B22F00E
:108FE4007F029A60BFF34F8FBFF36F8FD3F888204F
:108FF40022F47002C3F8882005F0FAFA06F0F0FAB9
:1090040000F04AF805F034FB0080010000ED00E0B8
:1090140042F8203C009B0C4942F81C3C019B21F087
:10902400010142F8183C029B42F8081C42F8143C27
:109034004FF0807342F8043C002343674FF43C43F1
:10904400203A0265C3677047B984010000B50B4B31
:1090540015469860026F0A4B0E461A60036E83F33E
:109064000B882C4686F309880020064B9847204637
:10907400002100220023044C204700BFC4D3002059
:10908400B8CA0020D5090200B98401001022014B9E
:109094001A61704700ED00E0002320210348C21844
:1090A4000133412B82F80013F9D1704700E100E04D
:1090B40008B5EFF30583064A103B02EBC30152F8EF
:1090C400330049688847BDE80840FFF7FFBC00BF8C
:1090D4004C3A02001FB5094C094A234601210948AC
:1090E40000F0FAF800230393074B0121E41A01A8C6
:1090F4000193029400F0FAF804B010BD00000420BB
:1091040080C50020EC3D0200B8C7002010B50C7AE1
:109114000B6804F01F0223F01F031A43CB68640991
:1091240023F01F03054943EA440343F00103C1F854
:109134009800C1F89C20C1F8A03010BD00ED00E0FB
:1091440010B5074BD3F89030C3F30723013B984283
:1091540002D8FFF7DBFF10BD6FF01500FBE700BF7F
:1091640000ED00E02DE9F04F0F46144606464FF09F
:1091740000084D4D85B0B84580F29280D6F8049031
:10918400B9F1000F36D0B9F11F0F40F2878019F002
:109194001F0F40F08380D6F800A01AF01F0F7DD176
:1091A400504607F038FC834609EB0A00013807F003
:1091B40032FC834572D11BF1160F6FD05C456DDD17
:1091C400C5F898B0D5F89C10C5F898B0D5F8A0307B
:1091D40021F01F0143F01F0AD6E900321A449942D4
:1091E40002F1FF391ED1CA4508D131465FFA8BF02E
:1091F40007F01AFC08F101080C36BCE73146C5F843
:1092040098B0D5F89C3022F01F0203F01F031343DB
:10921400C5F89C30E0B207F007FC10F1160F3DD002
:10922400441CE7E7C5F898B0D5F8A020013B23F02B
:109234001F0302F01F021343CA453146E0B2C5F8CA
:10924400A030E8D007F0F0FB10F1160F26D0C5F8D7
:1092540098B0D5F89C209DF808300AF1FF3A62F3E3
:1092640004038DF80830D5F8A0309DF808205B0879
:1092740063F347128DF80820D6E9003213440093B3
:1092840023F01F035344A3EB0903013023F01F030E
:109294006946C0B20393FFF753FFBEE76FF01504AE
:1092A400204605B0BDE8F08F00ED00E00522044B38
:1092B400C3F89420BFF34F8FBFF36F8F704700BF85
:1092C40000ED00E0BFF35F8F0022024BC3F894204F
:1092D400704700BF00ED00E010B5034C2278FFF7A3
:1092E40041FF207010BD00BF00D400202DE9F74FCE
:1092F400294D8A4606464FF00008AB46274FD04515
:109304001BDAD6F80490B9F1000F3FD03168084653
:10931400019107F080FB0199044609EB0100013833
:1093240007F079FB84424FF014021D4B08D002FB76
:1093340008F36FF015024BF8032003B0BDE8F08F7B
:1093440014F1160F2C60F8D01978A142F5DD02FB58
:1093540008B0C7F89840C7F89840D7F89C4000F187
:109364000801007B64F304000871D7F8A0000C79AD
:10937400400860F347140C71D7F89C1021F01F01CA
:109384006960D7F8A01021F01F01296108F10108D4
:1093940014350C36B3E700BFBCCA002000ED00E072
:1093A40000D40020F0B54149414CD1F890302568F3
:1093B400C3F307239D4287B075D80020FFF782FFCF
:1093C4003C4BC1F8C030854216D13B4C01A82570F6
:1093D400FFF7CCFA00250646384FAE4213D10020E1
:1093E40023783249D1F89020C2F30722934254DB08
:1093F400FFF75CFF00202FE0616801EB0011FFF72D
:1094040085FE0130DFE70199280101EB0513DA68D5
:109414003A40B2F5001F21D0B2F5800F2BD0B2F53F
:10942400801F38D15A689B680958013B22F01F00FD
:1094340003440120844623F01F0340EA4C10CDE985
:1094440002218DF8100002A920780593FFF778FE19
:1094540000281DDA6FF0150007B0F0BD5A689B684C
:109464000958013B22F01F0003444FF0020C012075
:1094740023F01F03E1E75A689B680958013B22F077
:109484001F0003444FF0000C022023F01F03D4E715
:1094940023780133237001359FE7C1F89830C1F870
:1094A400A00001339EE74FF0FF30D5E700ED00E068
:1094B400F83D0200AAFF440000D400200000F0FFA1
:1094C40008B5024B1B689847002008BDD0CA00208D
:1094D400034B044A1860937843F002039370704777
:1094E400D0CA0020B8C5002008B50649064821F0B6
:1094F4000701C1F1005202F5802206F0D3FF0020DB
:1095040008BD00BF0FF70020D4CA002070B5416920
:109514000446857A0B4E59B1437ADB0706D42423DB
:1095240003FB0563DB691B689B6898470023636141
:1095340005EBC505214606EB8500BDE8704009F042
:109544001BBF00BF90C700202421827A054B01FB7A
:1095540002331A6A1B7D801A1B3323F00303B0FB0A
:10956400F3F0704790C7002038B52424827A064B64
:1095740004FB0233DB69D3E901240C601568FFF7AF
:10958400E3FF04FB005038BD90C700202DE9F043F1
:1095940085B00546684690461C4603910AF07EF85D
:1095A400DDE90067EFF31189202383F31288BFF309
:1095B4006F8F6B8A002B41D02A8A9A4225D90022C8
:1095C4000023284605F0DEF90446F0B189F311883A
:1095D400BFF36F8F039B002B41D032463B46684656
:1095E4000AF080F82421A27A254B204601FB02339D
:1095F400DB6903A91B681D68DDE90023A8476061D6
:1096040070BB2046FFF782FF24E0698A4B1E6B8201
:1096140089F31188BFF36F8F2B7D2A8A2C6A1B3341
:1096240023F00303521A02FB0344154B154AEB1AA9
:109634009B105343A3722B7DE372CBE789F311880C
:10964400BFF36F8F23464246284605F09BF9044634
:109654000028BFD10024204605B0BDE8F083636133
:10966400012300252381039B29466382E27A6560F6
:1096740004F118000AF098F863692582E360EAE7C8
:1096840090C70020398EE33870B524250B4C00B9FF
:1096940070BD037A4668013BDBB20372002BF7D13D
:1096A400C3604360837A05FB03439B6913B1984706
:1096B4003046ECE7FFF72AFFFAE700BF90C7002027
:1096C4000122024B0020C3F840257047009003405C
:1096D40020B1034B800143F001031847704700BFDA
:1096E400303D020038B5064C064DAC4201D3002093
:1096F40038BD54F8043B002BF7D09847F5E700BF7A
:10970400103D0200183D0200084B0246186808B1DB
:10971400036800B9704741899142FBD01BB11968B5
:1097240018460B46F5E71946FAE700BFE0CA0020E1
:109734000A4B1B681BB11A681BB9184670471A46B6
:10974400FAE75989814206D01AB1116813460A46CC
:10975400F2E71146FAE7D868704700BFE0CA002074
:1097640000230360044B5A6812B9C3E90000704730
:1097740010605860704700BFE0CA002000232DE944
:10978400F04F04460D468BB0CDE9063301F10C0AC7
:109794002B8A3BB999462846216807F099FB00209B
:1097A400216880E0072B40F20381EA6806AB106869
:1097B400516803C3BDF81A3008215BBA1FFA83FB52
:1097C400ADF81A30BDF81C3050465BBA9AB2ADF809
:1097D4001C30059207F050F92B8A5B45C0F0EE80EF
:1097E4009DF8188018F0050940F0ED80284621689E
:1097F40007F05AFB0646002800F0E8800122606862
:10980400042140F8045B2B8ACDE901990092EA68AF
:1098140009F0CAF83146A06807F091F99DF81830AC
:10982400A768C3F3C103012BC7F84C9000F2C380AF
:109834000598FFF769FF002800F093809DF81F103A
:1098440007F04EF9002800F08C809DF8183013F0D2
:1098540007032ED0022B47D04FF003093146A068EE
:1098640007F06DF9D4F80880022108F1040738469E
:1098740009F05AF900287AD002223846554909F0ED
:1098840038F9002873D04946384609F016F9022100
:1098940000286ED1384609F04FF92846216807F0B0
:1098A40017FB3046216807F013FB48460BB0BDE8B0
:1098B400F08FD0F80090A068B9F1000F51D00F21BB
:1098C400043009F031F900284ED02046C8478146BB
:1098D400A0680F21043009F02FF940B9B9F1000F45
:1098E40008BF4FF00709B9E7D0F80490E3E7B9F1EE
:1098F400000FB3D1B7F84E90B9F1000F12D018F0A1
:10990400180F0FD1B7F84C00FFF712FF034610B938
:109914004FF00109A2E7484698478146B0B1002EAE
:109924004ED09BE7D7E90087D8F80C3008A9FF1A76
:10993400A7F1080206A807F0E3F8A8F81070A368D6
:109944001B68DA680B4603CB10605160236830460D
:109954001B6A9847814698BB5946504607F08CF8D5
:1099640016E74FF0080979E74FF0070976E7022177
:1099740090E7384609F0E0F800288ED0D8E900A72F
:10998400DAF80C3008A9FF1AA7F1080206A807F0B4
:10999400B7F8AAF81070A3681B68DA680B4603CB03
:1099A40010605160236830461B6A9847002674E7AC
:1099B4004FF00909EFE64FF00D094FE74FF00909A1
:1099C4002E4600254AE74FF00809F9E74FF002094F
:1099D400F6E700BF0342020070B504460E46154682
:1099E4008AB3A0F84810A0F84A201849032209F0C5
:1099F40080F818B9002000F0010070BD0221204653
:109A040009F092F80028F5D005222046104909F003
:109A140070F80028EED03146204609F058F80028A6
:109A2400E8D0022220460B4909F063F80028E1D06F
:109A34002946204609F04BF80028DBD002212046B5
:109A440009F07AF8D7E70120D7E700BF0642020001
:109A54000A4202000342020070B50C4615461E4637
:109A640048B133462A462146074806F04FFF0028EE
:109A740018BF0C2070BD054B0348197806F058FF39
:109A84000028EED00A20F5E7E8CA002014CD002013
:109A94007FB50C46002843D1234B69461878FEF75E
:109AA4006BFF00283ED1009806F098FE0646002879
:109AB40032D0009B5B68013B191901AA07F05CFBDB
:109AC400014658BBDDE90005029B1D444368ED1ABD
:109AD4002A4606F069FE044630B10D24009806F0CB
:109AE40020FE204604B070BD009B986807F082FAFF
:109AF400A842F3D3009B5968014401AA304607F0F9
:109B04003BFB0098019943688268C91A521A06F00F
:109B14004BFE0028E2D0E0E71224DFE71324DDE760
:109B24001424DEE70A24DCE714CD0020F0B50D464A
:109B3400064618220021284685B009F035FE7368D0
:109B4400581C00F09080002B7CD132691F2A6DD9FB
:109B5400B268511C6CD0C5E90023F768434B3A68DE
:109B64009A4267D1B269202A66D862B14048036834
:109B7400013308D0037B9A4205D171690D3009F095
:109B84001BFE0446A0B1002007F01FF918B907F026
:109B94007DF800280FDA012007F017F920B9012019
:109BA40007F074F8002806DA4FF0FF330924EB605D
:109BB400204605B0F0BDE8606946C0B2FEF7DCFEA1
:109BC40000283BD10098B26883689A4203D906F012
:109BD400A8FD1E24ECE706F0A4FD337F73B9287BAF
:109BE40001A9FEF7C9FEB0B9019807F019F80446B7
:109BF400019806F096FD002CDADB0DE002A807F0D0
:109C040020F9E8B907F1140102A807F047F8002881
:109C1400E5DB1B24CCE70A24B4FA84F464096C74ED
:109C24003369AB6001232B740024C1E71624BFE71A
:109C34001524BDE71724BBE71824B9E70A24B7E7BE
:109C44001A24B5E70A4A13689168EB600023296077
:109C54006B60736852689342E6D132691344994247
:109C6400DED21F24A4E71424A2E700BF3DB8F39674
:109C740014CD0020F0B520230F4695B0029304467E
:109C840015466B460CAA384603A9019200F050FA17
:109C94000646002840F08E8004340F21204608F048
:109CA40043FF10B9002015B0F0BD042220464249FC
:109CB40008F01FFF0028F5D0204607F0010108F046
:109CC40006FF0028EED0072220463C4908F011FF89
:109CD4000028E7D005A903A800F0D0F9002861DA2C
:109CE40005222046364908F004FF0028DAD0042271
:109CF4002046344908F0FDFE0028D3D0204601A9AF
:109D040008F0F1FE0028CDD0082220462E4908F0A4
:109D1400F0FE0028C6D00099204681F01001C1F35E
:109D2400001108F01DFF0028BCD007222046274957
:109D340008F0DFFE0028B5D02046C5F3400108F046
:109D44000FFF0028AED009222046214908F0D1FE99
:109D54000028A7D02046C5F3800108F001FF0028A1
:109D6400A0D0062220461B4908F0C3FE002899D043
:109D7400204605F0010108F0F3FE002892D00922E4
:109D84002046154908F0B5FE00288BD02046C5F3BF
:109D9400C00108F0E5FE002884D00F21204608F019
:109DA400CBFE80E71922204605A98DF82C6008F027
:109DB400A9FE9AE7012076E710420200154202004C
:109DC4001D420200234202002842020031420200E6
:109DD40039420200434202004A4202002DE9F7439D
:109DE40086680746043606223046324908F081FE6A
:109DF40038B907F006F807F005F8072003B0BDE806
:109E0400F0830221304608F08BFE044606F0F9FF89
:109E1400002CF0D000240DF1070120468DF80740F6
:109E240006F0B4FF8046204606F0EDFF9DF80730AB
:109E34000546022B80F001092AD180454FF0010824
:109E44002CD14D45B8682CDA42462946FFF712FF5B
:109E54000028D0D022464946B868FFF70BFF0028F7
:109E6400C9D00221304608F063FE0028C3D00B227B
:109E74003046114908F03DFE0028BCD00021304690
:109E840008F01BFE0028B6D006F0BCFF0020B5E7A2
:109E940080454FF00508D4D0022BD2D8074AD456B7
:109EA400CFE722464946FFF7E5FE0028A3D0424605
:109EB4002946D1E7544202005B4202006F4202008D
:109EC4002DE9F3414FEA6008044640460F4606F088
:109ED4009AFF002306460DF1030140468DF8033036
:109EE40006F054FF0546EFB106F08FFF804505D11B
:109EF4009DF80330012B26D11C2420E0A6423DD03E
:109F04009DF80330012BF7D0002B3BD0022B39D026
:109F1400204606F0BBFE01A9C0B2FEF72DFDD0B16C
:109F24000A240CE0A6422BD09DF80330012B03D069
:109F34007BB1022BE0D0EBE7A042DDD10024204628
:109F440002B0BDE8F081002BE0D1A542F6D0A642D4
:109F5400F0E7A042EEE7331B59423A4601985941D3
:109F640008F0E7F8044628B1441E032C8EBF0124F0
:109F7400064B1C57019806F0D4FBE0E72024DEE7EB
:109F84002124DCE7A542C3D1D8E700BF7242020016
:109F9400F0B5364997B00C9104210D91344902AAC9
:109FA400CDE90E12334A0023119207221292324A4B
:109FB4000546D0E9010413920DF10302CDE9023301
:109FC4008DF8033001938DF8403014928DF854309D
:109FD400022201AB0CA9043006F0CBFD002841D1CC
:109FE40006F00FFF039B04346BB99DF8033063B193
:109FF40006F00BFF06F007FF9DF80310FFF760FF64
:10A0040018B382B202E0202B0AD018222046012184
:10A01400FFF7E2FC044606F0F5FE2CB300241BE037
:10A0240004AA1746029B03F1200C164618685968C7
:10A03400083303C663453246F7D10021384606F09B
:10A04400E6FE0028D8DA0822E0E72846FFF7C6FE35
:10A05400044620B106F0D6FE204617B0F0BD06F047
:10A06400D1FEDBE70324F7E70724F5E723420200E8
:10A0740089270200674202003528020073B50E46A4
:10A0840043880546019343781921009303780B4ACA
:10A09400304605F013FC041E03DA4FF0FF3002B023
:10A0A40070BD6B683BB1064AC4F11901301905F063
:10A0B40005FC031EF1DBE018F1E700BF7642020065
:10A0C40082420200033880B219289ABF014B185605
:10A0D40001207047A542020008B5054B2C2200213F
:10A0E400184609F061FB4FF0FF3240F8042C08BD1C
:10A0F40018CD00200148FFF733BB00BFC8C50020BE
:10A1040010B5041D03222046074908F0F2FC08B9E3
:10A11400072010BD054B2046596808F0E2FC0028D2
:10A12400F6D00020F5E700BF8642020014CD0020DF
:10A134002DE9F0438BB00C460DF10301054616469C
:10A144001F4606F009FE0146002840F08D802023BA
:10A15400284602AA06F0DFFD002850D19DF80380AE
:10A16400DFF81091B4BB0298484540D10FB1069B6B
:10A174003B60059BBDF8104028461C44042321463F
:10A184000DEB030206F0C7FD40B946F60813BDF80F
:10A1940004209A4204BFBDF80630E4180423214683
:10A1A40028460DEB030206F0B6FD58BB46F607132E
:10A1B400BDF804209A4225D18146BDF806700434C6
:10A1C400274404F10408B8451ED989F001094FEA6F
:10A1D400C90014E008224146204609F0E5FA029835
:10A1E400484504D107AB03CB20606160BEE74FF064
:10A1F400013303FB08F8404514BF172003200BB0BC
:10A20400BDE8F0830420FAE70423214628460DEB39
:10A21400030206F080FD0028F1D1BDF80420BDF84A
:10A224000630FF2A05D14FF6FF72934205D105206F
:10A23400E5E7102A01D1202B04D0043303EB0408F2
:10A244004446BEE7B9F1000F10D116B94FF0010929
:10A25400F6E72434BC420BD832464146284606F081
:10A264005AFD0028F2D0CAE70220C8E70620C6E754
:10A274000720C4E73DB8F39670B51C4A8AB005922E
:10A284000422D0E90105002301260692184ACDE9EB
:10A294000163079201AA08928DF82430324602AB7A
:10A2A40005A9043006F065FC0446E8B903460246F5
:10A2B40003A901980435FFF73BFF58B9019806F04C
:10A2C40084FD38B1092201212846FFF785FB204689
:10A2D4000AB070BD019806F0F8FC0646FFF7FCFED4
:10A2E400002EF4D0B2B2EEE70324F0E710420200ED
:10A2F4007F2702002DE9F0430024D0E90137B7B0ED
:10A304000DF12008214620220646404603F10409A7
:10A31400019409F049FA4FF0FF33CDE909335B4B5F
:10A324000325189305231993594B0BAACDE91A3821
:10A33400584B20921D9304231E93574B574A1F9347
:10A344002E930DAB2F93564B229231930723554AEC
:10A354000AA924922992329309AA534B25912A924D
:10A364005249534A33930FABCDE92715CDE92C2538
:10A3740034930622484601AB18A98DF870408DF835
:10A3840084408DF898408DF8AC408DF8C0408DF82D
:10A39400D440239506F0EDFB0446002874D14046D2
:10A3A40002A90437FFF7C2FB88B182B20121384603
:10A3B400FFF712FB00230546194610AA0120FFF7F8
:10A3C400B7FEFFF789FE002D08BF072406E09DF8BD
:10A3D40018303BB9B068FFF793FE0446204637B007
:10A3E400BDE8F083334D059B2B60029BAB60099B5A
:10A3F400DBB9DDF838800D99424605F10D006C603B
:10A4040085F80C8009F0A9F908F10D002146C8F17E
:10A414002002284409F0C8F99DF819302BB12046D0
:10A424000A99FFF735FB0028BFD1D5E901120C9B2F
:10A434002BB9914222D0B068FFF762FECEE70B44FD
:10A444009A1A534253410B99049A0998FFF704FB53
:10A45400034688B96A6804990A44A9686A608A420A
:10A46400E9D1014610AA0120FFF762FEB068FFF7A8
:10A4740047FEFFF731FEB1E782B297E7194610AA0B
:10A484000120FFF755FED6E72C46A7E78A420200D3
:10A494007F270200904202008927020095420200B1
:10A4A4009D420200852702003528020086420200F0
:10A4B4009942020014CD00200148FFF751B900BFB2
:10A4C400D8C5002008B54FF400520023024804F018
:10A4D40083FC002008BD00BF80C50020F0B5002328
:10A4E400D0E901450127134A89B00392124A01AE0B
:10A4F400CDE90133CDE905268DF81C30201D6B46CE
:10A504003A4603A9049706F034FB044678B90435A7
:10A514003A462846094908F0ECFA20B13146284663
:10A5240008F0E4FA00B90724204609B0F0BD03247A
:10A53400FAE700BF414202008F27020008420200EE
:10A5440013B5084C204608F089FF074B20460093BA
:10A554004FF400620323054904F0D6FB002002B047
:10A5640010BD00BFB8C700209C3E020048D40020A4
:10A5740000220023014806F07BBA00BF90C70020E8
:10A5840010B5036A044643B1054908F03BFF04F1E2
:10A59400100008F0DEFE002010BD6FF01500FBE790
:10A5A4007B0E020010B50446103008F0DAFE214696
:10A5B400BDE81040014808F041BF00BFB8C7002003
:10A5C4000748084B10B50362074B4362FFF7D8FFF7
:10A5D400044610B9054800F02DFB204610BD00BF0D
:10A5E40044CD0020F50E0200EF0E0200F5A5010097
:10A5F40008B50146034808F0B4FEBDE80840024827
:10A6040004F07CBB80C70020E8C50020F8B50D4EDF
:10A614000D4F00220023304604F0B4F9044600B97B
:10A62400F8BD3846D4F88420211D06F085FC054683
:10A63400204600F077FA002DEBD029460348FFF7B7
:10A64400B1FFE6E780C7002078CD002044CD00208C
:10A654002DE9F74F05460E4614460A4601460020EA
:10A6640005F0B7FC4FF0000A074640F606134FF01A
:10A674005D08D1464FF0010BB245ADF8023001DB65
:10A68400002062E002210DEB0100A04700285CD10C
:10A69400BBF1000F13D0B31C5BBAADF80230ADF8B8
:10A6A40004302B782246032101A88DF8063006F0E9
:10A6B40034FC002849D10AF1010AA8F10308A6EBE9
:10A6C4000A0343459B46A8EB0303A8BFC346012BDB
:10A6D40005D84FF000090BF1FF3BD34414E0FCDD37
:10A6E4004FF00109F9E735F80A2005EB0A039B78D6
:10A6F400ADF804200321224601A88DF8063006F0A7
:10A704000CFC10BB0AF1030AABEB0A03022B524602
:10A71400E9DCB9F1000F0FD0A6EB0A03012B17D027
:10A72400022B22D043B9224602217BBAADF8043071
:10A7340001A806F0F2FB40B901211948A0474FF0E7
:10A74400000B41F20443002896D003B0BDE8F08F1B
:10A75400AB5C03218DF804303B0A22460AF1010A5E
:10A764008DF805308DF80670E2E70AF1010315F85B
:10A774000A20EB5C8DF804208DF8053022463B0A54
:10A78400032101A80AF1020A8DF8063006F0C5FB80
:10A794000028DAD1224601218DF80470C8E700BFF1
:10A7A40063430200084B70B5C31A0D4607499B105A
:10A7B400044659434022064806F027FC2B4601462E
:10A7C4002046BDE87040184794CD0020B76DDBB635
:10A7D400D4390200402373B50B4C0093041B0B4681
:10A7E4000D460A49A41061430646094A094806F081
:10A7F40038FC011E05DA30462B4602B0BDE8704035
:10A80400184702B070BD00BF94CD0020B76DDBB611
:10A81400D1100200D439020010B5EFF311842023C3
:10A8240083F31288BFF36F8F074A136823F0020182
:10A83400DB07116002D4012007F0DFFC84F31188E8
:10A84400BFF36F8F10BD00BFE4CD002070B50022B0
:10A85400012104460520FEF7A9FB0F4801F05AFE2A
:10A864000E4B984215D101F065FE26690C4930461D
:10A8740005F0CEFE00280BDB012535642469084968
:10A8840004F11C0005F0C4FE002801DB0020E5648F
:10A8940070BD6FF00400FBE7A5A901000000AD0B3B
:10A8A400A43E02001FB500220123CDE902236B461A
:10A8B400084ACDF800D0CDF804D006F000FC0028FA
:10A8C40005DB4FF480420023684604F0C1F805B06C
:10A8D4005DF804FBEF1002000C22104B014602FB52
:10A8E4000033002030B4D3E90E529863EFF31180A3
:10A8F400202484F31288BFF36F8F1C6C04F0C0040F
:10A9040044F002041C6480F31188BFF36F8F1DB1FF
:10A914002B4630BC0248184730BC704794CD002009
:10A92400D439020010B4EFF31182202383F3128888
:10A93400BFF36F8F1748016841F002040460C80731
:10A9440007D482F31188BFF36F8F012010BC01F08C
:10A9540005BE1149D1F80C04D1F80C14C907F0D57F
:10A96400EFF3118083F31288BFF36F8F0B490B6CE5
:10A9740003F0C00343F002030B6480F31188BFF3B8
:10A984006F8F82F31188BFF36F8F002010BCFFF725
:10A99400A3BF00BFE4CD00200050004094CD0020B0
:10A9A40010B1012804D07047034B1B6C5B0701D125
:10A9B400FFF792BF704700BF94CD00202DE9F0410E
:10A9C400012207463449D1E8EF3FC1E8E02F0028CF
:10A9D400F9D133B9314932484B60CB608A6005F014
:10A9E4002AFE7B1E012B28D8012F06D12D4BD3F82C
:10A9F4001C3403F00303022B1FD008F035FD054679
:10AA0400E8B9294B1B78D3B102220646254BC3F87B
:10AA14000823244CDFF89480D4F81824D4F818348C
:10AA2400D20315D503F00303022B01D0012F0FD15C
:10AA34006DB386F31188BFF36F8FBDE8F081EFF338
:10AA44001186202383F31288BFF36F8F0125E0E77B
:10AA5400C5B1304605F0D0FFD4F81835DBB2012B70
:10AA6400DAD1D4F80421002AD6D00022C4F8042173
:10AA7400D4F804210222C4F818252022C8F8802121
:10AA8400A360C9E70021212008F08DFDE4E702223C
:10AA9400044BC3F80423D0E790CD002080CD0020E0
:10AAA400B0CD00200050004040D4002000E100E080
:10AAB40008B5074808F0C7FA38B10648FEF708FD9C
:10AAC4000448FDF7D9FC002008BD6FF01200FBE735
:10AAD400FC390200DDAA01000A2838B50446074DF6
:10AAE40004D1AB680D2128465B689847AB680348DE
:10AAF4005B68E1B29847204638BD00BFFC390200CC
:10AB040070B50446064E4518AC4201D1002070BD14
:10AB140014F8011BB36802485B689847F4E700BF68
:10AB2400FC3902000146014808F049BB3CC700203B
:10AB34002DE9F047374D8AB0374CA76802E020462C
:10AB4400984748B9FB6B002B58D1A668B36B002B10
:10AB54005BD1F36A002BF2D1336913B96FF0570656
:10AB640006E020222C4802A9984706460028E9D08E
:10AB74004FF00009294C02AFB145DDDA2B7817F804
:10AB8400018B7BB9D4F800A0BAF1000F0AD10022DE
:10AB94000023234801A903F0FFFDD8B9019BC3F8A2
:10ABA4008400236095F800A02068BAF1000F09D151
:10ABB400D0F884307F2B12D9FFF7B4FF0123C4F8F7
:10ABC40000A02B70B8F10A0F01D100232B7009F1FA
:10ABD4000109D1E70123C4F800A02B70E2E75A1C55
:10ABE400B8F10A0F0344C0F8842083F80480EED13E
:10ABF4000C4BC4F800A01B689847E8E72046984728
:10AC04000028A2D10AB0BDE8F08720469847002862
:10AC14009FD1F7E701D40020FC390200E8CD0020E1
:10AC24003CC70020ECCD0020014AFFF711BD00BF56
:10AC340005AB01000F4B70B518600F4C204608F0AF
:10AC440002FAB0B1A3685B6A0BB120469847A568C5
:10AC5400AB690BB1084898472B6C1BB1002207491C
:10AC640005489847A3681B6A1BB1BDE870400248B9
:10AC7400184770BDECCD0020FC39020035AB010053
:10AC8400C3780F2B14D9C96B0B480B0E13708B02AE
:10AC940000EA911003F47C030906034301F0FE412A
:10ACA40010680B43054901400B43002013607047B3
:10ACB4006FF08500704700BF00FF0300FF000080B5
:10ACC400024B0B6001231360704700BFF0CD0020DE
:10ACD40000487047C03E020010B5012206481146E4
:10ACE40008F054FB07F0F0FA044C206007F0E9FA8E
:10ACF4006060002010BD00BFF8CD0020F0CD002022
:10AD040070B50C46154607F0DCFA2946064620467F
:10AD140006F06BFA08B3B4FBF6F306FB1343E3B98E
:10AD2400B5FBF6F306FB1353BBB9AE4201D90020C1
:10AD340070BD4FF0FF324FF0FF33094803F088FE37
:10AD440007F0BFFA0646204602F0C6F8AD1B3444AD
:10AD5400F9D1034803F048FEE9E76FF01500E7E78F
:10AD6400F8CD0020F8B50E461946304617461C4665
:10AD740006F03BFA08B346EA040515F003051CD1B6
:10AD8400A4B14FF0FF324FF0FF330D4803F060FEE3
:10AD940024F00304A54206EB050009D1094AD2F8C0
:10ADA4000034DB07FBD5064803F01EFE0020F8BD87
:10ADB400795902F0ADF80435ECE76FF01500F6E7C9
:10ADC400F8CD00200090034000487047403F020047
:10ADD40038B545682B69B3B11035284601F0C8FE73
:10ADE400044680B90146284601F090FE084B98427B
:10ADF4000BD122462846074901F070FE2246052160
:10AE04003120FEF7D3F8002038BD6FF00400FBE7D3
:10AE14000000AD0B1DAE0100430970B507D10B4B0B
:10AE2400596821B101250C68094E854001B970BDEE
:10AE34008A682A4002D030464B6898471CB1236880
:10AE440021461C46F2E72346FAE700BF28CE00203D
:10AE5400E83902002DE9F04340F206354668D00691
:10AE640048BF0320337B02EA050558BFC2F34010F4
:10AE740087B001F01F07B5F5837F144647EA4317EF
:10AE84008DF8030042D00FD8062D18D007D8B5B1DD
:10AE9400022D3DD06FF0150007B0BDE8F083B5F585
:10AEA400807FF7D101250AE040F20222954231D099
:10AEB400B5F5407F30D0B5F5007FEBD102250123F5
:10AEC400220303FA01F129D573689960326952BBF0
:10AED40007F01F037F0973D13B4A84F4803102EBEE
:10AEE4008302D2F80032C1F30041C4F3404423F496
:10AEF400E16344EA410423F007031C4344EA800469
:10AF040044EA0524C2F800420020C5E70725D6E735
:10AF14000425D4E70525D2E70325D0E7630344BF1E
:10AF24007368D960D2E71036394630460DF1020213
:10AF340001F0DAFD14F4403F80460CD13946304626
:10AF440007F0B5F9214B9845DED130469DF8021043
:10AF540001F018FED8E74FF0000901AB394630463E
:10AF640003AACDE90439CDE90199CDF80C9001F09B
:10AF74008FFC164B98428DD114F4003315D09DF8F4
:10AF8400033084F48034C4F300448DF80E30394621
:10AF94004B46304603AA8DF80C508DF80D4001F055
:10AFA40025FD0A4B9842CDD074E7CDE904333946E8
:10AFB4000DF10303304603AA039301F069FCF0E7A3
:10AFC400803352F82330FFDE002584400000AD0BAF
:10AFD400F0B5406801F01F04057B87B044EA4514CE
:10AFE4000569002D5FD0B2F5001F00F1100506D1F0
:10AFF4002146284607F05DF9002007B0F0BD002780
:10B00400B2F5800F01AE0197776037D1B3F1007FBD
:10B0140014BF052304238DF804300023CDE9046311
:10B024000393836823FA01F111F0010118D1B2F1FD
:10B03400A07F15D104F01F03620903F1800338D106
:10B044001D4A52F82330DB070AD40DF103063246B9
:10B054002146284601F048FD184B984219D0029623
:10B064002146284603AA01F013FC154B98421DD132
:10B0740001222146284601F091FDBDE7B3F1C06FDE
:10B0840005D0B3F1007F14BF01230223C3E70323D8
:10B09400C1E73146284601F07BFD094B9842DED0DA
:10B0A4006FF00B00A9E76FF08500A6E76FF01500BD
:10B0B400A3E751F82330FFDE002584400400AD0BE4
:10B0C4000000AD0B2DE9F04740F2FF16594FDFF8B1
:10B0D40068C1DFF868E100EB8101814202D1002000
:10B0E400BDE8F087046814F4804FC4F3C325C4F3A7
:10B0F400080340F08C80240EB34208BF4FF0FF33A6
:10B104007D5D192C00F28680DFE804F00D13191C14
:10B114001F251C8484848436608484848484848489
:10B12400848463787B7EC2F80C355C1C5BD104306C
:10B13400D3E7C2F814355C1CF9D000245CE0C2F8F3
:10B144000835F2E7C2F81035F5E75C1CC2F808359B
:10B15400EDD0002404E05C1CC2F80C35E7D00124D7
:10B164005FEA531859D14FF00109DFF8CC8009FA8E
:10B1740003FAC8F80CA008E0C2F80835002DDAD1AB
:10B184005C1CD4D000240625A146D0F800A00AF403
:10B194000048B8F1000F1CBF4FF00009012403F070
:10B1A4001F085B093FD10CEB8808D8F80032CAF3BA
:10B1B400412A03EA0E0343EA8A0343EA052343EAE6
:10B1C400090343EA4403C8F80032B0E7C2F80C3577
:10B1D400D4E7C2F86035B3F1FF3F0468A7D0C4F3E5
:10B1E4000044002CBBD05C091AD10124DFF848804C
:10B1F40004FA03F9C8F80890A146C6E7C2F8643512
:10B20400E9E7C2F86835E6E7C2F86C35E3E76FF0C2
:10B21400150065E76FF0850062E70023DB60FFDE61
:10B2240000239B60FBE7002308F1800853F82830D3
:10B23400F5E700BF0843020000258440F0F8FCFF56
:10B244002DE9F04104460D46476808F00DF94FF02A
:10B25400200888B9264B1B7873B16426606806F011
:10B264004CFCF0B9012006F0BFFF013EF6D10021ED
:10B27400212008F098F9F0E7EFF31186314688F3BE
:10B284001288BFF36F8F606806F037FCA8B986F3A5
:10B294001188BFF36F8FEFE786F31188BFF36F8FC9
:10B2A400E5E7EFF31186314688F31288BFF36F8F19
:10B2B400606806F022FC0028EED0BB6900201D70F7
:10B2C4006368BA691B68C3F844250122C3F848259A
:10B2D400C3F82001D3F82041C3F85801D3F858012A
:10B2E4009A6081F31188BFF36F8FBDE8F08100BFCE
:10B2F40040D40020F7B50546002201210820FDF7BF
:10B3040055FE0820FDF722FE6A6813691168C1F82A
:10B314002435137D507D927D03431343C1F86C356E
:10B324006E68D6E9004313F0010348D02F6907F192
:10B334000C0001F08BF8304B98425AD1387B04F161
:10B344000C0204F5907106F051FF387B012707FACF
:10B3540000F001F075F80823C4F80035B369C4F8A7
:10B3640044350023C4F84835A760D4F85831002B7D
:10B37400FBD00021C4F800156B6801AADC682046E4
:10B3840006F004FB002805DB019B22681979186884
:10B39400FFF798FE08216A681368C3F80015117A4C
:10B3A40051B9D269C3F834250122C3F83825C3F84A
:10B3B4001011D3F810111A60002003B0F0BD082258
:10B3C400C4F80025B269C4F84425C4F848350123FB
:10B3D400A360D4F82031002BFBD00023C4F8203123
:10B3E400D4F820310123E3604FF48073C4F80433AC
:10B3F400BBE76FF00400E0E70000AD0B2DE9FF416F
:10B4040005690646D0F80480A86C2B6D002835D158
:10B41400002B53D0B8F830406A6C9C4228BF1C46BD
:10B42400EF6CEB6C53B1296D41B107F06041B1F1A0
:10B43400005F03D0082C28BF08246F6E00926A6C4A
:10B44400AC651AB1AA6C002A18BF2246CDE90127BF
:10B454001BB12B6D002B18BF2346002269464046C2
:10B46400039301F00BFF184B984229D06FF00401AD
:10B47400304604B0BDE8F04106F0B2BC696CEF6C34
:10B484000A46B8F83040ABB1834228BF03469C4219
:10B4940028BF1C460029C4D001F06043B3F1005F0B
:10B4A400BFD0082C28BF0824286E224608F055F97E
:10B4B4002A6EB6E7844228BF0446EBE71946D7E76D
:10B4C40004B0BDE8F08100BF0000AD0B2DE9F04FE2
:10B4D4008DB001934368884602938B88054699048E
:10B4E400914604692DD44FF0FF324FF0FF3304F13D
:10B4F400100003F0ADFAC4F80480D5F804B0D5F810
:10B5040010A0DBF8083003939AF85D3023B1DAF821
:10B514000030984500F09D80B8F804E01EF4006FF8
:10B5240016D06FF0850623689B8813F4005304D16A
:10B53400636004F1100003F057FA30460DB0BDE823
:10B54400F08FA369002BCED163689845CBD1D4E7A3
:10B554001EF0090F02D06FF01506E4E7CEF3451391
:10B56400082BF8D1D8F800C08B4B9C45F3D904AE16
:10B574000BF10C070FCF0FC697E80F0086E80F00FA
:10B58400039B634528BF63469C46844B9C4511D26C
:10B59400834B9C4546D8834B9C4545D8824B9C4560
:10B5A40044D8824B9C4543D88149824B824A8C457E
:10B5B40088BF13461EF0020F09930EF0040339D01E
:10B5C400002B14BF032302238DF82830CEF300137D
:10B5D4008DF82930DBF800301EF0020FD3F808256F
:10B5E40076484FF00103CEF340014FEA521625D1BD
:10B5F400002E40F0CB809340C3609AF85D302BB1AD
:10B60400584601F0FFFD00238AF85D302B4658466A
:10B614006B4A04A901F0C2FD6A4B984214D06FF042
:10B62400040680E7684BC5E7684BC3E7684BC1E78E
:10B63400684BBFE7003B18BF0123C5E7002E40F06D
:10B64400A78093408360D8E70123CAF800808AF872
:10B654005D30012384F85C30029B996B4A1C03D053
:10B6640003F13C0000F0E8F8B9F1000F68D1C4F828
:10B6740034900023A36304F1480204F1380104F177
:10B68400340006F0D8FA019B6064002B60D1E363B8
:10B694000023236404F1500204F1400104F13C004E
:10B6A40006F0C9FA002601213246E06426632046EA
:10B6B40006F0F8FA2846FFF7A1FE32463346A06B9F
:10B6C40083424DD100231946266CB1424FD1934297
:10B6D40038BF134627464FF4FA524FF0000802FBD6
:10B6E40003F657F8203B4FF4004C1B684146B6FB69
:10B6F400F3F640F2E730C8364FF47A720023E6FBE3
:10B704000C01FCF71DFD02460B46384603F0A0F978
:10B71400024618B9266B16F1740F2FD10298C4F89B
:10B72400588001F06FFD6FF07301284684F85D8046
:10B7340006F056FB384603F0B1F96FF07306F2E6F3
:10B74400D9F800306363002B93D0D9F8043091E723
:10B75400019B1B68E363002B9AD0019B5B6898E70D
:10B76400616B01EBC301496801330A44A8E7E06B4C
:10B7740000EBC100406801310344A6E7002E3FF40A
:10B78400D2AE0146286906F08DFACCE6C960FFDE28
:10B7940000239B60FBE700BF47E8010000127A002A
:10B7A400FF083D007F841E003F420F001FA10700D9
:10B7B4008FD0030048E8010090D0030000258440A6
:10B7C400071E02000000AD0B00093D0080841E002E
:10B7D40040420F0020A107000123F0B587B08DF887
:10B7E4000230022300248DF804306B4403930F4687
:10B7F40001AB0DF10301049305460291059401F098
:10B80400C7F90C4B064698420FD13946284603AA7D
:10B8140001F03EF8B0420BD028469DF8031001F029
:10B82400B1F96FF0040007B0F0BD6FF01200FAE751
:10B834002046F8E70000AD0B2DE9F0410D46064621
:10B8440006F039FD002207462946304601F0A6F9E4
:10B854006B0905F01F0429D1174B03EB8404D4F8BA
:10B864000022164B134043F00C03C4F8003206F0D8
:10B874002DFB80463368DB597BB1002730462946CF
:10B8840006F017FDD4F800220C4B3846134043F061
:10B894000403C4F80032BDE8F08106F017FBA0EB06
:10B8A40008000628E6D96FF07307E7E70023803421
:10B8B40053F82430FFDE00BF00258440F0F8FCFF7D
:10B8C4000123834070B5DC430B4AD2E8EF1F01EA41
:10B8D4000405C2E8E65F002EF7D14FF480328240BF
:10B8E4000648C0F80823BFF35F8FBFF36F8F0B4286
:10B8F40014BF0120002070BD38CE0020005001404C
:10B9040070B40E4922F07F46D1E90034D01AC3182E
:10B9140044F10004C1E90034A6F50013B3F5400F67
:10B9240009D2074B1B681A0A1B069C19054B42F1E6
:10B934000005C3E9004570BC03F012BF68C80020CD
:10B944003CCE002070C80020D9B101230D4A8340A9
:10B95400D2E8EFCF4CEA030CC2E8E1CF0029F7D1DB
:10B964004FF48033084A8340C2F80433074BD3E8CA
:10B97400AF3FC340DB0742BF4FF40012044BC3F890
:10B984000021704738CE00200050014034CE002002
:10B9940000E100E00D4B1868010A0006BFF35F8F59
:10B9A4000B4BD3F80435181841F10001B3F5801F8F
:10B9B4000AD2084BD3E90023904271EB030303D26C
:10B9C40010F1807041F10001704700BF3CCE0020AF
:10B9D4000050014070C800202DE9F04F85B0164694
:10B9E4001F4604469DF840A0FFF76AFF0190FFF749
:10B9F400D1FFB04271EB070352D23B4B301A67EBD5
:10BA04000101984271F100014DD2384B03EB04134C
:10BA1400D3E902239F4208BF964258D04FF480389E
:10BA2400334908FA04F8204626F07F4BC1F84883CE
:10BA340006F040FA4FF00309584604F15005AD00F2
:10BA4400ADB205F1804504F5A87305F5A835029358
:10BA5400029A20F07F4341F82230C1F84483D1F8A0
:10BA64000435244AC01A033820F07F4090422ED96E
:10BA7400286868B1D1F80435A3EB0B0020F07F40AF
:10BA8400B0F5000F039322D9204606F013FA039B66
:10BA9400BAF1000F07D109EB030009F10109D7E757
:10BAA400BAF1000F09D06FF0150520460199FFF790
:10BAB4004BFF284605B0BDE8F08F01230E4AA34092
:10BAC400D2E8EF0F1843C2E8E10F0029F8D1074983
:10BAD4000E982301C8500F9B01EB04120025C2E904
:10BAE40002675360E1E700BF0100800058C80020EE
:10BAF40000500140FDFF7F0034CE00207FB50025BB
:10BB04004FF0FF304FF0FF31194C1A4B0226C4F8A6
:10BB14000833C4F84833184BC4F80855C3E9020184
:10BB24004FF480334FF40012C4F80433134B012153
:10BB3400C4F804631520C3F880212A46FDF736FAB9
:10BB44001520FDF703FA01230D4AA3602360136057
:10BB54000C4B0D4A009328460023CDE90155FFF70D
:10BB64003BFF3046FEF72AFF284604B070BD00BFF5
:10BB74000050014003000F0058C8002000E100E01D
:10BB840038CE002005B90100FFFF7F002DE9F743FF
:10BB94002E4BD3F8042390070BD5D3F8042142B1DC
:10BBA4000022C3F804212A4AD3F80431136801336C
:10BBB4001360264AD2F80433D90326D5254BD3E89B
:10BBC400EF1F21F00100C3E8E40F002CF7D1CB07ED
:10BBD40002D4D2F84031C3B100251C4CC4F8405102
:10BBE400D4F84031FFF7D6FEEFF31182202383F31C
:10BBF4001288BFF36F8F184BD3E90267B042B94183
:10BC040006D282F31188BFF36F8F03B0BDE8F083CF
:10BC14004FF0FF38D3E900104FF0FF391D60C3E93E
:10BC240002894FF48033C4F84833C4F84051D4F83F
:10BC3400403182F31188BFF36F8F0029E5D0009063
:10BC440032463B4628468847DFE700BF00500140A4
:10BC54003CCE002034CE002058C8002030B5431C10
:10BC6400124C85B005D08442A8BF0446012CB8BF4D
:10BC74000124FFF78FFE0E4B0C4DD3E90013401A3D
:10BC8400B0F5000F0FD22218AA4228BF2A4600207E
:10BC940052180849CDE90100009143F10003FFF770
:10BCA4009BFE05B030BD2A46F1E700BFFFFF7F00D1
:10BCB40068C8002005B9010008B5FFF76BFE024B08
:10BCC4001B68C01A08BD00BF68C80020012310B556
:10BCD400074C15206360FDF747F94FF40012054B3C
:10BCE400C4F80833C4F84833034BC3F8802110BDAB
:10BCF4000050014003000F0000E100E0F0B50F4BDD
:10BD040001461A680E4B0B25002618461F46B842FA
:10BD140001D3013D04D11846013A19605A60F0BDBF
:10BD240004688C42FBD03CB14468141BA642BCBFDF
:10BD3400034626460830EAE70346ECE7C0CE002077
:10BD4400CCCE00200020054BC3E90000044BD3E80F
:10BD5400EF2FC3E8E10F0029F9D17047C4CE0020CA
:10BD6400C0CE00202DE9F04F87B005460E4606F000
:10BD74000CFF20B96FF06D0007B0BDE8F08F07F03D
:10BD84008BFC33680446002B0F4604D103F056FAAB
:10BD94006FF00A00F0E7BCBF4FF0FF3333600122BD
:10BDA400002101A807F0F2FAE8460595EFF3118B9C
:10BDB400202383F31288BFF36F8F07F0AFFDDFF802
:10BDC40028A1DFF828915AF80000FFF797FFD9F867
:10BDD400003042689A426ED10023454D00936B684F
:10BDE400002B6FD1C5E900888BF31188BFF36F8FE7
:10BDF40033685A1C6BD04FF4004E40F2E7300021F8
:10BE040023EAE37C4FF47A720023CCFB0E01FCF7A7
:10BE140097F902460B4601A802F01AFEEFF3118BC4
:10BE2400202383F31288BFF36F8F00222B685BB14A
:10BE3400434556D10099002A4DD16A6829609A4237
:10BE440000D169600023009307F068FD5AF80000F0
:10BE5400FFF754FFD9F8003043608BF31188BFF328
:10BE64006F8F06F092FE002884D035686B1C27D0B3
:10BE740007F012FC4FF47A7EA0FB0E320EFB012178
:10BE8400A4FB0E420EFB0722DB0BE40B43EA414307
:10BE940044EA42441B1B4FEAD1314FEAE57C61EB93
:10BEA400D231ED1A6CEB010CBCF1000FB8BF0025C8
:10BEB40035602DB96CE743608BF31188BFF36F8F46
:10BEC400002059E7C3F80080C5F804808CE74FF0E0
:10BED400FF3213469FE711606968994208BF6A60A0
:10BEE400B0E71A461B68A2E708000000C0CE002095
:10BEF400C4CE0020024600B507F010FD014B1A50D5
:10BF04005DF804FB0C00000030B404682CB10C4B49
:10BF14009C4202D380339C4209D30A4B1C78072CE1
:10BF240009D8651C1D70064B03EB041303600068FD
:10BF340030BC07F02BBA6FF00B0030BC704700BF69
:10BF440040CE002034D4002038B505460A4BD3E84F
:10BF5400EF1F0131C3E8E21F002AF8D1074B1C6828
:10BF640004B938BD6369AB4201D005B113B9201DD2
:10BF740002F03AFD2468F3E7C0CE0020C4CE0020CE
:10BF8400014600220023014807F0D9B81CCF002045
:10BF94000146014807F0DDB81CCF0020014600220D
:10BFA4000023014807F0CBB830CF002001460148F8
:10BFB40007F0CFB830CF002070B50546054C064ECB
:10BFC400B44200D370BDD4E9003128469847083400
:10BFD400F6E700BFA4430200A443020010B90248DC
:10BFE40001F0EEBD704700BFBDBF010003780146FC
:10BFF40013B1024801F0EABD704700BF23430200B9
:10C0040008B5B0B90B48FFF7F1FF0B48FFF7EEFF97
:10C014000848FFF7EBFF0748FFF7E8FF0548FFF77D
:10C02400E5FF0448FFF7E2FFBDE808400148FFF7D9
:10C03400DDBF08BD644302002643020001490248F3
:10C0440005F09FBF0DC1010044CF00202C4A00F031
:10C054000800136F072B2BD0132B1CD0052B3AD1C0
:10C06400526D12F4805F14BF1723162312F4006F6D
:10C0740018BF182312F4007F1EBF224B9B6B192399
:10C0840012F4806F18BF1A2312F4807F25D112F4A2
:10C09400005F18BF1C23CA6968BBC2F3080020B93B
:10C0A4006FEA52226FEA4222CA61184604F075BC54
:10C0B400D36DDA0713D49A0713D45A0713D41A0783
:10C0C40013D4DA0613D49A0613D413F0800F14BFD2
:10C0D4002C232523DFE70023DDE71B23DBE72623CF
:10C0E400D9E72723D7E72823D5E72923D3E72A232A
:10C0F400D1E72B23CFE722F4FF7222F00102D3E72A
:10C1040044CF002000ED00E000B5104B89B05A6A1E
:10C11400D86C00929A6A20F005000192DA6A6946A6
:10C1240002921A6B03925A6B04929A6B0592DA6B21
:10C1340006921A6C1B6D07929B0748BF40F00400DF
:10C14400FFF784FF09B05DF804FB00BF44CF002073
:10C15400F0B585B06E4681680546103921F00704B4
:10C1640004F03EFB32460A4B03F1100C37461868C4
:10C174005968083303C763453E46F7D11023214667
:10C18400284604F0E4FA003818BF012005B0F0BDD9
:10C194006040020030B50D46816887B0102302AAC2
:10C1A4001039044604F0BEFA002802DA012007B070
:10C1B40030BD1022204602A905F01EFF00283AD106
:10C1C40010221E4902A807F0F7FA00280CBF012329
:10C1D40002232B70204605F0FBFE012301460DF1DE
:10C1E4000702204604F09EFA0028DFDB9DF80730A2
:10C1F400204603F00F021B096A702B7101220DF116
:10C20400070105F0F9FE10B96B78042B03D901235B
:10C214006B7000232B71A2682046183A22F00702A3
:10C22400083AA91C05F0FBFE0028BFD12046E91CF2
:10C2340005F04EFFBBE70323CBE700BF60400200DD
:10C244007FB5264D4400694655F8240005F046FFA5
:10C25400002835D1013455F8240002A905F03EFF29
:10C2640001282BD103238DF808308DF80B300024DE
:10C274009DF800509DF80860194A2946107805F089
:10C28400ADFE18B33146507805F0A8FEF0B19378AE
:10C29400042B03D09DF80310994217D1D378042BB3
:10C2A40003D09DF80B10994210D11379042B09D1B6
:10C2B4005079831E022B03D804B070BD0028D6D059
:10C2C400FF20F9E79DF802109942F1D00134032CC4
:10C2D40002F10602D1D10120EEE700BF18400200AE
:10C2E4003E4302002DE9F041A2B005460E46174632
:10C2F400984607F0B9F870B9114B1B785BB14FF051
:10C30400FF324FF0FF330F4802F074FA044618B1BD
:10C314006FF0830510E00124684604F04FFB4246A9
:10C3240039463046289BA8470546684604F047FB33
:10C3340014B9044802F0D6FA284622B0BDE8F081C8
:10C3440040D400206CC70020002300B589B0CDE99B
:10C35400063303AB0493042303900593A9B10B683C
:10C3640006934B6807930223111E18BF0121084846
:10C37400CDE9002140F2F53104AA00F00BF80028C1
:10C38400B8BF012009B05DF804FB0123ECE700BF4E
:10C394000501004010B4B1F5004F029C0ED2042BED
:10C3A4000CD8042C0AD8240444EA0364134644EA4F
:10C3B4000102014610BC0348FFF794BF6FF08000F0
:10C3C40010BC7047217C010030B50468ACB1B4FAEC
:10C3D40084F30122C3F11F03DBB29A4024EA020270
:10C3E400D0E8EF5FA54204D1C0E8EC2FBCF1000F08
:10C3F400F6D1EAD102480B7030BD0248FCE700BF19
:10C404000000AD0B0200AD0B10B50368CB40DB0799
:10C4140010D401238B40026843EA0201D0E8EF4FB5
:10C42400944204D1C0E8EC1FBCF1000FF6D1F2D164
:10C43400014810BD0148FCE70000AD0B0400AD0B42
:10C44400014BC3F8040570470070014001460148E0
:10C4540000F01AB984C60020F7B5064618B30128BF
:10C464001FD104224FF48073014629480025C0F8E7
:10C474000813012142F2107402F1804203F1804357
:10C4840003F5A04302F5A04211601D608E421B68B3
:10C494001F4F8DF8071008BF0DF1070546B1012E97
:10C4A40023D003B0F0BD0C224FF482730221DCE7E9
:10C4B400D7F8183403F480333DB9002BF1D00120B0
:10C4C40005F092FE013CF3D1EBE7D7F8182402F013
:10C4D40003022A70002BE4D09DF807000128E0D164
:10C4E40005F082FE013CD9D1DBE7D7F80C3403F424
:10C4F40080333DB9002BD4D0012005F075FE013CFA
:10C50400F3D1CEE7D7F80C2402F00102E1E700BF33
:10C5140000500040044B1A7922B9012218601A71A4
:10C524000248704702487047B8CF00200000AD0BA6
:10C534000C00AD0B08B5074B1B6833B10520FCF7A5
:10C5440027FD10B90520FCF701FD0122024BC3F8B9
:10C55400182508BDB8CF00200050004010B510B118
:10C56400012848D010BD294BD3F81814D3F8182447
:10C57400C90324D502F00303022B05D0012B02D0FA
:10C584000020FFF769FF0123204A0220C2F8183572
:10C5940008224FF48273002103F1804303F5A04382
:10C5A40019601C68012402F1804202F5A042146063
:10C5B400174A12681AB3154BC3F80403D2E7D3F829
:10C5C4001424D207DFD5D3F81C2402F00302013A65
:10C5D400012AD5D80E4A12681AB10222C3F80423DC
:10C5E400C0E7D3F80421002AFBD00022C3F80421B9
:10C5F400D3F80431B6E700224FF48073CBE71A680E
:10C60400002AFCD019601B68ACE700BF0050004052
:10C61400B8CF0020F8B50126194C1A4FD4F80453AA
:10C6240005B9F8BDB5FA85F0C0F11F00830003F524
:10C6340080739BB203F1804303F5A04306FA00F232
:10C644001968D2B225EA02050029E9D00021022A9C
:10C6540019601B68C4F808230DD1D4F81834D4F831
:10C66400183403F00303012B05D1C4F81825C4F8CA
:10C674000423A360D4E73B68C0B29847D0E700BF67
:10C6840000500040B8CF00200079024B03EB0010AB
:10C69400FFF79ABE8CC60020036803F01F025B09F3
:10C6A4000260024818BF0020704700BF0025844084
:10C6B40070B50D4C00F1080334F813300546DA0563
:10C6C4000E4607D5C3F3432304EBC302526854F860
:10C6D40033309847A3682BB131462846E268BDE859
:10C6E4007040184770BD00BF9CC60020024611F080
:10C6F400010004D003490B6A13600B6203B90020E4
:10C70400704700BF0025844010B4124AC0B20830FC
:10C7140032F81030D9051BD5C3F3432123F4F85361
:10C7240022F81030002002F10E0434F8023F13F412
:10C73400807F03D0C3F34323994209D001302028DA
:10C74400F3D1002342F83130034810BCFFF75CBE3C
:10C7540010BC70479CC60020F4C60020F0B5054606
:10C7640000200126044607468C420BD1114BD3F816
:10C774007C2132B10022C3F87C21D3F87C3140F013
:10C784000040F0BDE3B29B0003F580729B0806FAFB
:10C7940003F31D420BD002F1804202F54432D2F879
:10C7A40000C0BCF1000F02D01760126818430134B6
:10C7B400DAE700BF00100340064BC0B2083033F87C
:10C7C4001000830643BF400B800000F580704FF4D7
:10C7D400BE7070479CC60020CBB2024608460D4985
:10C7E400083331F81330990611D599070FD4012174
:10C7F40010685B0B9940C0F80813126802EB8303BE
:10C80400D3F8102522F00302C3F810257047002145
:10C8140005F03EBD9CC60020F7B5194ECDB20835D3
:10C8240036F815300746DB070C4626D5FFF7D4FF4C
:10C8340036F815309A0608D55A0B3B6803EB820389
:10C844000022C3F81025C3F810252046FFF75CFF2B
:10C85400002301A826F815300194FFF71DFF019B62
:10C8640000EB8300D0F80022064B134043F0020390
:10C87400C0F80032044803B0F0BD0448FBE700BF31
:10C884009CC60020F0F8FCFF0000AD0B0400AD0BCB
:10C894002DE9FF41136807460C461646FBB1DFF845
:10C8A4003C81CDB2083538F8152002F02202222A44
:10C8B40022D000222046CDE900228DF80E208DF8EA
:10C8C4000F200DF10E010DF10F0205F098FC38F860
:10C8D400153023F0020343F0010328F81530736880
:10C8E4004BB31A785868DFF8F4C0E3B208333CF865
:10C8F40013108D0702D5B0B139481FE021F0200193
:10C90400C904C90C2CF8131068B1032AF4D8706850
:10C914003D68406890F800E005EB8E058AB9C5F8DB
:10C924001025C5F810253CF8131021F01C0141EA2C
:10C9340082022CF81320B3682BBB2A4804B0BDE84C
:10C94400F081D5F8108541EA4E3128F00308C5F886
:10C9540010853D6841F0200105EB8E05D5F81005E2
:10C964002CF8131020F4473020F44070C5F810055B
:10C974002002D5F8107500F4F85040EA024038431C
:10C98400C5F81005CFE72046D3E90067FFF7BCFEE2
:10C99400002ED2D0114DD5E90023964203D19F42F7
:10C9A40001D1002209E010480DF10F01FFF70CFD41
:10C9B4000C4B9842C2D19DF80F20E4B205EBC203A0
:10C9C40008345F6035F8143045F8326043EA422396
:10C9D40043F4807325F81430AFE700BF9CC60020F1
:10C9E4000400AD0B0000AD0BF4C600202DE9FF419F
:10C9F40007460C461E4612B3DFF8D480CDB2083584
:10CA040038F81530980701D4990621D413F01C0F77
:10CA140002D05378012B1BD001238DF80F30002353
:10CA24002046CDE900230DF10F01931C013205F0DE
:10CA3400E6FB38F8153043F0030328F81530002ED0
:10CA440044D0234DE1B2083135F81120930703D4C3
:10CA5400204804B0BDE8F081002096F800E03B686F
:10CA640022F02002D20403EB8E03D20CC3F810058B
:10CA740025F81120C3F8100596F801C04FEA8E0876
:10CA8400BCF1000F22D03868B6784044D0F8103595
:10CA94004FEA0C4C23F4981323F4F853C0F81035E0
:10CAA400230203F4F8530CF4403C3605D0F8107517
:10CAB40043EA0C0306F48016334342EA4E323B4306
:10CAC40042F02002C0F8103525F811200248C0E7D2
:10CAD4009CC600200400AD0B0000AD0B014BC3E964
:10CAE400021270479CC60020054BC9B2083133F8C6
:10CAF4001130990643BF5B0B02481370024870471C
:10CB04009CC600200000AD0B0400AD0B70B5154DA4
:10CB1400064695F860401CBB2146402205F11000F2
:10CB240006F042FE214630682E6D8E420ED100235F
:10CB3400C0F87C31D0F87C3140F30730FCF706FABA
:10CB44000123094885F86030AB6570BDCBB29B000A
:10CB540003F580727C2B04BF845083580131E4E7D1
:10CB64000248F2E79CC600200000AD0B0C00AD0BA0
:10CB7400034B93F86000003818BF0120704700BFD2
:10CB84009CC600200148FFF73FBC00BFF0C6002050
:10CB94000148FFF719BC00BFF0C6002073B5036855
:10CBA4000C46D3F804130029A4BF4FF00041C3F886
:10CBB40004131E49E3B2083331F8133099061AD529
:10CBC40013F0020617D15B0B05689C0004F5807115
:10CBD4006E50695801682144D1F8104544F00104AD
:10CBE400C1F810452AB10122016802FA03F3C1F821
:10CBF400043302B070BDC3F38203042B11D0052BA0
:10CC040011D001A80194FFF747FD019A0369D340AD
:10CC140003F00103991C204602B0BDE8704005F002
:10CC240037BB0321F7E70221F5E700BF9CC60020CC
:10CC34002DE9F347534B544FD3F80403396DC0B275
:10CC440040F00040FFF78AFD051E18DA002368460D
:10CC5400F96D00934FF00108FFF748FD97F85C3039
:10CC6400DA0757D4396D4FF00040FFF777FD684677
:10CC7400F96DFFF73BFD0028F0D125F000450124B4
:10CC8400002D66D102B0BDE8F08794FAA4F4B4FA9A
:10CC940084F4E00804F1080337F8139004F0070261
:10CCA4001DF8003008FA02F223EA02030DF80030FE
:10CCB40001A80194FFF7F0FC019B4FEA990180332E
:10CCC40050F82360C9F3820A4B07D146C6F30146E4
:10CCD40024D520465146FFF7EBFC01A80194FFF749
:10CCE400DBFC019BF6B2803350F82330C3F30143DD
:10CCF4009E4207D10021204605F0CAFA314620465B
:10CD040005F0C6FA01A80194FFF7C6FC019B08FAD6
:10CD140003F30362009C002CB7D1A3E7022E0CD1CD
:10CD24000321204605F0B4FA0AF00503012BE9D1EA
:10CD340049462046FFF7BCFCE4E70221204605F003
:10CD4400A7FABAF1030FF3D0032EDBD1BAF1020F25
:10CD5400EDE795FAA5F3B3FA83F304FA03F29B0023
:10CD640003F1804303F54433D3F81005D3F81015C9
:10CD7400C0F30420C1F3014125EA0205FFF798FC42
:10CD84007EE700BF001003409CC6002070B5084C2D
:10CD94000E462379154643B92A20FCF7D7F8012318
:10CDA400044823712660A56070BD0348FCE700BFFA
:10CDB400C0CF00200000AD0B0C00AD0B002330B53C
:10CDC4000D4A50F8234003F5A2710133082B42F8B1
:10CDD4002140F6D10023084A00F11C0103F5B27486
:10CDE40051F8045F0133082B42F82450F6D1036C48
:10CDF400C2F8043330BD00BF00A0024038B500249F
:10CE0400154D2A20C5F81045C5F81445C5F8184530
:10CE1400C5F81C45C5F82045C5F82445C5F828457E
:10CE2400C5F82C45C5F89045C5F89445C5F898450E
:10CE3400C5F89C45C5F8A045C5F8A445C5F8A8455E
:10CE4400C5F8AC45FCF790F84FF0FF33C5F808334C
:10CE5400024B1C7138BD00BF00A00240C0CF0020AF
:10CE64000123024A8340C2F80433704700A0024001
:10CE74000123024A8340C2F80833704700A00240ED
:10CE8400F8B5012600270B4B0B4DD3F80C4304B91E
:10CE9400F8BD94FAA4F0B0FA80F006FA00F324EA9C
:10CEA4000304064B82009F502B68002BEFD0A96827
:10CEB4009847ECE700A00240C0CF002000A1024048
:10CEC400044AD2F80834DB07FBD50160BFF35F8F57
:10CED400704700BF00900340C0F30B037BB90222EC
:10CEE400084BC3F884254FF0FF320260D3F80024C6
:10CEF400D207FBD500220448C3F8842570470348B1
:10CF0400704700BF009003400000AD0B0A00AD0B5A
:10CF1400012310B5044CC4F88435FFF7D1FF002376
:10CF2400C4F8843510BD00BF00900340430904D108
:10CF34000123034A83409360704700239B60FFDE14
:10CF4400002584400C4B984213D00AD80B4B9842CE
:10CF54000FD00B4B98420CD00A4BC31A584258417D
:10CF64007047094B984204D0084B984201D0084BB3
:10CF7400F3E70120704700BF40420F0090D0030048
:10CF840020A1070048E8010000093D0000127A00D2
:10CF940080841E00431C14D000F01F0340090BD1F1
:10CFA400084A02EB8302D2F80012074B0B4043F00D
:10CFB4000203C2F8003270470022803352F8233053
:10CFC400FFDE704700258440F0F8FCFF430904D1DC
:10CFD4000123034A8340D36070470023DB60FFDEF4
:10CFE4000025844038B51446421C054616D0012954
:10CFF40002D1A3B1FFF79AFF05F01F036D0911D108
:10D004000B4A41EA840402EB8303D3F80002094A81
:10D014000240144344EA4101C3F8001238BDFFF74B
:10D02400D5FFE9E70022803352F82330FFDE00BF4A
:10D0340000258440F0F8FCFF2DE9F843504B4D697E
:10D0440006469D420C4690F8049000F0848077D800
:10D054004C4B9D4200F082804B4B9D4200F08180FE
:10D064004A4B9D420CBF4FF000754FF0804524227F
:10D07400DFF81C81E07E02FB0983997F60F30001E5
:10D0840099773379217C02FB03839A7F61F3410210
:10D094009A77E77EEFB9237E3A46012B94BF0023AB
:10D0A400012301212068FFF79DFF3B463A460121F9
:10D0B4006068FFF797FF3B463946A27EA068FFF7FA
:10D0C40091FF237C3A460121E06883F00103FFF7D6
:10D0D40089FF242303FB0983E2681A62217C9A7F77
:10D0E40061F341029A77277FA07C217E637E3268B8
:10D0F40047B9D4E900C7A468C2F808C5C2F80C75DA
:10D10400C2F81045003B18BF01230229C2F8C0052C
:10D11400C2F824552BD003292CD0012901D143F086
:10D124000203C2F8543524223379534358F80330A8
:10D134001BB33068BDE8F84340F30730FBF706BF84
:10D14400144B9D4210D0144B9D420CBF4FF0004530
:10D154004FF080458BE74FF0805588E74FF08065AE
:10D1640085E74FF0006582E74FF000557FE743F015
:10D174000403D6E743F00603D3E7BDE8F88300BF12
:10D1840040420F0090D0030020A1070048E80100AE
:10D19400CCCF002080841E0000127A002DE9F843D1
:10D1A4000746242597F80480124C05FB08F504EB88
:10D1B40005091E4699F81C30C3B999B14869FFF7AF
:10D1C400C1FEA8B138466251C9F80460FFF734FFC4
:10D1D400242303FB084400236377012306482377B1
:10D1E400BDE8F8836251C9F80460F1E70348F7E742
:10D1F4000348F5E7CCCF00200000AD0B0C00AD0BCD
:10D204000400AD0B2DE9F041044606790068194D80
:10D2140040F30730FBF7A8FE24237343EB5853B1C4
:10D224002368154A06EBC601C3F80823206805EBFA
:10D23400810105F09FF82368242404FB0654D3F8E5
:10D244000805D3F80C75D3F81085A37FDB070AD43F
:10D25400FFF7A0FE4046FFF79DFE3846FFF79AFE13
:10D26400206AFFF797FE242303FB065500232B7740
:10D27400BDE8F081CCCF00205201080024232DE921
:10D28400F0430779534D7B439046EA180E46517F8D
:10D29400814685B0002940F09B80EB5823B118F0FB
:10D2A400140F04BF01235377242496E80F0004FBD2
:10D2B400075404F10C0C8CE80F00206A421C04D0C3
:10D2C400A37F9B071AD5FFF731FE3368D9F80040D6
:10D2D40023B103F06043B3F1005F06D1B36883B1B7
:10D2E40003F06043B3F1005F0BD02423002203FB5F
:10D2F400075339485A7705B0BDE8F083FFF766FE57
:10D30400E3E718F0010318BF0123C4F8503518F0FF
:10D31400020318BF0123EC46C4F8403596E80F0019
:10D324008CE80F00039BC4F84405C4F84815C4F8FE
:10D334003425C4F838350023C4F81831D4F818312A
:10D344000723C4F8003524237B4318F0080F05EBAA
:10D3540003021DD10121E858216158B9D4F81831CC
:10D36400002BFBD062464021204604F0C5FF242355
:10D374007B43EA18EB5813BB106A461C13D107EB26
:10D38400C707204605EB870104F0F4FF1348B2E712
:10D39400EB58A3B9106A411CF8D0937F9A070BD5B8
:10D3A400FFF714FEF2E7937F9B0702D5FFF70EFE0B
:10D3B400E5E7FFF7BBFDE2E7FFF7B8FDE6E740234B
:10D3C40018F0040F14BFC4F80833C4F80433DDE7BD
:10D3D400034890E7CCCF00200A00AD0B0000AD0B52
:10D3E4000B00AD0B10B540210F4A104804F084FF28
:10D3F400C8B10F4C206A421C04D0A37F9B070FD5F1
:10D40400FFF7E4FD637F1BB10949084804F0B2FF4C
:10D41400002323720748D4E90031BDE810401847BF
:10D42400FFF784FDEEE710BDD8CF002000B0004028
:10D43400CCCF0020D4CF002070B516461D465A1C10
:10D44400036804461344C2689A4205D20821006A5C
:10D4540005F0ACFA002070BD32783DB1AB1E062B4E
:10D464008EBF00230B4AD35C1833DAB2204605F092
:10D47400A0FA0028EED03544B54203D1A3680133A5
:10D48400A360E8E723685A1C226015F8012D1A707E
:10D49400F2E700BF5043020007B5044BCDE9000199
:10D4A4001B686846984703B05DF804FBF0CF002082
:10D4B400014B1870704700BF35D40020024B187818
:10D4C400431E58425841704735D4002070B5036854
:10D4D4000446033BDBB2052B03D8094A52F8235018
:10D4E4002DB9A06858B1BDE8704000F011B805F03E
:10D4F4009CFB21682B46BDE87040090C184770BDA1
:10D5040020400200014B1B68184700BF00C70020E1
:10D51400014B1B69184700BF00C70020014B9B68E3
:10D52400184700BF00C70020014B1868704700BFB0
:10D53400F4CF0020002230B50B4B19680C689442DC
:10D544000FD001EBC2039D68A8420BD14FF0030238
:10D554000433D3E8CF1F002903D1C3E8C02F002828
:10D56400F7D130BD0132EAE714D000202DE9F041B3
:10D57400002406460F462046DFF854803368A34251
:10D5840001D8BDE8F08106EBC4056B68DBB2012B62
:10D5940016D16A68B8F80030B3EB124F10D1022FDD
:10D5A400A8680FD1FFF792FF01206B6823F0FF03F7
:10D5B40043F003036B60B8F800300133A8F800307F
:10D5C4000134DBE70168090C05F0E1FAECE700BF80
:10D5D400FCD3002010B5074C02216068FFF7C6FF9A
:10D5E4000028F9D101212068FFF7C0FF0028F3D1FA
:10D5F40010BD00BF1CD0002070B5072860D8DFE83C
:10D6040000F00B5F475F435F3C0400F007FF03201B
:10D61400BDE87040FEF798BC03202A4BD3F81446AB
:10D62400D3F81866284B1D781870EDB2FFF740FF49
:10D63400012D10D1254B264A9C4212D0230C1B04E9
:10D64400B3F1886F0DD0A4F58033203B022B0FD9A2
:10D654006FF0040313603146C4F30B00FFF71CFFA3
:10D6640000E014601B4B186804F038FC0020CFE77E
:10D67400194931F913301360F4E70024124B2046A2
:10D684001C70FFF715FFEDE7FFF7A4FF0220BFE7CB
:10D694000D4B1A78012AD0B20ED1104A1168104AE3
:10D6A4008C6854604968116002221A70FFF700FF09
:10D6B400084B186804F012FCFFF78CFF0120A7E761
:10D6C40070BD00BF00A0024037D400200100500507
:10D6D40018D0002004D000207040020000D00020A8
:10D6E4001CD000200A23F7B54FF47A750C4E0D4F69
:10D6F40001933168386805F073FA044640B904F0C0
:10D70400EBFB40B9012001A9FEF72CFB6E30F0D1F0
:10D71400204603B0F0BD0198684304F0DBFBE8E762
:10D7240008D0002010D00020054B1B782BB9054BE6
:10D734001968054B186805F053BA0020704700BFFC
:10D7440036D400200CD0002014D0002070B5164B25
:10D7540042681B6822F0FF0242F00202C31A4260D0
:10D764001248134A0168C3F38913D2E8DF4F651CDA
:10D77400C2E8D65F002EF8D101EBC3014A6892B229
:10D7840042EA04424A600268032002EBC30253687F
:10D7940023F0FF0343F00103536004F09BFB0122D9
:10D7A400044BDA6070BD00BF0CD0002014D0002000
:10D7B400FED3002000A002402DE9F04F95B038229E
:10D7C4000021064603A805F0EFFF02230493082373
:10D7D40006932023089304230D93102340250F93CD
:10D7E40080230122CDE91153D523002159480B92FE
:10D7F4001393FEF789FB0546002840F0A8800246F3
:10D8040055493079FFF7C2FA03A8FFF7D7FA34680D
:10D814006268B2F59D6F40F097806169E3680B44DC
:10D82400E16903F59D630B44B3F5003F00F28C807E
:10D834002068294605F0B8FF33681C68D3F81C90AB
:10D8440004F53A72019204F16007444A04F1A40811
:10D8540004F1200BB9F1000F60D1C2F800B000252B
:10D864004FF0010A2570657084F802A0E5703368F2
:10D8740040461B69636033685B69C4F814B0A360F5
:10D88400374BC4F81890C3F80080364BE7601F602C
:10D894000823C4F8108084F8A43088F8015088F86C
:10D8A400025088F8035084F860307D70BD70FD70BC
:10D8B40005F079F9384605F076F92B4B04F53A7200
:10D8C40031681A60294B04F1E802C8681A60284BD1
:10D8D400284E18600869496958609960264B2749A1
:10D8E400C3F81046C3F81456254B264C1D80264B0E
:10D8F40086F800A01D80254B029525601D611B69DB
:10D904000293029B134B186804F0EAFA98B10323BC
:10D914006FF073043370FFF771FA11E09B6904F13F
:10D924004009636433684846DB69C2F800B0236485
:10D9340000F04CFD93E72468002CECD1144B1C70D0
:10D94400204615B0BDE8F08F6FF01504E3E76FF0E3
:10D954002D04F5E704D00020FDD5010000D00020FF
:10D9640014D0002010D000200CD0002008D00020BB
:10D97400F4CF002037D4002000A00240F049020078
:10D98400FED3002018D00020FCD300200056004015
:10D9940036D4002070B5164B42681B6822F0FF0293
:10D9A40042F00102C31A42601248134A0168C3F3E9
:10D9B4008913D2E8DF4F651CC2E8D65F002EF8D188
:10D9C40001EBC3014A6892B242EA04424A60026827
:10D9D400032002EBC302536823F0FF0343F0010367
:10D9E400536004F077FA0122044B5A6070BD00BF03
:10D9F40008D0002010D00020FED3002000A0024058
:10DA040010B5FFF76FFE012400220321047081701A
:10DA14004270C270FFF7BEFF054B1C7005F0D6F8CC
:10DA2400BDE81040034B47F23051186804F058BA6F
:10DA340036D4002004D0002038B50A4B04461B78A5
:10DA4400022BDDB20DD1FFF74DFE50B100220121B2
:10DA54008460017042708570C270BDE83840FFF781
:10DA640099BF38BD37D40020034A126812B1002888
:10DA740000DB1047704700BF28D000202DE9F74392
:10DA8400002581460F461048294690461E460193BC
:10DA940002F076FA041E11DB0134204605F0F0F89A
:10DAA400C9F8000068B1334642462146019602F0A7
:10DAB40067FA28463C6003B0BDE8F0836FF01500B8
:10DAC400F9E76FF00B00F6E7283D020010B50E4BA6
