:10000000087100208D2E00005F8C0000792E00000A
:10001000792E0000792E0000792E0000792E000044
:10002000000000000000000000000000F12F0000B0
:10003000792E0000000000005D2F0000792E0000E6
:10004000F9310000F9310000F9310000F931000008
:10005000F9310000F9310000F9310000F9310000F8
:10006000F9310000F9310000F9310000F9310000E8
:10007000F9310000F9310000F9310000F9310000D8
:10008000F9310000F9310000F9310000F9310000C8
:10009000F9310000F9310000F9310000F9310000B8
:1000A000F9310000F9310000F9310000F9310000A8
:1000B000F9310000F9310000F9310000F931000098
:1000C000F9310000F9310000F9310000F931000088
:1000D000F9310000F9310000F9310000F931000078
:1000E000F9310000F9310000F9310000F931000068
:1000F000F9310000F9310000F9310000F931000058
:10010000F9310000F9310000F9310000F931000047
:10011000F9310000F9310000F9310000F931000037
:10012000F9310000F9310000F9310000F931000027
:10013000F9310000F9310000F9310000F931000017
:04014000F931000091
:1001440053B94AB9002908BF00281CBF4FF0FF313A
:100154004FF0FF3000F00CB8ADF1080C6DE904CE9F
:1001640000F008F8DDF804E0DDE9022304B070478C
:10017400704700BF2DE9F04786468C460846089E26
:10018400154674461946002B40F0C1808542B2FAE8
:1001940082F245D94AB1C2F1200300FA02FC95402B
:1001A40094402EFA03F343EA0C0C4FEA154EA8B21E
:1001B400230CBCFBFEF80EFB18CC08FB00F943EA49
:1001C4000C43994528D9EB1808F1FF3704D2994517
:1001D40002D9A8F102072B44A3EB0903A4B2B3FB91
:1001E400FEFC0EFB1C330CFB00F044EA0344A0426B
:1001F40014D92C190CF1FF3304D2A04202D9ACF16A
:1002040002032C44241A43EA07401EB1D4400023BD
:1002140034607360BDE8F0874746DDE76346F1E785
:1002240092BB431B01214FEA154EAFB2200CB3FB26
:10023400FEFC0EFB1C330CFB07F840EA0343984515
:1002440061D9EB180CF1FF3004D2984502D9ACF116
:1002540002002B44A3EB0803A4B2B3FBFEFC0EFB89
:100264001C330CFB07F744EA0344A7424DD92C196D
:100274000CF1FF3304D2A74202D9ACF102032C449F
:10028400E41B43EA0040C0E7C2F1200395409440D8
:1002940020FA03F12EFA03F34FEA154E9040AFB261
:1002A4000343B1FBFEFC0EFB1C10190C0CFB07F8FE
:1002B40041EA0041884522D969180CF1FF3004D283
:1002C400884502D9ACF102002944A1EB08019BB294
:1002D400B1FBFEFC0EFB1C110CFB07F743EA0143C8
:1002E4009F420ED9EB180CF1FF3104D29F4202D980
:1002F400ACF102012B44DB1B41EA004193E7604669
:10030400E3E76146F7E76046A4E76346B8E783425C
:1003140006D916B9002108467CE7C6E900E0F9E7EA
:10032400B3FA83F78FB9834201D3724508D8BEEB81
:10033400020460EB030301209C461EB9002169E717
:100344003846FAE7C6E9004CF8E7C7F1200CBB4091
:100354000EFA07F522FA0CF42EFA0CF1BA401C43FB
:1003640020FA0CF3B8404FEA144901431FFA84FE03
:10037400B3FBF9F809FB18300B0C08FB0EFA43EA3F
:1003840000439A4540D9E31808F1FF3004D29A4556
:1003940002D9A8F102002344A3EB0A0389B2B3FBF8
:1003A400F9F809FB183308FB0EFE41EA03418E45B8
:1003B4002CD9611808F1FF3304D28E4502D9A8F173
:1003C4000203214443EA0040A1EB0E01A0FB029882
:1003D4004145CE46434602D306D14D4504D20138A9
:1003E400B9EB020E68EB0403002EA7D0B5EB0E02A6
:1003F40061EB030101FA0CFC22FA07F3F9404CEA21
:100404000303C6E9003199E74046C5E74346D9E707
:10041400F0B5454B454A87B0C3F800264921C3F8D7
:1004240004264348C3F80826C3F80C26C3F810264C
:10043400C3F81426C3F81826C3F81C2608F004FBD6
:1004440000F08AF807F07DFE00F0ACF890B14FF0B0
:100454005023D3F800340BB1DB070BD5012000F097
:1004640099F84921334808F0EFFA01F0A9FF32481E
:1004740002F04EFB00F0E8FA054603A800F08AFDFE
:100484000446284600F0F0FA2C4B1B68A34205D022
:1004940045212B4808F0D8FA07F09DFF4921059A19
:1004A400284808F0D1FA039927484B7D0A7DC98A68
:1004B4000091492108F0C8FA4921244808F0C4FAF7
:1004C4004FF48031002004F0A3F8044620B1452104
:1004D4001F4808F0B9FAFEE702A99DF8100000F0E1
:1004E40081F8029B059D1D44039B1E8904F078F846
:1004F400AF1901F0BBF801F08BF801F0A5F884F313
:100504000B8884F30A88AB5983F3088884F314882E
:10051400BFF36F8FBFF36F8F7B68984745210D48FA
:1005240008F092FAFEE700BF008001503546526E93
:1005340062B300007BB30000B8AE000008000020E6
:100544009FB30000C2B30000F1B300000FB4000079
:1005540034B4000067B4000008B50B480AF00BF986
:1005640028B9BDE808404521084808F06DBA4FF4A1
:100574000031074807F0B5FDBDE80840002201211D
:10058400014807F09EBD00BF50AB00008AB40000D4
:10059400C8AE000002460121014807F092BD00BF29
:1005A40050AB000037B50D4C20460AF0E4F898B182
:1005B4004FF480310A4807F094FD2569A36820466A
:1005C4005B6801A9984720B92B6801985840C0F38B
:1005D4004020003818BF012003B030BD50AB0000EC
:1005E400C0AE0000024608B538B1054800234521D5
:1005F40008F02AFA6FF0150008BD0860FCE700BF98
:10060400C1B4000021B1012906D06FF01500704774
:10061400044B53F830007047024B03EBC003586897
:10062400704700BFD0AE00002DE9F04F9B468C4BC5
:10063400DBB01546DDE965891E6807460C4600F007
:10064400B1FF0122874B3AA8C3F8002506F072FCDB
:10065400B8F1000F07D0B9F1000F04DD4A46414656
:100664003AA808F0C2F84FF0000823896289D4F848
:100674000CA013449A44C2456AD80DA93AA806F0BE
:10068400CBFC0022774BC3F80025C3F80025679BF9
:1006940023B1202218460DA908F03FFB00232A4667
:1006A400009321464FF6FF7307A807F04BFD8046E1
:1006B40000285ED1294638460C9C00F0AFF98442EC
:1006C40057D84FF0FF34DFF8A8B1DFF898910DF157
:1006D400160305AA06A907A807F082FD002848DB2F
:1006E40040F0B480069907A807F0C6FD50B94FF64C
:1006F400FF71BDF816005C4A32F8023B8B4238D0D9
:100704009842F9D1BDF81670102F3CD0222F7AD020
:10071400012FDCD1BDF81430202B2AD828460699A5
:100724003AAA08F09FF9044618BB9DF81430202B10
:1007340002930AD8DBF80030DFF838A10393039B57
:100744009C423FDB0023C9F800354FF0FF34BEE77D
:10075400649BAAEB0809994528BF99465A464B461B
:100764004146284608F07EF930B100223D4BC3F8DB
:1007740000253B4B1E686CE04A4659463AA808F0EF
:1007840034F8C84477E7BDF81470202FF1D13B4604
:10079400284606993AAA08F065F90028E9D100F03C
:1007A40053F93A4680463AA90DA800F0E7F80746FF
:1007B400404600F059F92D4B1B68BB42D9D14FF08C
:1007C400010884E700F0EEFEC9F800751DA806F0E4
:1007D400B1FBDAF804201DA812685AF8081B08F0C7
:1007E40004F815A91DA806F017FC0022C9F8002575
:1007F400029A3AA915A808F069FA10B9C9F80005CF
:1008040065E701349BE7631C3FF461AFDBF800301C
:10081400A3429ADDBDF81430802BAAD82846069945
:100824003AAA08F01FF90028A3D100F00DF9E4B2A8
:1008340007462021BDF814303AAA00940DA800F010
:100844001BF80646384600F00FF97EE7B8F1000FB2
:100854008FD000F001F930465BB0BDE8F08F00BFE7
:10086400040000200000845034B30000080000207D
:10087400D8AE0000DCAE00002DE9F04796B0164675
:100884001D469DF87820384B074653F8321003EB89
:10089400C2035B6801911868DFF8DC8001443023EF
:1008A40002AA01A8D8F8009007F02DFF002851D122
:1008B400DDE901431C44214606AB03AA01A807F065
:1008C4004AFF002846D1049A072A43D127490598AC
:1008D40008F0FCF900283DD1079A082A3AD12449A6
:1008E400089808F0F3F9A8BB214602AA01A807F06A
:1008F4001EFF78BBDDE901A30AEB0302944229D170
:10090400412B27D135443023294603AA02A8029655
:1009140007F0F9FEE0B9DDE9023213449D4217D332
:100924002A4602A906A807F0B5FC88B92A4602A9F6
:100934000EA807F0AFFC58B99AF80030042B07D181
:100944002023384606AA0AF1010100F043FE38B11B
:10095400D8F8009000F080F8484616B0BDE8F0875B
:10096400044BD3F80090F5E7DCAE0000F0B40000CF
:10097400E7B40000080000200400002070B5094B13
:1009840004461D680023934205D1074B1D6800F0FF
:1009940063F8284670BDE65CC85C8642F7D1013333
:1009A400F1E700BF0400002008000020094A4000CD
:1009B4000B7852F820108B4209D0013052F82000F5
:1009C400834214BF4FF0FF304FF4C06070474FF4C0
:1009D400C0607047E4AE00001FB5582303FB01005C
:1009E400046A1023A1686A462046103908F03AF8D0
:1009F400034640B122784521064808F025F8002432
:100A0400204604B010BD10226846034908F05EF980
:100A1400F6E700BFF8B4000052B3000013B508466F
:100A24000C4607F068FC6A460146204607F070FB56
:100A340030B10448452108F007F8002002B010BD89
:100A44000098FBE724B50000024B1868421C1A60AA
:100A5400704700BFB0040020024A1368013B1360D2
:100A6400704700BFB0040020034B1B68834201D0D1
:100A740007F0B1BC704700BFB00400202DE9FF4768
:100A84002C2707FB01073D6A0446284690460E467C
:100A940008F033F87B1EFA1C13F8011F814227D19A
:100AA4009A42F9D1BEB12946204607F029FD98F8AB
:100AB4000730042B0AD12046216A07F021FD0246A3
:100AC40048B949212C4807F0BFFF04E0002003F097
:100AD40033FE0428EFD0294B1C68FFF7BDFF2046E6
:100AE40004B0BDE8F087264B1C6836E0254A40E098
:100AF4002C237343E1180869C206D3D4E258224B6D
:100B04009A42F0D1CA680B899B18ECD24A89D21850
:100B1400E9D2AB689A42E6D240F60C6A10EA0A0AB5
:100B2400E1D1FFF791FF8046FFF78EFF4FF480730A
:100B340081462A46394600932046144BCDE902AA41
:100B4400CDF804A0FFF770FD04464846FFF78CFF7C
:100B5400FFF782FF4046FFF787FF0D4B1B68A34258
:100B6400BBD0002EC2D0AA680021284607F0A4FFFB
:100B7400084A45210848A6E771B500000000002096
:100B8400040000205FB500003DB8F396EE35002068
:100B94000800002067B50000B0B5000073B50D462D
:100BA400002104462846CDE9001107F068FC28B36B
:100BB40023681A4EB34203D1204601AA07F0C3FBAF
:100BC400E36AB34204D16A460121204607F0BBFB25
:100BD400DDE90032934288BF0193019BAB60019A27
:100BE4002946204600F0DCFB0D4B1A68002A03DD81
:100BF40057210C4807F028FF02B070BD014620467B
:100C0400FFF7EAFE064605F1080107F07FFBAB6833
:100C14003046019307F025FFE1E700BF3DB8F396A6
:100C240014290020D8B500002DE9F84F88469146D4
:100C34009A460026DFF870B0194C1A4D0B9B9E4261
:100C440001D300200FE00B9B40469F1BB7F5806F3C
:100C540028BF4FF48067144A3B4606EB0A0107F0AD
:100C640001FF10B10120BDE8F88F0A993B465A46AE
:100C74004846711807F00BFF0028F3D1C4F800565A
:100C84003E44C4F80456C4F80856C4F80C56C4F8D4
:100C94001056C4F81456C4F81856C4F81C56CDE7B8
:100CA400008001503546526EB40400202DE9F04115
:100CB4000E460021AE4B0446436203F5805388B0D0
:100CC40003650846FFF79EFC04F120010546C0B207
:100CD40001F092F948B100232A464521019000937E
:100CE400A44807F0B1FE07F076FB01210020FFF7CE
:100CF40089FC04F14C010546C0B201F07DF950B104
:100D040001232A464521019000939A48002307F0C5
:100D14009BFE07F060FB204607F086FB054668B99A
:100D240000222046114607F069FB054608B300225D
:100D34005721914807F088FE0123A1E04FF4007287
:100D440057218E4807F080FE01239D4284F85830D5
:100D5400E6D194F85830042B8DF8173000F29380C4
:100D6400012B00F2978000F0AA80FF2384F858300A
:100D7400A5E0204600F01CFA0028DDD004A807F006
:100D840075FB0146204607F007FC18B12A46572197
:100D94007B48CFE704A807F072FB80F0010104AAA6
:100DA4002046C9B207F02AFB02460028BFD104A896
:100DB40007F065FB054660BB204604A9FFF7EEFE7D
:100DC4009DF8173084F85830033B012B06D8284689
:100DD40000F010F910B1FF2384F858309DF8173053
:100DE400023B022B0BD8002000F0EEF838B1FF23B1
:100DF40084F858304521634807F026FEFEE794F84E
:100E04005830FF2BF6D000222046114607F0F6FAA0
:100E140092E79DF81770012F1FD1104603F08CFC48
:100E2400831E022B054615D8FFF70EFE3946804671
:100E340004AA2046FFF722FE07464046FFF714FEA9
:100E4400514B1B689F4205D0504B1D68AF4214BFE5
:100E54000525012584F858507BE7FFF7F5FD0121AE
:100E6400074604AA2046FFF709FE05463846FFF761
:100E7400FBFD454B1B689D4214BF05239DF81730AD
:100E840084F8583065E7052B7FF46FAF002000F03D
:100E9400B1F811E0204604A9FFF780FE94F8583019
:100EA400DA1E012A34D8002000F0A4F800287FF4C8
:100EB4005CAF002000F088F800287FF456AF94F867
:100EC4005830FF2B05D145212E4807F0BDFD07F012
:100ED40082FA002294F858302D4F012B03921AD035
:100EE4001146204607F08AFAA8B13D681022002175
:100EF4000DEB020007F01CFFE06C07F0B2FD206A66
:100F040007F0AFFDFFF7A8FD284608B0BDE8F08163
:100F1400022BD4D1CDE7FFF797FD0022804611467E
:100F24002046FFF7ABFD05464046FFF79DFDDFF881
:100F34005880D8F800309D42D7D13B689D42D4D028
:100F4400124B1B689D42D0D0039B01330393039B38
:100F5400012B01D007F03FFA206A07F0D7F830716F
:100F6400236A5B683460D8F80050B360BEE700BF02
:100F7400B408002007B6000096B6000054B600007E
:100F8400C2B60000ECB600000800002000000020FB
:100F94000400002070B50B4E044660220021304648
:100FA40007F0C6FEFFF750FD214605463046FFF721
:100FB4007DFE04462846FFF757FDFFF74DFD20460A
:100FC40070BD00BFB428002013B5094B01A913F864
:100FD400300001F011F848B9019808F002FF044606
:100FE400019807F03EFD204602B010BD0124FAE747
:100FF400ECAE00001FB50F4B01A913F8300000F050
:10100400FBFFA8B9019802A903F040FB044668B9A4
:101014009DF80B30032B03D1019808F0B0FE044671
:10102400019807F01EFD204604B010BD0124F7E727
:101034000124F8E7ECAE00002DE9F34106460C4626
:1010440017461D460BB9002121E0184607F017FA90
:1010540001460028F7D13046FFF7BEFC18B901203D
:1010640002B0BDE8F08101A907F050F90028F6D1DB
:101074000199304607F0DEFA736A59686B79012BDF
:1010840018D1002CDFD12B68834298BF00212C2378
:1010940003FB04663A462023306A07F0E3FC002889
:1010A400DDD1002DDCD038680D4BC01A18BF4FF0CD
:1010B400FF30D5E7022BC6D12B68012B05D983421B
:1010C400C1D8B4FA84F46409BDE7BCD1002CDED0E5
:1010D400012CB8D12C79023C18BF0124B3E700BF1E
:1010E4003DB8F3962DE9F04F07460C4685B001460E
:1010F40000201646FFF75AFC051E52DB3846E46D05
:1011040007F0F9F85FFA84F94FF0000A4FF0010B89
:101114004FF0FF346B1E09FB0308A5B9BAF1010FA8
:1011240003DD4521214807F08FFC631C07D0B4F58B
:10113400007F2ADA40F2011301343460B380284678
:1011440005B0BDE8F08F6B1E00934146012338467D
:101154000DF10F0207F086FC031E019323DB01222D
:1011640038460DF10F0108F0A5FD019B40B15B4528
:1011740001D00AF1010A9B46009DA8EB0908CCE7BF
:10118400B4F1FF3F08BF2C46F5E70223A4F5007431
:101194007371631004F0010401330134336034715A
:1011A400CDE70725CBE70125C9E700BFF8B6000066
:1011B400F8B5866A456D044607F02BFAAE420AD0AC
:1011C4006B1CB34207D0834205D05721174807F060
:1011D4003BFC0020F8BDB6F5007F19D9572114480F
:1011E400F5E7626A02EBC3025768226D02EBC302A1
:1011F4005268974202D057210E48E8E701339D42D6
:10120400EFD1204607F00CFB28B957210A48DEE746
:1012140000231F46F3E7AE4205D9636A03EBC50317
:101224005B68BB42E7D10120D4E700BF1BB70000D5
:1012340053B7000082B70000AEB7000010B588B005
:10124400044604A9006A03F021FA9DF81020012A3B
:1012540040D0254B2549032A08BF0B469DF813208F
:10126400492102929DF81220214801929DF81120F3
:101274000092204A07F0E8FBE06C06A903F006FAA6
:101284009DF81820012A27D0174B1849032A08BFB4
:101294000B469DF81B20492102929DF81A20144800
:1012A40001929DF819200092134A07F0CDFB9DF896
:1012B4001030012B12D19DF81230032B0ED19DF862
:1012C4001830012B0AD00D48492107F0BDFB02203C
:1012D40008B010BD0A4BC1E7094BDAE709484921B8
:1012E40007F0B2FB0020F3E7E7B70000F0B7000017
:1012F40004B80000F6B7000045B8000055B8000077
:10130400EBB7000074B8000070B54B6814461E4A71
:1013140003F0FF23934206460D4686B02FD10B6897
:10132400012B2CD1204604A903F0B0F99DF810201C
:10133400012A26D0154B1649032A08BF0B469DF8EF
:101344001320492102929DF81220124801929DF81F
:1013540011200092104A07F077FB9DF81030032B00
:101364000DD12146304607F0CBF8204608F007FDA2
:101374002046A96806F0D8FF204603F067F906B0B6
:1013840070BD064BDBE700BF00010004E7B70000B7
:10139400F0B7000004B8000045B80000EBB7000047
:1013A4002DE9F04F1646054689B00C46744849218C
:1013B40007F04AFB3146284607F03CF96B6A82463F
:1013C40020465E6807F05BF8E8B1E86D06F08EFF32
:1013D4000023AF6A013F3344984201D9013FFAE741
:1013E400BA4510D35721674807F02EFB07FB06F3D5
:1013F40057210AFB0662644807F026FB0123E371C8
:1014040009B0BDE8F08F06A9042000F0F5FD07A996
:10141400012000F0F1FD21462846079AFFF774FFEA
:101424006379012B4BD15746DFF860B141E0226864
:10143400C2F1010353449F423AD86B6A012A1968E6
:1014440053F8370003EBC70353F8083CA0EB01093A
:10145400A3EB0103049311D1079B0393E368022BCD
:1014640008D04146284607F04BF822464146284614
:1014740007F073F82846039907F042F832464946C4
:10148400404607F03BF8049B424641462846CDE9D6
:101494000096FFF7C9FB2146284606F0FDFF2368A6
:1014A4000133236020B1DBF800300133CBF8003086
:1014B400013FDDF81880002FB9D1012323600223F6
:1014C40001276371BA45DDF8189006D2484607F043
:1014D400C8FA079807F0C5FA92E723689F424DD3EC
:1014E4006A6AFB0052F83710083B04911168DDF872
:1014F4001CB00391D1582A6DD0581368A0EB03088F
:101504002379012B38D1039B3246C91A48460591E9
:1015140006F0F4FF059943464A4600912846594689
:101524000196FFF781FB2146284606F0B5FF02230A
:10153400237118B1154A13680133136032464146CA
:10154400584606F0DBFFDDE9032349469B1A28468B
:101554005A46CDE90086FFF767FB2146284606F088
:101564009BFF2368013323600123237130B1074AB1
:1015740013680133136001E0022BDFD00137A1E7C8
:101584008BB80000B4B80000E3B8000014290020B0
:101594000A4619B1024B00211B681847704700BF67
:1015A4000C00002070B5094D2B780BB1002070BDE4
:1015B4000126074CC4F8006505F05EFD18B92E70CD
:1015C400C4F80005F2E74FF0FF30F0E7EE360020F4
:1015D400000084502DE9F041ACB01F4606460C468D
:1015E4001546FFF7DFFF0123DFF820802A46C8F8FD
:1015F400003521463346009703A809F03DFA00233D
:10160400C8F800352CB0BDE8F08100BF000084505C
:10161400BFF36F8F72B600234FF0FF30094A03F116
:1016240020010133102B42F82100F8D100234FF0A0
:10163400FF30044A03F160010133102B42F821000A
:10164400F8D1704700E100E0002318460649D1F8BC
:101654009020C2F30722934200DB7047C1F8983010
:10166400C1F8A0000133F6E700ED00E02DE9F843EE
:101674004FF0FF3501274FF00008204BDFF884902E
:101684005F60C3F84853C3F8085303F580535F60A1
:10169400C3F84853C3F8085359F8044B002644F3DD
:1016A4000730C4F8085301F0C1FC80226760C4F815
:1016B4004C61D4F84C31C4F81061D4F81031C4F83A
:1016C40044613146D4F84431A018C4F8006507F0E9
:1016D4002FFB8022314604F5C07007F029FBB8F1D6
:1016E400000F08D0064BC3F808554FF05023C3F839
:1016F4000853BDE8F8834FF00108CDE700400150DE
:1017040000700150F8AE0000014B1B68184700BF81
:101714001000002007B50B46002102460091034843
:1017240000F006F803B05DF804FB00BF0D170000DD
:101734002DE9F04F82464FF000098DB01D46531E2F
:1017440001910393039B58785C1C252819D1002030
:101754004FF0FF381E464446034602360290317865
:101764000396392955D81F2914D8002900F0EF8190
:1017740001992520D04701993078D04709F1020911
:10178400E0E7002800F0E3810199D04709F101095D
:101794000394D7E7A1F12002192AE9D801A757F841
:1017A40022F000BF11180000751700007517000023
:1017B400111800007517000091180000751700003B
:1017C400751700007517000075170000DD1800007C
:1017D4001118000075170000F11800009D18000092
:1017E40075170000AB180000CB180000CB180000E0
:1017F400CB180000CB180000CB180000CB18000059
:10180400CB180000CB180000CB18000008460136A6
:10181400A5E7582900F0EB80A1F16302D7B2172F96
:10182400A6D8172AA4D801A757F822F0991A0000BD
:1018340017190000751700007517000075170000D0
:10184400F71800001719000075170000751700003D
:10185400F7180000751700007517000075170000D1
:10186400CD19000075170000751700006D1A0000EF
:101874007517000017190000751700007517000090
:10188400CD19000075170000F718000025200199F4
:10189400D04709F1010955E7029A4FF0000802F018
:1018A400FE020292B3E7002C0DDAB8F1000F0DDA54
:1018B400029A002A00F043810A2224EAE47402FB1B
:1018C4000414303CA3E7B8F1000FF5DB0A2202FB55
:1018D4000812A2F130089AE7B8F1000F55F8042B6A
:1018E40080F22F81002A80F22E8154420222029239
:1018F4008DE7682903D1682B06D1482387E76C2933
:1019040002D16C2B00F02181002B7FF431AF0B4608
:101914007DE77A2B06D1752955F8046B14D14FF065
:10192400000B0CE06C2BF6D04C2BF4D1073525F0D2
:101934000703752903F10805D3E9006B06D12028B4
:101944003BD1854F013C09E04FEAE67BBBF1000F38
:10195400F5DA7642814F6BEB4B0B013C0DF12D0315
:10196400059300230493304659460A220023FEF7C8
:10197400E7FB059BB446303203F8012D5A46059324
:10198400049BBCF10A0F8B4672F1000203F1FF3194
:1019940006460491E7D2C3F1010B30330DEB030685
:1019A400B8F1000FA6F104066DDA029BD9077DD4C5
:1019B400A8EB0B03A4EB0B0413E02B280ABF684F1E
:1019C400684F04F1FF34C9E770290FD155F8042B8F
:1019D4000023FAB96FF004034FF0050B614F624E18
:1019E400053C029A920770D4A04666E078216C2BDD
:1019F40003D1002355F8042B08E04C2BF9D107350B
:101A040025F007031D465B6855F8082B232825D1CC
:101A1400880621D5554F023C002601F06001A1F152
:101A2400390B0DF12D0E02F00F01092988BF59441D
:101A340030310EF8011D102A4FEA121141EA0371E8
:101A44004FEA131C73F1000306F1FF3008D2C6F10C
:101A5400010B06F13003A1E7454FDCE7414FDBE71B
:101A640006460A466346DEE755F8046B304607F03F
:101A740026F9B8F1000F834602DB4045A8BFC346F0
:101A84004FF00008374FA8EB0B03002B92DDA4EBBB
:101A94000804A6E755F8043B4FF0010B8DF8183005
:101AA400304F4FF0FF33013C06AE9AE7A046EAE719
:101AB400029320200199D047029BB8F10108F7D581
:101AC40024EAE472013C9144A41AB84606E0049363
:101AD40002920199D047029A049B9046424612F81A
:101AE400010B0028F3D11A46013A15D5002BACBFDF
:101AF400C7EB03077F425B46013B15D5BBF1000FE3
:101B0400A8BF5F4426464F44013E14D5002CA8BF0D
:101B14003F1907EB080915E6049302923020019956
:101B2400D047049B029ADFE70293019916F8010B50
:101B3400D047029BE0E701992020D047E4E7012247
:101B4400D5E6904663E6144661E64C235FE64846D4
:101B54000DB0BDE8F08F00BF71B900006FB900008F
:101B640073B90000C0B400007BB9000075B900006F
:101B740078B90000044608B5EFF31183202383F3FA
:101B84001288BFF36F8F02F02BFD204601F070FB2B
:101B9400024806F069FE07F076F8FCE781B9000018
:101BA4002DE9F043079D15B91560002012E00324C8
:101BB400B5FBF4F404EB4407BD4218BF0134B4F19F
:101BC400804F09D2A40001348C4200D838B96FF098
:101BD4000B001460BDE8F0834FF0FF34F7E70446D0
:101BE4000021DFF8B4E0B94203F1030C04F1040668
:101BF4002BD3A942274623D201F1010CAC451F780F
:101C040028BF002324494FEAA70E38BF5B7811F898
:101C14000EE0AC4584F800E001EB131E2EBF3D231B
:101C24009B0003F03C034FEA071738BFCB5C07F077
:101C340030071EF80770A3703D2367703746E370C2
:101C44000023381A10603B70AFE71CF8034C1CF8F3
:101C5400023C4FEAA4091EF8099024011CF8018CE7
:101C640004F0300406F8049C0EEB131919F8044030
:101C74009B0006F8034C03F03C030EEB9814E35C62
:101C840008F03F0806F8023C1EF80830344606F80F
:101C9400013C03316346A6E72ABA00002DE9F0436C
:101CA40000273C463D46DDF81CE0DFF828817545F9
:101CB4001FD3E4BB00201460BDE8F08301367645F1
:101CC40033D013F806C0BCF1200FF7D0AEEB0609F1
:101CD400B9F1010FA6EB05050DD0BCF10D0F0AD12A
:101CE40003EB060999F80190B9F10A0F6ED1751C3E
:101CF400DDE72E46E3E7BCF10A0FF8D02DB9BCF1BD
:101D04003D0F05D10137022F0DD96FF01500D3E730
:101D14001CF0800FF9D118F80C507F2DF5D03F2D11
:101D240001D8002FF1D10134E1E73546C1E74FF086
:101D3400060C04F00706E4080CFB06F60CFB04F49E
:101D44000736E41B04EBD60470B18C420CD8002790
:101D5400014603263C46DFF87CE0DFF87C801D4426
:101D64009D4205D10C1AA5E76FF00B001460A3E7A0
:101D740013F8019BA9F10A0C5FFA8CFCBCF1160F55
:101D840004D848FA0CFC1CF0010FE9D01EF809C075
:101D94000134BCF1400F08BF013E0CF03F0C042C91
:101DA4004CEA8717DCD17EB13C0C012E0C7002D1B9
:101DB40001310024D4E7022E4FEA17244C7016BFD9
:101DC4008F7002310331F4E73446C9E7002DA2D005
:101DD4009BE700BFAAB90000F6FFBFFF2DE9F0475B
:101DE400058B04462807904611D4022905F00705FF
:101DF40040F0CC80204606F04EFD78B10138218BAE
:101E0400042811D8DFE800F0C2106D85950001297F
:101E14000CBF45F0100545F02005258388F3118893
:101E2400BFF36F8FBDE8F08701F0070AAA4500F001
:101E3400A5800027B9463E46A368002B00F0BC806D
:101E440041F00801218388F31188BFF36F8FA168E3
:101E5400002900F0BA800D68002900F0B6803346EE
:101E640052462046D1F80480C047002D76D02B6816
:101E740029461D46F0E701F007035A1F012A1BD823
:101E8400002221F00701062B276889B2C4E9002249
:101E940009D13B4603E0628B013262831B68002B4D
:101EA400F9D141F002012046218306F0F4FC002818
:101EB4007AD041F0200176E0042B0AD121F0070109
:101EC40089B22046218306F0E6FC10B141F02001DE
:101ED4002183218B01F0070AAA454FD00027B94678
:101EE400AAE7236921F0070141F00601062DD3F882
:101EF400009021832DD1B9F1000F3FD041F00801AA
:101F0400218388F31188BFF36F8F20463949C8476E
:101F140029E021F00701236941F0040189B2042D6D
:101F2400D3F804902183E6D000274FF0040A3E46FC
:101F340082E721F00701236941F0050189B2052DEB
:101F4400D3F808902183D6D000274FF0050A3E46E7
:101F540072E700274FF0060A3E466DE72B4687E7F7
:101F6400B9F1000FD1D1EFF31188202383F3128844
:101F7400BFF36F8F238B23F008032383258BEA069B
:101F84002ED525F01003238305F007056669218B00
:101F9400002EBFF670AF00232768C4E9003321F098
:101FA400070141F001012183218B4FF0000901F069
:101FB400070AAA457FF440AF002F9CD041F00801E6
:101FC400218388F31188BFF36F8F002FC8D03D6839
:101FD400394633465246204606F089FC2F46F4E73C
:101FE400AB067FF51BAF25F02003238305F007051F
:101FF40000E700BF1F89000070B5104B0D461C6838
:10200400B4B10F4B196800238B4202DB6FF001005F
:1020140070BD224612F8106B864202D0144601337A
:10202400F2E7E06808F0A7FB28B100202C60EFE796
:102034006FF00C00ECE76FF01200E9E714000020E9
:1020440000AF000010B5436888B0029383680C4663
:10205400CDE9033200230A68C068CDE906230549A7
:1020640001AA059306F03FFF079808B9059B236072
:1020740008B010BD0D8B000008B5054806F0F4FB50
:10208400044806F0F1FBBDE80840034806F0ECBB49
:102094006ABA00009BBA0000CEBA0000014804F0FE
:1020A40061BC00BFB4AF000038B5044618B90F4B8B
:1020B4000F485B6898476168B1F5683F10D0B1F587
:1020C400680F0DD00B4DA9420AD011F46861206845
:1020D40007D00146084808F0A9FB00232360656087
:1020E40038BD142206F024FEF9E700BF6C0100207D
:1020F400FCBA00002C5F5CA9182E002008B500B3C0
:102104004368B3F5683F0CD101220368D3E8EF1F9D
:10211400002903D1C3E8E02F0028F7D10DD1002016
:1021240008BD094A93420AD000684FF0FF324FF0CD
:10213400FF3303F09BFD0028F1D00448F0E7044886
:10214400EEE76FF4E040EBE72C5F5CA9E98FFFFF5B
:10215400EA8FFFFF08B5B8B14368B3F5683F0CD107
:1021640000220368D3E8EF1F012903D1C3E8E02F5D
:102174000028F7D10BD1002008BD074A934208D0AC
:10218400006803F0EBFDF6E76FF4E040F4E7034882
:10219400F2E70348F0E700BF2C5F5CA9E98FFFFF7B
:1021A400EA8FFFFF10B5044618B91D4B1D485B6844
:1021B40098476368B3F5683F2FD0B3F5680F2CD008
:1021C400194A934219D1236803BB4FF0FF324FF0F1
:1021D400FF332146154803F01BFD08B923681BB9DA
:1021E4000F4B13485B68984714220021206806F0BF
:1021F4009FFD4FF46863636008E0B3F5683F0DD852
:102204003A2B03D040F6BA629342DED1206808F03C
:1022140057FB636843F03A03636010BD054AF3E774
:102224006C010020FCBA00002C5F5CA9182E002071
:1022340022BB00003A00003A08B5064940231422A4
:10224400054808F0E5FABDE808400449044804F0EC
:10225400FBBB00BF18290020182E0020BCAF0000D3
:10226400D0AF0000F7B5254E30688368DB6B03B14F
:10227400984730688368DB6A002B31D1204C214DAC
:10228400306883681B69002B2DD001220DF10701F2
:102294009847012827D1236843B92B682BB3696871
:1022A4001A688B422A6000D16A602360164A9DF83E
:1022B400070011887F2904D823684F1C0B4417801A
:1022C40018720A28DCD1002023681188186059602C
:1022D4000E494D6875B9C1E9003310802060CEE71E
:1022E40098470028CAD103B0F0BD4521084806F03C
:1022F400ABFBF8E72B604B60EFE700BF8C320020AC
:10230400342E0020442E0020EC3500203C2E0020EA
:102314004FBB000010B5044B044618688368E1B253
:102324005B689847204610BD8C3200202DE9F041AF
:10233400054690460846EFF31187202383F312885D
:10234400BFF36F8F1B490B684BB11B4C62689A42F9
:1023540005D000221A60626872B9C4E90033174AD2
:10236400136863B987F31188BFF36F8F18460B6046
:10237400C8F80030BDE8F08113606360EFE7566889
:102384001C68B342146008BF546087F31188BFF31C
:102394006F8F5C680B60A042D8BF00F1FF3403F17B
:1023A40008012246284606F0B8FC0023601C2B5581
:1023B4000123DDE7382E0020442E00203C2E00208F
:1023C400002313B51C462049204AC1E90033C2E961
:1023D40000331F4A4868146020BBC1E9002201335E
:1023E400082B02F18802F5D11A4C1B48206008F032
:1023F400C2F928B32068836823B11B6C13B100228F
:102404001649984720688368DB6A0BB1984760B126
:10241400206883681B69002BFAD001220DF10701A3
:102424009847F4E702604A60D9E700220C4B206821
:102434001A8083681B6A03B19847002002B010BD5C
:102444004FF0FF30FAE700BF442E00203C2E00205E
:102454004C2E00208C32002078AB00006922000052
:10246400EC35002041F204432DE9F043DBB0ADF834
:102474000C3040F606130025ADF81030DFF8189143
:10248400414BD9F800101B68404E4D70A3EB060871
:102494000B7828465A1C62F302030B7098FA98F3DF
:1024A4004B808B8808225BBA8B8006F0C7F93146D3
:1024B4004246ADF8140006F0C1F902271FFA88F469
:1024C40040BA04F10A035BBA0222ADF814000DF11C
:1024D400160107A8ADF8163006F01FFC0822D9F83B
:1024E40000100DF11E00ADF8167006F016FCBDF8D4
:1024F400160007AB083080B231464246ADF81600EC
:10250400184406F00AFCBDF816303A461C44A0B242
:102514002C4607ABADF8160005A9184406F0FDFBE0
:10252400BDF81630BD213B449BB2ADF81630009384
:1025340006AA07AB2AA8FFF733FB069B144E154FD8
:10254400ADF81630BDF81630A34202DC5BB0BDE82E
:10255400F083336802215B68A4B904A89847BDF8E6
:10256400165033682D1B7C2DA8BF7C252AAA101970
:1025740029465B6898473368012138465B682C44D8
:102584009847DFE703A8E9E7A8320020EF360020E8
:10259400F4320020BFB40000F032002038B5054604
:1025A4000A4C0A21204608F0CDF8022220460849A8
:1025B40008F0BBF82946204608F0A0F820460A2176
:1025C40008F0C8F8BDE83840FFF74CBFA832002037
:1025D4008DBB000073B583680C469A4206461146CB
:1025E40013D2944213DC6A4605F092FD68B9DDE922
:1025F40000351D442A1B2146304606F05DFA02468A
:1026040040B14521044806F01FFA6FF01504204636
:1026140002B070BD2C46FAE790BB00002DE9F047EC
:102624004FF0FF34D4B00B4605940694079401216F
:1026340000240AAD0246C5E9004430A80091CDE962
:10264400014404210894099407F08CFD402221469A
:1026540020A806F06DFB8B4B03211C930523042259
:102664001D93894B0DF11809CDE91E39874B884814
:102674002193884B05AFCDE92335874B07AE2693CD
:10268400864BCDE92B01CDE92836CDE92D372791AD
:1026940009AB1CA930A8229206F083FA20B30324C4
:1026A4000A217F4808F04EF87E4902227C4808F04F
:1026B4003CF821467A4808F021F84CB974490322C1
:1026C400774808F032F8784B7548196808F020F814
:1026D4000A21734808F03EF8FFF7C4FE089806F094
:1026E400C0F954B0BDE8F0873B68D5E900845A1CB2
:1026F400D5D0B8F1000FD2D06C4A33B9D9F8001054
:10270400B1F1FF3F18BF0B46136000211068FDF7BD
:1027140079FF08A9C0B2FFF76FFC0028BFD13B685E
:10272400614D002B4BD1089F2B603846D7F8089099
:1027340005F0E1FD5E4A0146384605F0E9FC28B1A2
:1027440045215C4806F080F90124A9E733684B452C
:10275400A5D8594A1060594A13602A68564E224433
:1027640031680898013AFFF735FF0028306096DB9E
:10277400089806F0BBF9B4FBF0F303FB1046DFF84E
:102784003C912B68A71B1C44D9F8003008989C4244
:1027940038BF002606F0AAF9012806D9089806F0E1
:1027A400A5F9013818EA000F4AD13B464246296888
:1027B400089806F06CF900287FF471AF2FE02A68BE
:1027C400934201D000246BE73C4A234412689342AD
:1027D400C3D964E7BA45089828BFBA4606F08DF90C
:1027E400402201460CA806F0A3FA524641460CA822
:1027F40006F093FA5346296808980CAA06F047F99C
:10280400044600287FF44CAF2B68D04453442B601B
:10281400A7EB0A07089806F069F9B842DAD996B91D
:102824002B68D9F8002033443B4493422B60C9D130
:102834001F4B08981A681146FFF7CCFEC40F2FE708
:102844004FF0400AE6E7089806F057F908220146D7
:102854000CA806F06DFA324608EB07010CA806F046
:102864005CFADDF82080296840467C1806F03EF9C1
:10287400214603460CAA404606F009F900287FF4D5
:102884000EAFCDE74FB8000057A40000B2BB000064
:10289400BBBB000061A40000B7BB00005DA4000046
:1028A400A83200208DBB0000A0320020A4320020FA
:1028B4009832002024B50000943200209032002089
:1028C400F0B50C68164F85B002380D46C4F580612A
:1028D4000090144B381903AA0131FFF7DFF90446BD
:1028E400D0B92B68039A1344022B2B6011D93E886C
:1028F400023B76BAB6B29E420BD13246B91C05F001
:102904009DFF30B9022E04D92B689A1E2A60FC540C
:102914000124204605B0F0BD4FF0FF34F9E700BFB5
:1029240070370020733B0020002307B50221009379
:10293400034A8023034807F00FFF03B05DF804FB4C
:10294400EF360020A83200202DE9F047072904467D
:102954009EB06ED9037813F0050F6AD14388A1F1B4
:1029640008055BBA9BB2AB4263D35F4B18608388A4
:102974005BBA8380FFF7D8FFA088012840F0A080CD
:10298400E37943B1012B00F0938008201EB0BDE829
:10299400F047FFF703BE247814F00704F5D101468D
:1029A400524807F0CFFE06225149504807F0BDFEB9
:1029B40005214E4807F0C2FE4E4FDFF84C81DFF888
:1029C4004C91214600203E68FDF71CFE05A9C0B2CB
:1029D400FFF712FB054608BB2023014606AA05980B
:1029E40006F040F8069B434511D1FEF72DF840232D
:1029F4008246059A009306A90EAB2846CDE90255F6
:102A04000195FDF711FE06465046FEF72DF8D9F85C
:102A140000300598B34211D006F023F864B10521C3
:102A2400324807F093FE0121304807F093FEFFF788
:102A340019FD1EB0BDE8F0870124C2E706F011F8C5
:102A440014212A4807F07EFE04222B49274807F068
:102A54006CFE2146254807F05BFE072227492348E0
:102A640007F063FEBDF82E30402101939DF82D3010
:102A7400234A00930EA89DF82C3000F0CDFB0C9B4C
:102A84004BB1421E3E2A06D80EADC0F140011D4A8C
:102A9400284400F0C1FB0EA806F011F90EA9024665
:102AA400124807F042FE1421104807F053FEB5E720
:102AB400294604F108001EB0BDE8F047FFF7AEBD9B
:102AC40000287FF462AFE379012B3FF45FAF052B5D
:102AD4007FF45BAFFFF762FD4FF40050002107F075
:102AE40072FF0120FFF746F8F0320020A8320020E0
:102AF400BFBB000004000020C6BB0000CBBB00002D
:102B0400D3BB0000DFBB00003DB8F39608000020F3
:102B140001232DE9F34100240546264FDFF8A88060
:102B24003B70254B254E009418603B7813B902B0D6
:102B3400BDE8F081224BC4F58061C3F80086C3F878
:102B44000486C3F80886C3F80C86C3F81086C3F855
:102B54001486C3F81886C3F81C862B6801AA0131B1
:102B6400301998470028019B01DC002BDDD0044478
:102B74002BB940F201439C42D7D10024D5E73378E6
:102B8400062B09D17378092B0BD1002300936946D6
:102B9400A01EFFF795FE04E0042B02D17378142BDA
:102BA400F5D00128E9D1009906480239FFF7CCFE97
:102BB400E3E700BF6F370020F4320020713B0020B0
:102BC40000800150723700203546526E30BFFFF747
:102BD400FDBF00BF074A936893F90E10002907DB75
:102BE400926993421FBF044A536843F08053536071
:102BF400704700BFDC33002000ED00E0154B9A6AFB
:102C040012F0007F9A6A14BF1E201D2012F0807FEC
:102C14009A6A18BF1F2012F4801F9A6A18BF0220F4
:102C240012F4002F9A6A18BF212012F4802F9A6A96
:102C340018BF222012F4003F9A6A18BF232012F40E
:102C4400803F9A6A18BF24206FEA02426FEA124258
:102C54009A62704700ED00E010B5194B0246986A7D
:102C64009C6A10F4805F14BF1720162014F4006FC0
:102C74009C6A18BF1820A40509D5986B986A0004AB
:102C840004D51AB19A6A22F400429A6219200C4BB4
:102C94009A6A12F4806F9A6A18BF1A20D2050CD46B
:102CA4009B6A13F4005F18BF1C20054A936A43F41F
:102CB4007F43936200230B7010BD1B20F5E700BF18
:102CC40000ED00E010B51C4B0246986A9C6A10F0B7
:102CD400100F14BF1120102014F0080F9C6A18BFA5
:102CE4001220A40709D5586B986A000604D51AB1B6
:102CF4009A6A22F080029A6213200F4B9A6A12F0A9
:102D0400010F9A6A18BF142012F0200F9A6A18BF94
:102D14001520D40658BF9B6A074B9A6A920642BF95
:102D24005A6A22F400525A629A6A42F0FF029A6284
:102D340000230B7010BD00BF00ED00E070B5444BE4
:102D440006465B6800259CB0C3F3080385F311882D
:102D5400BFF36F8F02F07F40B0F17F4F11D102F0CB
:102D64000C0008280DD010074CBF0E460125002288
:102D7400033B8DF80720032B05D8DFE803F01E5C26
:102D840060592E46F3E700249DF807309BB968226A
:102D9400314602A805F0C1FF099B002D53D0C3F3AF
:102DA400080222B96FEA53236FEA432309932046AA
:102DB40002A905F048FF1CB070BD254BDA6A9107E3
:102DC400E1D4DA6A002ADEDBDA6A5200DBD55A691A
:102DD400B16942F480725A61BFF34F8FBFF36F8FB2
:102DE4005A6931F8021C22F480725A61BFF34F8F82
:102DF400BFF36F8F4DF60272914209D09A6AD2B234
:102E040042B101200DF10701FFF75CFF0446BBE767
:102E14003468B9E79A6A12F47F4F05D001200DF1A6
:102E24000701FFF719FFF1E79B6AB3F5803FAAD3C7
:102E3400FFF7E4FEEAE700200DF10701E4E70020D4
:102E44000DF10701EDE723F4FF7323F00103ADE770
:102E540000ED00E0064B5A6942F010025A615A69CB
:102E640042F480625A615A6922F008025A6170473A
:102E740000ED00E0EFF30880EFF3098101B572463D
:102E8400FFF75CFF01BD00BF002080F31488BFF38F
:102E94006F8F002080F30A8880F30B880F4880F33B
:102EA400088801F007FD00200D490860BFF34F8F2B
:102EB40000F01AF8202080F311880A484FF40061CA
:102EC400401880F30988EFF314800221084380F34B
:102ED4001488BFF36F8F00F0E1F800000871002040
:102EE40094ED00E0C83F002072B6002383F31388FA
:102EF4004FF0FF300C4A03F120010133102B42F84C
:102F04002100F8D100234FF0FF30074A03F160019C
:102F14000133102B42F82100F8D162B6BFF34F8F72
:102F2400BFF36F8F704700BF00E100E0084B9B6860
:102F340083420BD1EFF3058343B1064B5A6842F049
:102F440080525A605A6A22F400425A6203F082BAEA
:102F5400DC33002000ED00E022498A6882F8BDE0FD
:102F64004FF030001044EFF3098C80E8F01F1EF09E
:102F7400100F03D102F17C0080EC108A202080F332
:102F84001288BFF36F8F184F4FF000668A698A600A
:102F94003E6092F9BDE0506F0023536780F31188BF
:102FA4001EF0100F03D00023E1EE103A03E002F10B
:102FB4007C0090EC108AEFF3148323F0040383F372
:102FC4001488BFF36F8F02F1300090E8F01F8CF388
:102FD400098802F1000004B505F04AFEBDE804408A
:102FE40070470000DC33002004ED00E01EF0040F05
:102FF4000CBFEFF30880EFF30980816911F8021C1C
:103004000229FFD001B5724605F023FE01BD00BFC1
:1030140040B2002807DB01234109034A00F01F00E6
:10302400834042F82130704700E100E040B20028BC
:103034000CDB01220649430900F01F0082402033C3
:1030440041F82320BFF34F8FBFF36F8F704700BF4A
:1030540000E100E0054B420953F82220012300F06F
:103064001F0003FA00F01040704700BF00E100E0C9
:1030740040B2002801F10101ACBF00F16040064BF1
:103084004FEA4111C9B2ABBF00F5614000F00F0037
:1030940080F800131954704714ED00E0144A08B581
:1030A400144B22F07F029A60BFF34F8FBFF36F8FF0
:1030B400D3F8882022F47002C3F88820D3F888203B
:1030C40042F4A002C3F888204FF04042C3F83422EF
:1030D400BFF34F8FBFF36F8F0023E1EE103A02F07E
:1030E400DBFC03F0C7FA00F079F802F015FD00BF2D
:1030F4000000000000ED00E042F8203C009B0D4978
:1031040042F81C3C019B21F0010142F8183C029B4F
:1031140042F8081C42F8143C4FF0807342F8043C17
:10312400002343674FF47D43203A0265C0F8BC3066
:10313400704700BF87880000104B9B6883421AD1F8
:10314400EFF30580B8B9EFF31181202282F31288DE
:10315400BFF36F8F1A7B22F002021A73EFF314830A
:1031640023F0040383F31488BFF36F8F81F3118872
:10317400BFF36F8F70476FF015007047DC3300208A
:103184000E461546002300B5E1EE103AEFF3148322
:1031940023F0040383F31488BFF36F8FBFF36F8F9F
:1031A400084B9860436E83F30B882C4686F309889A
:1031B4000020054B98472046002100220023034CA1
:1031C400204700BFDC3300207D8C0000878800008E
:1031D4001022014B1A61704700ED00E0002320210A
:1031E4000348C2180133412B82F80013F9D1704708
:1031F40000E100E008B5EFF30583064A103B02EB5B
:10320400C30152F8330049688847BDE80840FFF716
:10321400E1BC00BFC8AB00000CB410B586B009B95E
:103224000DF10B000024CDE9040109AB089A0094C8
:1032340004A905480393FEF77BFA049B1C7006B0AF
:10324400BDE8104002B07047478D00000122024BD8
:103254000020C3F8402570470090035020B1034B71
:10326400800143F001031847704700BFB0AE00006F
:10327400BFF34F8F0549064BCA6802F4E06213435B
:10328400CB60BFF34F8F00BFFDE700BF00ED00E050
:103294000400FA05084B70B5C31A0D4607499B1084
:1032A400044659434022064805F061FD2B46014679
:1032B4002046BDE8704018470C330020B76DDBB6DC
:1032C4003CAB0000402373B50B4C0093041B0B462E
:1032D4000D460A49A41061430646094A094805F007
:1032E40071FD011E05DA30462B4602B0BDE8704080
:1032F400184702B070BD00BF0C330020B76DDBB6B9
:10330400318E00003CAB000010B5EFF31184202394
:1033140083F31288BFF36F8F074A136823F0020107
:10332400DB07116002D4012006F0E5FD84F3118867
:10333400BFF36F8F10BD00BF5C33002070B5002257
:10334400012104460520FFF793FE0F4801F0E2FB3C
:103354000E4B984215D101F0EDFB26690C4930461D
:1033640005F0E9FA00280BDB0125356424690849D6
:1033740004F11C0005F0DFFA002801DB0020E564FD
:1033840070BD6FF00400FBE7953400000000AD0B46
:10339400E0AF00001FB500220123CDE902236B46F4
:1033A400084ACDF800D0CDF804D005F038FD002847
:1033B40005DB4FF480420023684602F053FD05B05C
:1033C4005DF804FB518E00000C22104B014602FBF9
:1033D4000033002030B4D3E90E529863EFF3118028
:1033E400202484F31288BFF36F8F1C6C04F0C00494
:1033F40044F002041C6480F31188BFF36F8F1DB185
:103404002B4630BC0248184730BC70470C330020B0
:103414003CAB000010B4EFF31182202383F3128835
:10342400BFF36F8F1848016841F002040460C807B5
:1034340008D482F31188BFF36F8F01205DF8044B29
:1034440001F08CBB4FF05021D1F80C04D1F80C14CE
:10345400C907EED5EFF3118083F31288BFF36F8FA2
:103464000A490B6C03F0C00343F002030B6480F3BE
:103474001188BFF36F8F82F31188BFF36F8F002021
:103484005DF8044BFFF7A0BF5C3300200C33002031
:1034940010B1012804D07047034B1B6C5B0701D1AA
:1034A400FFF792BF704700BF0C3300202DE9F041B5
:1034B400012207463649D1E8EF3FC1E8E02F002852
:1034C400F9D133B9334934484B60CB608A6005F095
:1034D40045FA7B1E012B2BD8012F07D14FF0502327
:1034E400D3F81C3403F00303022B21D007F0FBF9BB
:1034F4000546F8B9294B1B78E3B14FF0502302225B
:103504000646C3F808234FF05024DFF89480D4F81B
:103514001824D4F81834D20315D503F00303022B6E
:1035240001D0012F0FD16DB386F31188BFF36F8FD4
:10353400BDE8F081EFF31186202383F31288BFF3F3
:103544006F8F0125DFE7C5B1304605F0A9FBD4F83C
:103554001835DBB2012BDAD1D4F80421002AD6D0F5
:103564000022C4F80421D4F804210222C4F8182546
:103574002022C8F88021A360C9E70021212007F098
:1035840022FAE4E74FF050230222C3F80423CFE7E2
:1035940008330020F832002028330020C63F0020E2
:1035A40000E100E0C3780F2B14D9C96B0B480B0E54
:1035B40013708B0200EA911003F47C0309060343A1
:1035C40001F0FE4110680B43054901400B43002004
:1035D400136070476FF08500704700BF00FF030061
:1035E400FF000080024B0B6001231360704700BF93
:1035F400603300200048704704B0000010B5012279
:103604000648114607F063F906F0DCFC044C206020
:1036140006F0D5FC6060002010BD00BF68330020B8
:103624006033002070B50C46154606F0C8FC2946E8
:103634000646204605F08CFC08B3B4FBF6F306FB03
:103644001343E3B9B5FBF6F306FB1353BBB9AE4220
:1036540001D9002070BD4FF0FF324FF0FF3309480D
:1036640002F000FC06F0ABFC0646204601F0A0FE8A
:10367400AD1B3444F9D1034802F0C0FBE9E76FF015
:103684001500E7E768330020F8B50E4619463046C2
:1036940017461C4605F05CFC08B346EA040515F021
:1036A40003051CD1A4B14FF0FF324FF0FF330D4896
:1036B40002F0D8FB24F00304A54206EB050009D16F
:1036C400094AD2F80034DB07FBD5064802F096FB22
:1036D4000020F8BD795901F089FE0435ECE76FF05C
:1036E4001500F6E768330020009003500048704747
:1036F40084B0000038B545682B69B3B1103528464D
:1037040001F032FD044680B90146284601F0FAFC76
:10371400084B98420BD122462846074901F0DAFCAF
:10372400224605210D20FFF7A3FC002038BD6FF0D1
:103734000400FBE70000AD0B41370000430970B5FE
:1037440007D10B4B596821B101250C68094E8540FE
:1037540001B970BD8A682A4002D030464B68984748
:103764001CB1236821461C46F2E72346FAE700BF52
:103774009833002050AB00002DE9F04340F20635A9
:103784004668D00648BF0320337B02EA050558BFCC
:10379400C2F3401087B001F01F07B5F5837F1446CC
:1037A40047EA43178DF8030042D00FD8062D18D0EE
:1037B40007D8B5B1022D3DD06FF0150007B0BDE8B4
:1037C400F083B5F5807FF7D101250AE040F20222AB
:1037D400954231D0B5F5407F30D0B5F5007FEBD1BF
:1037E40002250123220303FA01F129D573689960A4
:1037F400326952BB07F01F037F0973D13B4A84F43B
:10380400803102EB8302D2F80032C1F30041C4F3E9
:10381400404423F4E16344EA410423F007031C43D6
:1038240044EA800444EA0524C2F800420020C5E7C3
:103834000725D6E70425D4E70525D2E70325D0E7F5
:10384400630344BF7368D960D2E710363946304603
:103854000DF1020201F044FC14F4403F80460CD107
:103864003946304606F0A1FB214B9845DED130465F
:103874009DF8021001F082FCD8E74FF0000901AB7B
:103884003946304603AACDE90439CDE90199CDF88A
:103894000C9001F0F9FA164B98428DD114F40033D0
:1038A40015D09DF8033084F48034C4F300448DF8BB
:1038B4000E3039464B46304603AA8DF80C508DF82D
:1038C4000D4001F08FFB0A4B9842CDD074E7CDE94F
:1038D400043339460DF10303304603AA039301F080
:1038E400D3FAF0E7803352F82330FFDE002584500A
:1038F4000000AD0BF0B5406801F01F04057B87B0F4
:1039040044EA45140569002D5FD0B2F5001F00F1AB
:10391400100506D12146284606F049FB002007B0D1
:10392400F0BD0027B2F5800F01AE0197776037D163
:10393400B3F1007F14BF052304238DF80430002362
:10394400CDE904630393836823FA01F111F00101C3
:1039540018D1B2F1A07F15D104F01F03620903F15D
:10396400800338D11D4A52F82330DB070AD40DF105
:10397400030632462146284601F0B2FB184B984212
:1039840019D002962146284603AA01F07DFA154B68
:1039940098421DD101222146284601F0FBFBBDE7D8
:1039A400B3F1C06F05D0B3F1007F14BF012302232C
:1039B400C3E70323C1E73146284601F0E5FB094B81
:1039C4009842DED06FF00B00A9E76FF08500A6E700
:1039D4006FF01500A3E751F82330FFDE0025845073
:1039E4000400AD0B0000AD0B2DE9F04740F2FF16CB
:1039F400594FDFF868C1DFF868E100EB81018142CB
:103A040002D10020BDE8F087046814F4804FC4F3A9
:103A1400C325C4F3080340F08C80240EB34208BFCE
:103A24004FF0FF337D5D192C00F28680DFE804F04F
:103A34000D13191C1F251C8484848436608484849B
:103A440084848484848463787B7EC2F80C355C1C13
:103A54005BD10430D3E7C2F814355C1CF9D00024E0
:103A64005CE0C2F80835F2E7C2F81035F5E75C1CF3
:103A7400C2F80835EDD0002404E05C1CC2F80C3513
:103A8400E7D001245FEA531859D14FF00109DFF858
:103A9400CC8009FA03FAC8F80CA008E0C2F808358B
:103AA400002DDAD15C1CD4D000240625A146D0F820
:103AB40000A00AF40048B8F1000F1CBF4FF0000941
:103AC400012403F01F085B093FD10CEB8808D8F8E8
:103AD4000032CAF3412A03EA0E0343EA8A0343EAA3
:103AE400052343EA090343EA4403C8F80032B0E774
:103AF400C2F80C35D4E7C2F86035B3F1FF3F04686F
:103B0400A7D0C4F30044002CBBD05C091AD1012413
:103B1400DFF8488004FA03F9C8F80890A146C6E71C
:103B2400C2F86435E9E7C2F86835E6E7C2F86C35EF
:103B3400E3E76FF0150065E76FF0850062E70023A7
:103B4400DB60FFDE00239B60FBE7002308F18008B5
:103B540053F82830F5E700BF2DBC00000025845041
:103B6400F0F8FCFF2DE9F04104460D46476806F0E5
:103B7400BAFE4FF0200888B9264B1B7873B164262F
:103B8400606805F06BFEF0B9012006F054F9013EBF
:103B9400F6D10021212006F016FFF0E7EFF311869D
:103BA400314688F31288BFF36F8F606805F056FEC4
:103BB400A8B986F31188BFF36F8FEFE786F31188F6
:103BC400BFF36F8FE5E7EFF31186314688F3128870
:103BD400BFF36F8F606805F041FE0028EED0BB692B
:103BE40000201D706368BA691B68C3F8442501226C
:103BF400C3F84825C3F82001D3F82041C3F858017D
:103C0400D3F858019A6081F31188BFF36F8FBDE830
:103C1400F08100BFC63F0020F7B50546426813692E
:103C24001168C1F82435137D507D927D03431343FD
:103C3400C1F86C356E68D6E9004313F0010348D02F
:103C44002F6907F10C0000F05FFF304B98425AD106
:103C5400387B04F10C0204F5907106F0EEF8387B21
:103C6400012707FA00F000F049FF0823C4F80035E3
:103C7400B369C4F844350023C4F84835A760D4F8C0
:103C84005831002BFBD00021C4F800156B6801AA41
:103C9400DC68204605F02BFD002805DB019B22682B
:103CA40019791868FFF7A0FE08216A681368C3F839
:103CB4000015117A51B9D269C3F834250122C3F829
:103CC4003825C3F81011D3F810111A60002003B07E
:103CD400F0BD0822C4F80025B269C4F84425C4F82C
:103CE40048350123A360D4F82031002BFBD00023F6
:103CF400C4F82031D4F820310123E3604FF48073F9
:103D0400C4F80433BBE76FF00400E0E70000AD0B38
:103D14002DE9FF4105690646D0F80480A86C2B6D97
:103D2400002835D1002B53D0B8F830406A6C9C423F
:103D340028BF1C46EF6CEB6C53B1296D41B107F001
:103D44006041B1F1005F03D0082C28BF08246F6ED6
:103D540000926A6CAC651AB1AA6C002A18BF22469C
:103D6400CDE901271BB12B6D002B18BF2346002280
:103D740069464046039301F0F1FC184B984229D060
:103D84006FF00401304604B0BDE8F04105F0F9BE1F
:103D9400696CEF6C0A46B8F83040ABB1834228BF77
:103DA40003469C4228BF1C460029C4D001F060434E
:103DB400B3F1005FBFD0082C28BF0824286E224628
:103DC40004F0ABFF2A6EB6E7844228BF0446EBE753
:103DD4001946D7E704B0BDE8F08100BF0000AD0B81
:103DE4002DE9F04F8DB001934368884602938B8888
:103DF40005469904914604692DD44FF0FF324FF0E3
:103E0400FF3304F1100002F02DF8C4F80480D5F853
:103E140004B0D5F810A0DBF8083003939AF85D30AD
:103E240023B1DAF80030984500F09D80B8F804E03A
:103E34001EF4006F16D06FF0850623689B8813F478
:103E4400005304D1636004F1100001F0D7FF304641
:103E54000DB0BDE8F08FA369002BCED163689845FF
:103E6400CBD1D4E71EF0090F02D06FF01506E4E7BA
:103E7400CEF34513082BF8D1D8F800C08B4B9C45E2
:103E8400F3D904AE0BF10C070FCF0FC697E80F0060
:103E940086E80F00039B634528BF63469C46844B1A
:103EA4009C4511D2834B9C4546D8834B9C4545D8B1
:103EB400824B9C4544D8824B9C4543D88149824BD4
:103EC400824A8C4588BF13461EF0020F09930EF0F8
:103ED400040339D0002B14BF032302238DF82830A8
:103EE400CEF300138DF82930DBF800301EF0020FFA
:103EF400D3F8082576484FF00103CEF340014FEA8A
:103F0400521625D1002E40F0CB809340C3609AF81E
:103F14005D302BB1584601F0E5FB00238AF85D3093
:103F24002B4658466B4A04A901F0A8FB6A4B9842F9
:103F340014D06FF0040680E7684BC5E7684BC3E70D
:103F4400684BC1E7684BBFE7003B18BF0123C5E7D7
:103F5400002E40F0A78093408360D8E70123CAF87D
:103F640000808AF85D30012384F85C30029B996BF1
:103F74004A1C03D003F13C0000F0E8F8B9F1000F4B
:103F840068D1C4F834900023A36304F1480204F117
:103F9400380104F1340005F01FFD019B6064002B1F
:103FA40060D1E3630023236404F1500204F140016F
:103FB40004F13C0005F010FD002601213246E064C6
:103FC4002663204605F03FFD2846FFF7A1FE324652
:103FD4003346A06B83424DD100231946266CB1426F
:103FE4004FD1934238BF134627464FF4FA524FF04D
:103FF400000802FB03F657F8203B4FF4004C1B6803
:104004004146B6FBF3F640F2E730C8364FF47A7215
:104014000023E6FB0C01FCF793F802460B463846F6
:1040240001F020FF024618B9266B16F1740F2FD148
:104034000298C4F8588001F055FB6FF073012846CC
:1040440084F85D8005F09DFD384601F031FF6FF086
:104054007306F2E6D9F800306363002B93D0D9F8E5
:10406400043091E7019B1B68E363002B9AD0019B0A
:104074005B6898E7616B01EBC301496801330A444B
:10408400A8E7E06B00EBC100406801310344A6E7F8
:10409400002E3FF4D2AE0146286905F0D4FCCCE6EC
:1040A400C960FFDE00239B60FBE700BF47E8010017
:1040B40000127A00FF083D007F841E003F420F007B
:1040C4001FA107008FD0030048E8010090D003002F
:1040D40000258450A99B00000000AD0B00093D00A1
:1040E40080841E0040420F0020A107000123F0B588
:1040F40087B08DF80230022300248DF804306B441D
:1041040003930F4601AB0DF103010493054602919D
:10411400059401F039F80C4B064698420FD1394604
:10412400284603AA00F0B0FEB0420BD028469DF802
:10413400031001F023F86FF0040007B0F0BD6FF036
:104144001200FAE72046F8E70000AD0B2DE9F04134
:104154000D46064605F02DFF002207462946304647
:1041640001F018F86B0905F01F0429D1174B03EB74
:104174008404D4F80022164B134043F00C03C4F813
:10418400003205F074FD80463368DB597BB10027AB
:104194003046294605F00BFFD4F800220C4B384674
:1041A400134043F00403C4F80032BDE8F08105F085
:1041B4005EFDA0EB08000628E6D96FF07307E7E779
:1041C4000023803453F82430FFDE00BF00258450E0
:1041D400F0F8FCFF0123834070B5DC430B4AD2E8BE
:1041E400EF1F01EA0405C2E8E65F002EF7D14FF4A1
:1041F400803282400648C0F80823BFF35F8FBFF3C4
:104204006F8F0B4214BF0120002070BDA833002023
:104214000050015070B40E4922F07F46D1E90034B9
:10422400D01AC31844F10004C1E90034A6F5001300
:10423400B3F5400F09D2074B1B681A0A1B069C19D9
:10424400054B42F10005C3E9004570BC02F0D2BA47
:1042540040020020AC33002048020020D9B10123E1
:104264000D4A8340D2E8EFCF4CEA030CC2E8E1CF19
:104274000029F7D14FF48033084A8340C2F804334D
:10428400074BD3E8AF3FC340DB0742BF4FF40012F4
:10429400044BC3F800217047A8330020005001509C
:1042A400A433002000E100E00D4B1868010A000669
:1042B400BFF35F8F0B4BD3F80435181841F100019D
:1042C400B3F5801F0AD2084BD3E90023904271EB67
:1042D400030303D210F1807041F10001704700BF65
:1042E400AC33002000500150480200202DE9F04F6B
:1042F40085B016461F4604469DF840A0FFF76AFFA6
:104304000190FFF7D1FFB04271EB070352D23B4B50
:10431400301A67EB0101984271F100014DD2384B1C
:1043240003EB0413D3E902239F4208BF964258D0FB
:104334004FF48038334908FA04F8204626F07F4BBE
:10434400C1F8488305F087FC4FF00309584604F18F
:104354005005AD00ADB205F1502504F5A87305F57F
:1043640080350293029A20F07F4341F82230C1F84D
:104374004483D1F80435244AC01A033820F07F401E
:1043840090422ED9286868B1D1F80435A3EB0B000C
:1043940020F07F40B0F5000F039322D9204605F0AA
:1043A4005AFC039BBAF1000F07D109EB030009F192
:1043B4000109D7E7BAF1000F09D06FF015052046BF
:1043C4000199FFF74BFF284605B0BDE8F08F0123A4
:1043D4000E4AA340D2E8EF0F1843C2E8E10F0029C8
:1043E400F8D107490E982301C8500F9B01EB041222
:1043F4000025C2E902675360E1E700BF01008000C5
:104404003002002000500150FDFF7F00A433002043
:104414007FB500254FF0FF304FF0FF31194C1A4B98
:104424000226C4F80833C4F84833184BC4F80855B6
:10443400C3E902014FF480334FF40012C4F804338B
:10444400134B0121C4F804631520C3F880212A46C4
:10445400FEF70EFE1520FEF7DBFD01230D4AA360D7
:10446400236013600C4B0D4A009328460023CDE9CA
:104474000155FFF73BFF3046FFF718F8284604B014
:1044840070BD00BF0050015003000F003002002037
:1044940000E100E0A833002019420000FFFF7F0084
:1044A4002DE9F7432E4BD3F8042390070BD5D3F80B
:1044B400042142B10022C3F804212A4AD3F804316A
:1044C400136801331360264AD2F80433D90326D57E
:1044D400254BD3E8EF1F21F00100C3E8E40F002CC3
:1044E400F7D1CB0702D4D2F84031C3B100251C4C1C
:1044F400C4F84051D4F84031FFF7D6FEEFF31182EF
:10450400202383F31288BFF36F8F184BD3E902671C
:10451400B042B94106D282F31188BFF36F8F03B062
:10452400BDE8F0834FF0FF38D3E900104FF0FF39B6
:104534001D60C3E902894FF48033C4F84833C4F8DA
:104544004051D4F8403182F31188BFF36F8F0029B2
:10455400E5D0009032463B4628468847DFE700BF57
:1045640000500150AC330020A4330020300200205E
:1045740030B5431C124C85B005D08442A8BF044614
:10458400012CB8BF0124FFF78FFE0E4B0C4DD3E96D
:104594000013401AB0F5000F0FD22218AA4228BF08
:1045A4002A46002052180849CDE90100009143F140
:1045B4000003FFF79BFE05B030BD2A46F1E700BFBC
:1045C400FFFF7F00400200201942000008B5FFF7FA
:1045D4006BFE024B1B68C01A08BD00BF40020020DE
:1045E400012310B5074C15206360FEF71FFD4FF43F
:1045F4000012054BC4F80833C4F84833034BC3F81E
:10460400802110BD0050015003000F0000E100E0C4
:1046140040EA0103C3F30E0330B58BB940F215151C
:10462400094CC90BC0F3C730994201D1002030BDF9
:10463400C218D2B202F5C07244F822500133F3E733
:104644006FF01500F3E700BF0030005030B581680B
:1046540085B0103921F00704054604F04EFA102203
:104664000146684604F064FB10226846064904F0DB
:1046740054FB10236A462146284604F008FA003801
:1046840018BF012005B030BD52B3000030B50D464F
:10469400816887B0102302AA1039044604F0E2F9B5
:1046A400002802DA012007B030BD1022204602A9FA
:1046B40005F000FB00283AD110221E4902A804F09C
:1046C40005FB00280CBF012302232B70204605F0B4
:1046D400DDFA012301460DF10702204604F0C2F978
:1046E4000028DFDB9DF80730204603F00F021B098A
:1046F4006A702B7101220DF1070105F0DBFA10B984
:104704006B78042B03D901236B7000232B71A268EF
:104714002046183A22F00702083AA91C05F0DDFAEF
:104724000028BFD12046E91C05F030FBBBE703237A
:10473400CBE700BF52B30000F0B5354F85B046005B
:104744000546694657F8260005F026FB044610B1D5
:10475400FF2005B0F0BD013657F8260002A905F088
:104764001BFB012837D12A4649212A4804F06CF959
:10477400294B8DF80C40029300229DF800609DF8AF
:104784000870264C3146207805F086FA50B3394635
:10479400607805F081FA28B3A378042B03D09DF840
:1047A400031099421ED1E378042B03D09DF80B101B
:1047B400994217D12379042B10D16279022A1DD191
:1047C400174B18482A46492104F03EF96079831EA4
:1047D400022BBED9BCE70028CED0B9E79DF8021061
:1047E4009942EAD00132032A04F10604CAD10E48E0
:1047F4002A46492104F028F90120AAE7032A05D012
:104804000A4B0B49042A08BF0B46DAE7094BD8E7E1
:10481400A0B1000075BC0000030103030ABD000041
:1048240057BC0000C0BC0000E4BC00005CBC00003D
:104834006EBC000052BC000008B5EFF31083012BDE
:104844000C4A07D1126ABFF34F8F511C4A424A41A6
:10485400104608BD05F0CDFA00B172B6126ABFF376
:104864004F8F531C5A425A4105F0C3FA0028EFD027
:1048740062B6EDE70080FF0008B5EFF31083012B6B
:104884000B4A06D1D269BFF34F8F02F001021046E2
:1048940008BD05F0AEFA00B172B6D269BFF34F8F0E
:1048A40002F0010205F0A5FA0028F0D062B6EEE7A6
:1048B4000080FF0010B505F09CFA30B14FF0502392
:1048C4000022C3F81421C3F8182105F0A1FA28B175
:1048D4000122644BC3F8382AC3F878254FF47F02C9
:1048E400D2F83031D2F83421BFF34F8FC3F30B0326
:1048F400092B05D1012A1EBF01225A4BC3F8782582
:1049040005F086FA18B10E22574BC3F8E42E05F0D1
:1049140070FA30B10022534BC3F80C270122C3F8BC
:1049240010270022D30003F57F03D3F80013BFF34D
:104934004F8F013108D0D3F800130132D3F8043378
:10494400B2F5807F0B60EDD1EFF31084FFF794FF95
:1049540000284DD0BFF34F8F444BD3F80024012AD5
:10496400FBD1C3F80425D3F80024012AFBD1012C80
:1049740003D005F03EFA00B172B6FFF77DFF58B1DF
:104984003B4AD36923F00103D361BFF34F8F374A06
:10499400D2F80034012BFBD1FFF74EFF68B1344A43
:1049A400136A23F0FF0343F020031362BFF34F8F16
:1049B4002E4AD2F80034012BFBD1012C03D005F090
:1049C40018FA00B162B60022284BC3F80425D3F8C4
:1049D4000024012AFBD1BFF34F8F2649264BCA6816
:1049E40002F4E0621343CB60BFF34F8F00BFFDE7D7
:1049F400FFF722FF0028ADD11E4AD2F88C3043F4D1
:104A04004063C2F88C304FF47F03D3F83021D3F8DD
:104A14003431BFF34F8FC2F30B02092A16D1013B85
:104A2400022B02D8154AD35C83B111481449036898
:104A34000E4A8B420CBF5A230023C2F8103EC36AAD
:104A44008B420CBF5A230023C2F8003E094AD2F815
:104A5400883043F47003C2F88830BFF34F8FBFF33C
:104A64006F8F10BD0040005000A003500090035011
:104A74000080FF0000ED00E00400FA051CBD00000A
:104A8400FA50FA5030B50468ACB1B4FA84F3012298
:104A9400C3F11F03DBB29A4024EA0202D0E8EF5FBD
:104AA400A54204D1C0E8EC2FBCF1000FF6D1EAD145
:104AB40002480B7030BD0248FCE700BF0000AD0B9C
:104AC4000200AD0B10B50368CB40DB0710D4012303
:104AD4008B40026843EA0201D0E8EF4F944204D1CC
:104AE400C0E8EC1FBCF1000FF6D1F2D1014810BDB3
:104AF4000148FCE70000AD0B0400AD0B014BC3F80B
:104B040004057047007001500146014800F0B6B832
:104B1400E8000020044B1A7922B9012218601A71A6
:104B24000248704702487047B03300200000AD0BC4
:104B34000C00AD0B08B5084B1B6833B10520FEF71C
:104B440089FA10B90520FEF763FA4FF050230122C9
:104B5400C3F8182508BD00BFB033002010B510B14C
:104B6400012847D010BD4FF05023D3F81814D3F8C0
:104B74001824C90322D502F00303022B05D0012B0C
:104B840002D0002005F060F901234FF050220220EA
:104B9400C2F8183508224FF48273002103F1502320
:104BA40019601C68012402F150221460164A12682C
:104BB40022B34FF05023C3F80403D3E7D3F81424EB
:104BC400D207E1D5D3F81C2402F00302013A012AEA
:104BD400D7D80D4A12681AB10222C3F80423C1E7D8
:104BE400D3F80421002AFBD00022C3F80421D3F80F
:104BF4000431B7E700224FF48073CEE71A68002A25
:104C0400FCD019601B68ADE7B0330020F8B54FF055
:104C1400502301250026D3F80443174F04B9F8BDE7
:104C2400B4FA84F0C0F11F00830003F580739BB2D3
:104C340003F1502305FA00F21968D2B224EA0204FF
:104C44000029EBD01E601B684FF05023022AC3F8E2
:104C540008230DD1D3F81814D3F8181401F0030164
:104C6400012905D1C3F81825C3F804239960D5E7B1
:104C74003B68C0B29847D1E7B03300200079024BBB
:104C840003EB0010FFF7FEBEF0000020036803F002
:104C94001F025B090260024818BF0020704700BF72
:104CA4000025845070B50D4C00F1080334F813301E
:104CB4000546DA050E4607D5C3F3432304EBC302C6
:104CC400526854F833309847A3682BB131462846CC
:104CD400E268BDE87040184770BD00BF00010020C5
:104CE400024611F0010004D003490B6A13600B6201
:104CF40003B90020704700BF0025845010B4134A44
:104D0400C0B2083032F81030D9051CD5C3F34321A2
:104D140023F4F85322F81030002002F10E0434F882
:104D2400023F13F4807F03D0C3F3432399420AD094
:104D340001302028F3D1002342F8313004485DF8D3
:104D4400044BFFF7BFBE5DF8044B70470001002021
:104D540058010020F0B50546002001260446074608
:104D64008C420BD1114BD3F87C2132B10022C3F811
:104D74007C21D3F87C3140F00040F0BDE3B29B00CD
:104D840003F580729B0806FA03F31D420BD002F16F
:104D9400A04202F55042D2F800C0BCF1000F02D08C
:104DA4001760126818430134DAE700BF00D00050DE
:104DB400064BC0B2083033F81000830643BF400BE3
:104DC400800000F580704FF4BE7070470001002031
:104DD400CBB2024608460D49083331F81330990620
:104DE40011D599070FD4012110685B0B9940C0F8C5
:104DF4000813126802EB8303D3F8102522F0030290
:104E0400C3F810257047002105F0C0B80001002048
:104E1400F7B5194ECDB2083536F815300746DB071D
:104E24000C4626D5FFF7D4FF36F815309A0608D578
:104E34005A0B3B6803EB82030022C3F81025C3F826
:104E440010252046FFF75AFF002301A826F8153045
:104E54000194FFF71BFF019B00EB8300D0F80022B5
:104E6400064B134043F00203C0F80032044803B079
:104E7400F0BD0448FBE700BF00010020F0F8FCFF90
:104E84000000AD0B0400AD0B2DE9FF41136807468C
:104E94000C461646FBB1DFF84481CDB2083538F82C
:104EA400152002F02202222A22D000222046CDE937
:104EB40000228DF80E208DF80F200DF10E010DF15A
:104EC4000F0205F01AF838F8153023F0020343F006
:104ED400010328F8153073684BB31A785868DFF863
:104EE400FCC0E3B208333CF813108D0702D5B0B10F
:104EF40038481FE021F02001C904C90C2CF8131014
:104F040068B1032AF4D870683D68406890F800E0FE
:104F140005EB8E058AB9C5F81025C5F810253CF8AF
:104F2400131021F01C0141EA82022CF81320B3680B
:104F34002BBB294804B0BDE8F081D5F8108541EABF
:104F44004E3128F00308C5F810853D6841F0200172
:104F540005EB8E05D5F810052CF8131020F4473016
:104F640020F44070C5F810052002D5F8107500F43F
:104F7400F85040EA02403843C5F81005CFE7204610
:104F8400D3E90067FFF7BAFE002ED2D0134DD5E95E
:104F94000023964203D19F4201D1002209E0104828
:104FA4000DF10F01FFF76EFD0B4B9842C2D19DF836
:104FB4000F20E4B205EBC20308345F6035F8143007
:104FC40045F8326043EA422343F4807325F81430F1
:104FD400AFE700BF0400AD0B0000AD0B00010020E3
:104FE400580100202DE9FF4107460C461E4612B326
:104FF400DFF8D480CDB2083538F81530980701D4DD
:10500400990621D413F01C0F02D05378012B1BD026
:1050140001238DF80F3000232046CDE900230DF144
:105024000F01931C013204F068FF38F8153043F087
:10503400030328F81530002E44D0234DE1B2083183
:1050440035F81120930703D4204804B0BDE8F0815B
:10505400002096F800E03B6822F02002D20403EB23
:105064008E03D20CC3F8100525F81120C3F81005DF
:1050740096F801C04FEA8E08BCF1000F22D03868C0
:10508400B6784044D0F810354FEA0C4C23F498130A
:1050940023F4F853C0F81035230203F4F8530CF446
:1050A400403C3605D0F8107543EA0C0306F480162C
:1050B400334342EA4E323B4342F02002C0F81035FB
:1050C40025F811200248C0E7000100200400AD0BC0
:1050D4000000AD0B014BC3E9021270470001002030
:1050E400054BC9B2083133F81130990643BF5B0B45
:1050F4000248137002487047000100200000AD0B05
:105104000400AD0B70B5154D064695F860401CBB08
:105114002146402205F1100003F00AFE21463068C2
:105124002E6D8E420ED10023C0F87C31D0F87C3134
:1051340040F30730FDF76CFF0123094885F8603020
:10514400AB6570BDCBB29B0003F580727C2B04BFB2
:10515400845083580131E4E70248F2E7000100205B
:105164000000AD0B0C00AD0B034B93F8600000384E
:1051740018BF0120704700BF000100200148FFF75D
:10518400A1BC00BF540100200148FFF77BBC00BF55
:105194005401002073B503680C46D3F804130029A6
:1051A400A4BF4FF00041C3F804131E49E3B208330F
:1051B40031F8133099061AD513F0020617D15B0B98
:1051C40005689C0004F580716E506958016821449B
:1051D400D1F8104544F00104C1F810452AB1012268
:1051E400016802FA03F3C1F8043302B070BDC3F3DB
:1051F4008203042B11D0052B11D001A80194FFF7D1
:1052040045FD019A0369D34003F00103991C20462C
:1052140002B0BDE8704004F0B9BE0321F7E70221F3
:10522400F5E700BF000100202DE9F347534B544F2D
:10523400D3F80403396DC0B240F00040FFF78AFD93
:10524400051E18DA00236846F96D00934FF0010833
:10525400FFF746FD97F85C30DA0757D4396D4FF005
:105264000040FFF777FD6846F96DFFF739FD002828
:10527400F0D125F000450124002D66D102B0BDE82F
:10528400F08794FAA4F4B4FA84F4E00804F108036F
:1052940037F8139004F007021DF8003008FA02F200
:1052A40023EA02030DF8003001A80194FFF7EEFC95
:1052B400019B4FEA9901803350F82360C9F3820AB5
:1052C4004B07D146C6F3014624D520465146FFF785
:1052D400E9FC01A80194FFF7D9FC019BF6B28033E5
:1052E40050F82330C3F301439E4207D100212046E6
:1052F40004F04CFE3146204604F048FE01A8019417
:10530400FFF7C4FC019B08FA03F30362009C002C22
:10531400B7D1A3E7022E0CD10321204604F036FEB8
:105324000AF00503012BE9D149462046FFF7BAFCF0
:10533400E4E70221204604F029FEBAF1030FF3D07A
:10534400032EDBD1BAF1020FEDE795FAA5F3B3FA18
:1053540083F304FA03F29B0003F1A04303F55043E3
:10536400D3F81005D3F81015C0F30420C1F301419C
:1053740025EA0205FFF796FC7EE700BF00D0005047
:10538400000100200022034BC3F88425C3F8042540
:10539400704700BF00900350044AD2F80834DB077A
:1053A400FBD50160BFF35F8F704700BF00900350CF
:1053B40008B5C0F30B0383B90222094BC3F8842553
:1053C400C3F804254FF0FF320260D3F80024D2075B
:1053D400FBD5FFF7D7FF034808BD0348FCE700BF30
:1053E400009003500000AD0B0A00AD0B012208B57C
:1053F400054BC3F88425C3F80425FFF7CDFFBDE8AA
:105404000840FFF7BFBF00BF00900350430904D119
:105414000123034A83409360704700239B60FFDEAF
:10542400002584500C4B984213D00AD80B4B984259
:105434000FD00B4B98420CD00A4BC31A5842584118
:105444007047094B984204D0084B984201D0084B4E
:10545400F3E70120704700BF40420F0090D00300E3
:1054640020A1070048E8010000093D0000127A006D
:1054740080841E00431C14D000F01F0340090BD18C
:10548400084A02EB8302D2F80012074B0B4043F0A8
:105494000203C2F8003270470022803352F82330EE
:1054A400FFDE704700258450F0F8FCFF430904D167
:1054B4000123034A8340D36070470023DB60FFDE8F
:1054C4000025845038B51446421C054616D00129DF
:1054D40002D1A3B1FFF79AFF05F01F036D0911D1A3
:1054E4000B4A41EA840402EB8303D3F80002094A1D
:1054F4000240144344EA4101C3F8001238BDFFF7E7
:10550400D5FFE9E70022803352F82330FFDE00BFE5
:1055140000258450F0F8FCFF2DE9F843504B4D6909
:1055240006469D420C4690F8049000F0848077D89B
:105534004C4B9D4200F082804B4B9D4200F0818099
:105544004A4B9D420CBF4FF000754FF0804524221A
:10555400DFF82481E07E02FB0983997F60F3000178
:1055640099773379217C02FB03839A7F61F34102AB
:105574009A77E77EEFB9237E3A46012B94BF002346
:10558400012301212068FFF79DFF3B463A46012194
:105594006068FFF797FF3B463946A27EA068FFF795
:1055A40091FF237C3A460121E06883F00103FFF771
:1055B40089FF242303FB0983E2681A62217C9A7F12
:1055C40061F341029A77277FA07C217E637E326853
:1055D40047B9D4E900C7A468C2F808C5C2F80C7575
:1055E400C2F81045003B18BF01230229C2F8C005C8
:1055F400C2F824552BD003292CD0012901D143F022
:105604000203C2F8543524223379534358F8033043
:105614001BB33068BDE8F84340F30730FDF7F8BC2E
:10562400134B9D4210D0134B9D420CBF4FF00045CD
:105634004FF080458BE74FF0805588E74FF0806549
:1056440085E74FF0006582E74FF000557FE743F0B0
:105654000403D6E743F00603D3E7BDE8F88300BFAD
:1056640040420F0090D0030020A1070048E8010049
:1056740080841E0000127A00B83300202DE9F8431C
:105684000746242597F80480124C05FB08F504EB23
:1056940005091E4699F81C30C3B999B14869FFF74A
:1056A400C1FEA8B138466251C9F80460FFF734FF5F
:1056B400242303FB0844002363770123064823774C
:1056C400BDE8F8836251C9F80460F1E70348F7E7DD
:1056D4000348F5E7B83300200000AD0B0C00AD0B18
:1056E4000400AD0B2DE9F041044606790068194D1C
:1056F40040F30730FDF79AFC24237343EB5853B16E
:105704002368154A06EBC601C3F80823206805EB95
:10571400810104F0ADFC2368242404FB0654D3F86F
:105724000805D3F80C75D3F81085A37FDB070AD4DA
:10573400FFF7A0FE4046FFF79DFE3846FFF79AFEAE
:10574400206AFFF797FE242303FB065500232B77DB
:10575400BDE8F081B83300205201080024232DE96C
:10576400F0430779534D7B439046EA180E46517F28
:10577400814685B0002940F09B80EB5823B118F096
:10578400140F04BF01235377242496E80F0004FB6D
:10579400075404F10C0C8CE80F00206A421C04D05E
:1057A400A37F9B071AD5FFF731FE3368D9F8004071
:1057B40023B103F06043B3F1005F06D1B36883B152
:1057C40003F06043B3F1005F0BD02423002203FBFA
:1057D400075339485A7705B0BDE8F083FFF766FEF2
:1057E400E3E718F0010318BF0123C4F8503518F09B
:1057F400020318BF0123EC46C4F8403596E80F00B5
:105804008CE80F00039BC4F84405C4F84815C4F899
:105814003425C4F838350023C4F81831D4F81831C5
:105824000723C4F8003524237B4318F0080F05EB45
:1058340003021DD10121E858216158B9D4F8183167
:10584400002BFBD062464021204604F0D3FB2423E6
:105854007B43EA18EB5813BB106A461C13D107EBC1
:10586400C707204605EB870104F002FC1348B2E7A2
:10587400EB58A3B9106A411CF8D0937F9A070BD553
:10588400FFF714FEF2E7937F9B0702D5FFF70EFEA6
:10589400E5E7FFF7BBFDE2E7FFF7B8FDE6E74023E6
:1058A40018F0040F14BFC4F80833C4F80433DDE758
:1058B400034890E7B83300200A00AD0B0000AD0B9D
:1058C4000B00AD0B10B540210F4A104804F092FBB9
:1058D400C8B10F4C206A421C04D0A37F9B070FD58C
:1058E400FFF7E4FD637F1BB10949084804F0C0FBDE
:1058F400002323720748D4E90031BDE8104018475B
:10590400FFF784FDEEE710BDC433002000B0005063
:10591400B8330020C033002070B516461D465A1C0B
:10592400036804461344C2689A4205D20821006AF7
:1059340004F05DFE002070BD32783DB1AB1E062B35
:105944008EBF00230B4AD35C1833DAB2204604F02E
:1059540051FE0028EED03544B54203D1A36801338B
:10596400A360E8E723685A1C226015F8012D1A7019
:10597400F2E700BF1FBD000038B5EFF31185202307
:1059840083F31288BFF36F8F064B9C6804F006FF05
:1059940085F31188BFF36F8F2046BDE83840FDF7CB
:1059A400C5BA00BFDC33002038B5094B53F820409A
:1059B400013053F82050A54200D838BD636823B1A4
:1059C400204604F0EEFE0834F5E723689847FAE72A
:1059D400A8B10000012270B52A4B032086B01A70CA
:1059E400FFF7E2FFFCF748FB04F0F7FE0420FFF7A3
:1059F400DBFF254C254D2646AE4204F1300410D37E
:105A040000F028FC204C224EAC4226D300F036FC99
:105A1400FAF7FEFC1F4A137B23F00103137306B04D
:105A240070BD54F80C3C059354F8103C049354F89E
:105A3400143C039354F8183C029354F81C3C01930F
:105A440054F8203C009354E90A2354E90C0100F073
:105A54005FFA54F8303C5E65CDE7D4E90A23B3F12C
:105A6400FF3F08BFB2F1FF3F05D052EA03012068AF
:105A740003D100F0C3FC3034C6E73146183000F0DF
:105A840043FEF8E7C63F0020D0AD0000D0AD0000D3
:105A9400C3A900001003002008B50348034A0021ED
:105AA400121A04F096FE08BD30020020C83F002000
:105AB400C02370B5134E012203FB0066002386B099
:105AC400CDE904230F220193CDE9023218234FF4C8
:105AD400A0720D4D0D4903FB0055044602FB001155
