:10800000F8F6002099D10000536C010085D10000E2
:1080100085D1000085D1000085D1000085D1000008
:1080200000000000000000000000000015D3000068
:1080300085D1000000000000A1D2000085D1000021
:10804000A5D40000A5D40000A5D40000A5D400004C
:10805000A5D40000A5D40000A5D40000A5D400003C
:10806000A5D40000A5D40000A5D40000A5D400002C
:10807000A5D40000A5D40000A5D40000A5D400001C
:10808000A5D40000A5D40000A5D40000A5D400000C
:10809000A5D40000A5D40000A5D40000A5D40000FC
:1080A000A5D40000A5D40000A5D40000A5D40000EC
:1080B000A5D40000A5D40000A5D40000A5D40000DC
:1080C000A5D40000A5D40000A5D40000A5D40000CC
:1080D000A5D40000A5D40000A5D40000A5D40000BC
:1080E000A5D40000A5D40000A5D40000A5D40000AC
:1080F000A5D40000A5D40000A5D40000A5D400009C
:10810000A5D40000A5D40000A5D40000A5D400008B
:10811000A5D40000A5D40000A5D40000A5D400007B
:10812000A5D40000A5D40000A5D40000A5D400006B
:10813000A5D40000A5D40000A5D40000A5D400005B
:04814000A5D40000C2
:108148004FF0FF0C1CEAD0521EBF1CEAD15392EA32
:108158000C0F93EA0C0F6FD01A4480EA010C40020E
:1081680018BF5FEA41211ED04FF0006343EA501068
:1081780043EA5111A0FB01310CF00040B1F5000FAA
:108188003EBF490041EAD3715B0040EA010062F159
:108198007F02FD2A1DD8B3F1004F40EBC25008BF43
:1081A80020F00100704790F0000F0CF0004C08BF61
:1081B80049024CEA502040EA51207F3AC2BFD2F12E
:1081C800FF0340EAC250704740F400004FF000033C
:1081D800013A5DDC12F1190FDCBF00F00040704776
:1081E800C2F10002410021FA02F1C2F1200200FAB4
:1081F80002FC5FEA310040F1000053EA4C0308BF7B
:1082080020EADC70704792F0000F00F0004C02BFCB
:10821800400010F4000F013AF9D040EA0C0093F046
:10822800000F01F0004C02BF490011F4000F013BA0
:10823800F9D041EA0C018FE70CEAD15392EA0C0F0E
:1082480018BF93EA0C0F0AD030F0004C18BF31F079
:10825800004CD8D180EA010000F00040704790F04F
:10826800000F17BF90F0004F084691F0000F91F0F3
:10827800004F14D092EA0C0F01D142020FD193EAB9
:108288000C0F03D14B0218BF084608D180EA010041
:1082980000F0004040F0FE4040F40000704740F01D
:1082A800FE4040F44000704781F0004102E000BF0A
:1082B80083F0004330B54FEA41044FEA430594EA9E
:1082C800050F08BF90EA020F1FBF54EA000C55EAD9
:1082D800020C7FEA645C7FEA655C00F0E2804FEAAA
:1082E8005454D4EB5555B8BF6D420CDD2C4480EA8C
:1082F800020281EA030382EA000083EA010180EABC
:10830800020281EA0303362D88BF30BD11F0004F09
:108318004FEA01314FF4801C4CEA113102D040423F
:1083280061EB410113F0004F4FEA03334CEA13337A
:1083380002D0524263EB430394EA050F00F0A78092
:10834800A4F10104D5F1200E0DDB02FA0EFC22FA8D
:1083580005F2801841F1000103FA0EF2801843FA81
:1083680005F359410EE0A5F120050EF1200E012A72
:1083780003FA0EFC28BF4CF0020C43FA05F3C018B0
:1083880051EBE37101F0004507D54FF0000EDCF129
:10839800000C7EEB00006EEB0101B1F5801F1BD3D2
:1083A800B1F5001F0CD349085FEA30004FEA3C0CD6
:1083B80004F101044FEA445212F5800F80F09A80CC
:1083C800BCF1004F08BF5FEA500C50F1000041EBD0
:1083D800045141EA050130BD5FEA4C0C404141EBD4
:1083E8000101013C28BFB1F5801FE9D291F0000FCF
:1083F80004BF01460020B1FA81F308BF2033A3F17E
:108408000B03B3F120020CDA0C3208DD02F1140C74
:10841800C2F10C0201FA0CF021FA02F10CE002F1AF
:108428001402D8BFC2F1200C01FA02F120FA0CFCA8
:10843800DCBF41EA0C019040E41AA2BF01EB0451F1
:10844800294330BD6FEA04041F3C1CDA0C340EDCEF
:1084580004F11404C4F1200220FA04F001FA02F332
:1084680040EA030021FA04F345EA030130BDC4F1F0
:108478000C04C4F1200220FA02F001FA04F340EAE5
:108488000300294630BD21FA04F0294630BD94F096
:10849800000F83F4801306BF81F480110134013D7D
:1084A8004EE77FEA645C18BF7FEA655C29D094EAEE
:1084B800050F08BF90EA020F05D054EA000C04BF6C
:1084C8001946104630BD91EA030F1EBF0021002057
:1084D80030BD5FEA545C05D14000494128BF41F0F6
:1084E800004130BD14F580043CBF01F5801130BD5A
:1084F80001F0004545F0FE4141F470014FF00000E5
:1085080030BD7FEA645C1ABF194610467FEA655C95
:108518001CBF0B46024650EA013406BF52EA033537
:1085280091EA030F41F4002130BD00BF90F0000F25
:1085380004BF0021704730B54FF4806404F1320461
:108548004FF000054FF0000150E700BF90F0000F1A
:1085580004BF0021704730B54FF4806404F1320441
:1085680010F0004548BF40424FF000013EE700BF11
:1085780042004FEAE2014FEA31014FEA02701FBFA1
:1085880012F07F4393F07F4F81F06051704732F0D3
:108598007F4208BF704793F07F4F04BF41F400212A
:1085A800704730B54FF4607401F0004521F0004188
:1085B8001CE700BF50EA010208BF704730B54FF012
:1085C80000050AE050EA010208BF704730B511F013
:1085D800004502D5404261EB41014FF4806404F14B
:1085E80032045FEA915C3FF4D8AE4FF003025FEAD1
:1085F800DC0C18BF03325FEADC0C18BF033202EB55
:10860800DC02C2F1200300FA03FC20FA02F001FAAE
:1086180003FE40EA0E0021FA02F11444BDE600BF51
:1086280080F0004002E000BF81F0004142001FBF1F
:108638005FEA410392EA030F7FEA226C7FEA236C28
:108648006AD04FEA1262D2EB1363C1BFD21841401D
:1086580048404140B8BF5B42192B88BF704710F0B3
:10866800004F40F4000020F07F4018BF404211F056
:10867800004F41F4000121F07F4118BF494292EABE
:10868800030F3FD0A2F1010241FA03FC10EB0C00EA
:10869800C3F1200301FA03F100F0004302D5494277
:1086A80060EB4000B0F5000F13D3B0F1807F06D324
:1086B80040084FEA310102F10102FE2A51D2B1F11C
:1086C800004F40EBC25008BF20F0010040EA030011
:1086D8007047490040EB0000013A28BFB0F5000F91
:1086E800EDD2B0FA80FCACF1080CB2EB0C0200FA47
:1086F8000CF0AABF00EBC25052421843BCBFD04096
:108708001843704792F0000F81F4000106BF80F40F
:1087180000000132013BB5E74FEA41037FEA226CD2
:1087280018BF7FEA236C21D092EA030F04D092F09D
:10873800000F08BF0846704790EA010F1CBF0020D1
:10874800704712F07F4F04D1400028BF40F000402E
:10875800704712F100723CBF00F50000704700F04E
:10876800004343F0FE4040F4000070477FEA226275
:1087780016BF08467FEA23630146420206BF5FEA46
:10878800412390EA010F40F4800070474FF0000346
:1087980004E000BF10F0004348BF40425FEA000C0D
:1087A80008BF704743F0964301464FF000001CE0B5
:1087B80050EA010208BF70474FF000030AE000BF0B
:1087C80050EA010208BF704711F0004302D5404249
:1087D80061EB41015FEA010C02BF844601460020BB
:1087E80043F0B64308BFA3F18053A3F50003BCFAD6
:1087F8008CF2083AA3EBC25310DB01FA02FC634483
:1088080000FA02FCC2F12002BCF1004F20FA02F289
:1088180043EB020008BF20F00100704702F120027C
:1088280001FA02FCC2F1200250EA4C0021FA02F2DD
:1088380043EB020008BF20EADC7070474FF0FF3CB2
:1088480006E000BF4FF0010C02E000BF4FF0010C42
:108858004DF804CD4FEA40024FEA41037FEA226C0B
:1088680018BF7FEA236C11D001B052EA530C18BF2D
:1088780090EA010F58BFB2EB030088BFC81738BF92
:108888006FEAE17018BF40F0010070477FEA226C80
:1088980002D15FEA402C05D17FEA236CE4D15FEA7C
:1088A800412CE1D05DF8040B704700BF84460846B0
:1088B8006146FFE70FB5FFF7C9FF002848BF10F171
:1088C800000F0FBD4DF808EDFFF7F4FF0CBF0120B6
:1088D80000205DF808FB00BF4DF808EDFFF7EAFF40
:1088E80034BF012000205DF808FB00BF4DF808EDFB
:1088F800FFF7E0FF94BF012000205DF808FB00BFF0
:108908004DF808EDFFF7D2FF94BF012000205DF875
:1089180008FB00BF4DF808EDFFF7C8FF34BF012082
:1089280000205DF808FB00BF7BB972B90029BEBF03
:1089380000204FF0004106E008BF00281CBF6FF080
:1089480000414FF0FF3000F057B8ADF1080C6DE969
:1089580004CE002909DB002B1ADB00F069F8DDF8EA
:1089680004E0DDE9022304B07047404261EB4101B5
:10897800002B1BDB00F05CF8DDF804E0DDE90223E6
:1089880004B0404261EB4101524263EB430370473C
:10899800524263EB430300F04BF8DDF804E0DDE9F5
:1089A800022304B0404261EB41017047524263EB3D
:1089B800430300F03DF8DDF804E0DDE9022304B0EC
:1089C800524263EB4303704753B94AB9002908BFC1
:1089D80000281CBF4FF0FF314FF0FF3000F00CB8FB
:1089E800ADF1080C6DE904CE00F022F8DDF804E0E2
:1089F800DDE9022304B07047704700BF10F8012B6F
:108A080011F8013B012A28BF9A42F7D0D01A7047C3
:108A1800034611F8012B03F8012B002AF9D17047FE
:108A2800034613F8012B002AFBD1181A01387047A6
:108A38002DE9F04786468C460846089E154674463A
:108A48001946002B40F0C1808542B2FA82F245D91E
:108A58004AB1C2F1200300FA02FC954094402EFA74
:108A680003F343EA0C0C4FEA154EA8B2230CBCFBE7
:108A7800FEF80EFB18CC08FB00F943EA0C439945B5
:108A880028D9EB1808F1FF3704D2994502D9A8F183
:108A980002072B44A3EB0903A4B2B3FBFEFC0EFBB5
:108AA8001C330CFB00F044EA0344A04214D92C19EF
:108AB8000CF1FF3304D2A04202D9ACF102032C44DA
:108AC800241A43EA07401EB1D4400023346073607F
:108AD800BDE8F0874746DDE76346F1E792BB431BF5
:108AE80001214FEA154EAFB2200CB3FBFEFC0EFB82
:108AF8001C330CFB07F840EA0343984561D9EB188F
:108B08000CF1FF3004D2984502D9ACF102002B4495
:108B1800A3EB0803A4B2B3FBFEFC0EFB1C330CFB57
:108B280007F744EA0344A7424DD92C190CF1FF3347
:108B380004D2A74202D9ACF102032C44E41B43EA55
:108B48000040C0E7C2F120039540944020FA03F1A9
:108B58002EFA03F34FEA154E9040AFB20343B1FB30
:108B6800FEFC0EFB1C10190C0CFB07F841EA004137
:108B7800884522D969180CF1FF3004D2884502D9FA
:108B8800ACF102002944A1EB08019BB2B1FBFEFC49
:108B98000EFB1C110CFB07F743EA01439F420ED959
:108BA800EB180CF1FF3104D29F4202D9ACF102015B
:108BB8002B44DB1B41EA004193E76046E3E761464B
:108BC800F7E76046A4E76346B8E7834206D916B9D3
:108BD800002108467CE7C6E900E0F9E7B3FA83F725
:108BE8008FB9834201D3724508D8BEEB020460EB0B
:108BF800030301209C461EB9002169E73846FAE7BD
:108C0800C6E9004CF8E7C7F1200CBB400EFA07F59F
:108C180022FA0CF42EFA0CF1BA401C4320FA0CF399
:108C2800B8404FEA144901431FFA84FEB3FBF9F830
:108C380009FB18300B0C08FB0EFA43EA00439A456F
:108C480040D9E31808F1FF3004D29A4502D9A8F1B7
:108C580002002344A3EB0A0389B2B3FBF9F809FB2A
:108C6800183308FB0EFE41EA03418E452CD96118E2
:108C780008F1FF3304D28E4502D9A8F1020321443A
:108C880043EA0040A1EB0E01A0FB02984145CE4605
:108C9800434602D306D14D4504D20138B9EB020E42
:108CA80068EB0403002EA7D0B5EB0E0261EB0301BD
:108CB80001FA0CFC22FA07F3F9404CEA0303C6E96F
:108CC800003199E74046C5E74346D9E70000000070
:108CD8002DE9F04706460F46904688B00FF0CBFBCB
:108CE8004FF47A73A0FB034503FB0155E40B012FF6
:108CF80044EA45444FEAD53507D122462B4630464B
:108D080027490CF033FF002012E0D8F804702548FA
:108D18003946FFF773FE70B139462348FFF76EFEF8
:108D280048B130463A4621490CF03CFF6FF0040048
:108D380008B0BDE8F087204617A3D3E900232946E9
:108D4800FFF7F2FD05460C4610461946184A00235F
:108D5800FFF7EAFD80460F46104619464EF6602298
:108D68000023FFF7E1FD82468946104619464FF475
:108D78007A720023FFF7D8FDCDE902A9CDE90623D1
:108D8800CDE904012A4623463046CDE90087094942
:108D98000CF0ECFEB7E700BF005C26050000000001
:108DA800E9A10100FAA10100FDA1010006A201004C
:108DB80080EE36001EA2010010B403460A4603489E
:108DC80081680C691946234610BC1847E48D0100D8
:108DD80010B588B00DF10703029301230393002314
:108DE8008DF810300723CDE905128DF807008DF8AE
:108DF8001C3007489DF81C30826843F002038DF848
:108E08001C3094682823022202A9A04708B010BD8C
:108E1800CC8D01001FB502238DF800008DF80110DC
:108E2800CDF804D002938DF80C3007489DF80C302B
:108E3800826843F002038DF80C30946828230122DD
:108E480001A9A04704B010BDCC8D0100F8B5844637
:108E580016481646036800AF03F00703022B22D911
:108E68004FF47A744B680A6893FBF4F36D468CB040
:108E780004FB02336A460E49C2E9051C93FBF4F170
:108E880004FB1133002BB8BF5B42C2E90836094B1B
:108E9800D1619362084B42F8103F00234FF46351AD
:108EA80001F0F0FAAD46BD46F8BD00BF24C700206A
:108EB800369D010000020305060000022DE9F04F6F
:108EC80097B000AFB2480FF0CEF8DFF8C8828146FD
:108ED80060B9D8F80030580704D001214046AE4A9E
:108EE8000CF013FC5C37BD46BDE8F08F0020012272
:108EF80007F10F01F873FFF76BFF10B9FB7BA02B8D
:108F08000AD0D8F800305907ECD0FB7B0121A34ADE
:108F1800A0480CF003FCE5E7D8F8002002F00702AF
:108F2800022A04D9032140469D4A0CF0F7FB002190
:108F38003D20FFF76FFF14200BF021FC00213E209D
:108F4800FFF768FF0A200BF01AFC0C213D20FFF701
:108F580061FF32200BF013FC924A07F130001146F2
:108F68000BF01DFCD8F8003003F00703022B23D9BF
:108F78000021386CFFF75AFB00210646786CFFF792
:108F880055FBEA468AB005466C46874B3046636116
:108F9800FFF7EEFAC4E906012846FFF7E9FA224688
:108FA8000623C4E9080142F8103F00234FF4435157
:108FB800784801F067FAD5467C480FF054F8D8F89D
:108FC8000030002858D113F0060F04D00221784A47
:108FD80070480CF09AFB00231C461D461E467B6019
:108FE80006221A2007F11001FFF7F2FE8246002838
:108FF80040F09F80B7F91200FFF7CCFB4FF0765195
:10900800FFF79EF83860B7F91400FFF7C3FB4FF07D
:109018007651FFF795F83B688346B9F1000F32D0D7
:10902800D8F80020BB6302F00702022AF86320D9AF
:109038006E468AB0E9465F4A1846C9F814200021EE
:10904800FFF7F4FAFFF794FAC9E906010021584638
:10905800FFF7ECFAFFF78CFA4A460623C9E908013C
:1090680042F8103F4FF4435153464A4801F00AFA78
:10907800B5465646D1465CE003F00703022BAAD951
:1090880003214D4AA4E71846B96BFFF7CDFAF96BEF
:1090980082465846FFF7C8FA20F000433B608346F3
:1090A80040492AF00040FFF735FC3B68A8B918464C
:1090B8003C49FFF72FFC002840F09B804C464D466A
:1090C800D8F8003003F00703022B04D903213B4AE8
:1090D80030480CF01AFB00262BE03B60002150467C
:1090E800FFF7FAFB3B68B8B9FF2D6DD118462D493B
:1090F800FFF710FC002840F0AE804C46022E18D036
:10910800D8F8003013F0060F04D002212C4A214869
:109118000CF0FBFA02260CE0FF2D67D11846214916
:10912800FFF7F8FB002840F09E804C46012E40F0E7
:10913800C480DFF878B058460EF095FF002800F09C
:10914800F1800FF098F94FF47A72A0FB020302FB4A
:109158000133C00B40EA434A7B68AAEB03039342FE
:10916800C0F0E080DBF808303F21DB6858469847BC
:109178000346002800F0AD80D8F80020520700F020
:10918800CF80104A012103480CF0C8FAC8E000BF9C
:10919800CC8D010024C70020469D0100589D010088
:1091A800749D010000007041899D0100E48D01005B
:1091B800C29D0100FC9D0100EF9D01002F9E010052
:1091C800669E01000D9F01004FF0010A0135184607
:1091D8006349EDB2FFF79EFB002847D1092D0446ED
:1091E8007FF66EAFBAF1FF3F88D19FE74FF0FF3AA5
:1091F800ECE700215846FFF76FFBA8B1FF2C58D0C9
:109208000134E4B2092C4D467FF65AAF032E90D0B4
:10921800D8F8003013F0060F04D00221514A524802
:109228000CF073FA032684E7FF2C44D00134E4B22F
:10923800092C4D467FF644AF042E3FF47AAFD8F898
:10924800003013F0060F04D00221484A46480CF0BB
:109258005CFA04266DE74FF0010AFF2C01D00134B7
:10926800E4B2FF25BEE74FF0FF3AF6E70021584683
:10927800FFF732FB30B9FF2C0BD1092DDCD9FF2DBC
:10928800DAD1AFE7FF2C0ED1092DBFD9FF2DBDD103
:10929800A8E701230134092DE4B207D9A542A1D2D8
:1092A8000133C9D1B2E74FF0FF33F3E7092CF7D800
:1092B80006E74D46AAE74D46BEE7D8F8003013F05A
:1092C800060F04D002212A4A27480CF01EFA01266C
:1092D8002FE70D2007F11801FFF76EFD034628BBA5
:1092E800244A254807F11801FFF7B0FD102007F1BF
:1092F8002001FFF761FD034610BB204A204807F113
:109308002001FFF7A3FD0E2007F12801FFF754FD08
:109318000346F8B91B4A1C4807F12801FFF796FDD8
:10932800C7F804A064200BF02AFA59E6D8F8002000
:109338005007DBD00121154A0B480CF0EFF9D5E7AF
:10934800D8F800205107DED00121114A06480CF058
:10935800E5F9D8E7D8F800205207E1D00D4A11E71F
:1093680000007041939E010024C70020D09E010098
:109378003A9E01002D9F0100329F01005B9F010072
:109388005E9F0100819F0100859F01003E9F0100B3
:10939800679F01008E9F01002DE9F04F91B0009367
:1093A80002F004030293C2F3C203013384070546A3
:1093B8000E46DDF868800392059340F0BB81041DDA
:1093C80030B1072909D86FF01B0011B0BDE8F08F44
:1093D80001F007063444C6F10806009B4FF0000967
:1093E8004FF0040A591E4FF0FF334F460193CB4606
:1093F8005346CDF810900DB1009A226005980028C8
:1094080000F3E8809848009A824203D39748824242
:10941800C0F0E080039AA4EB050E92074FEA9E0085
:1094280000F103810F2F00F2B180002D00F00581BB
:1094380007F140020DEB020C019A0CF8200C0CF815
:10944800102C049801300490E7E07A285DD84B2866
:109458000ED8472859D829282DD8252852D054D88D
:1094680020287AD02338D0F1000B4BEB000B74E0A6
:109478004C382E2849D8DFE800F07048484848485A
:109488004848484848484B48484848484848485940
:10949800484B4B595959704B6D487048184B1848F0
:1094A80048827F4B48484B487F0000204FF0000B14
:1094B8004FF0040A38E001222A38C0B202FA00F05C
:1094C80010EA0E0F49D110F0625C2FD110EA020B9E
:1094D80043D06046013C5444B4FBFAF40AFB04F45C
:1094E800002D61D0A3EB050CA444B4453FF66BAF47
:1094F800002868D1042B47D158F8043B2360042383
:1095080004342AE0019A013A01924FF0000B24E05A
:1095180011F8010C6C2834D1002011F8023C834664
:109528006C2BC5D14FF0080A5346D3E708F107085A
:1095380028F00708073424F00704F8E802AB35B12F
:1095480006982044B0423FF63EAFC4E900AB4FF066
:10955800000B08344FF0080A534611F8010F002891
:1095680078D0BBF1000F7FF470AF2528F5D14FF00C
:10957800010B019B013301934FF0040AECE75846B5
:1095880094E700208346A5E7082B02D06FF015006A
:109598001BE708F1070828F00708F8E80223C4E9E0
:1095A800002308230834D8E768B9042B02D108F14E
:1095B8000408A4E7082BE9D108F1070828F00708F0
:1095C80008F10808EDE7059A013A059258F8042BC6
:1095D800009210E7039A900720D54FF0010CA4EBF6
:1095E800050E4FEA9E00BEF5007FCFD20F2FCDD8D3
:1095F800F5B107F140020DEB020E019AC0B20EF868
:10960800200C0EF8102CBCF1000F3FF41AAF60F0DC
:109618007F000EF8200C09F101090137C5F1080295
:109628004FF6DA7E0434069297E74FF0000CDAE73B
:10963800BCF1000F01D00136EFE70298023600288E
:10964800EBD10098CDE90631FFF7EAF9DDE90631FB
:109658000644E2E7631BB3F5806F97D245B9A6F1DC
:109668000804E018B1E600BFFC8C0100ACBF0100A3
:10967800029A9B0828602B709DF81030C2B1EB70DD
:1096880085F80290B9F1000F05D0002208A8C5F1AD
:10969800010C97420ED14FF0000AC5F101030DF1FC
:1096A800200801930DF1300B574512D1601B8CE651
:1096B8006B70E5E710F8013B190608D50CEB040EB2
:1096C800B64503F07F033FF67EAE04F8013B013256
:1096D800DFE7B9F1000F03D098F90020002A17DB63
:1096E800029BD3B11AF80B2004F8012B0022019B2E
:1096F80018191044B0423FF666AE98F80000009979
:1097080004F8010B204603920FF084F8039A1444DE
:109718000AF1010A08F10108C6E798F8002055F88F
:1097280022300093029B009845F82230FFF778F921
:10973800421CDCE76FF00D0047E600BF2DE9F04F53
:1097480097B000AFD7F880B03B62CBF3C0030446B4
:10975800894690F802A0FA62BB6141B94578007861
:109768000AEB800020444D4517D8A0EB0409E378A4
:10977800FB61BAF1000F02D01BF0010F16D1FB6993
:1097880053BBFB6A1BB1494620463A6A98474D4687
:1097980028465C37BD46BDE8F08F461C3046FFF7CB
:1097A8003FF90130304409F10109DCE762682378A8
:1097B8007A62FA6A9900796104EB8301002A40F021
:1097C80005810E464FF000084D4601EB0A094E454B
:1097D80050D101EB0A0610E01BF0020FD1D023781C
:1097E8009A007A61626804EB83017A62FA6A002A55
:1097F8007BD14D46904601EB0A061BF0050F0CBFC6
:1098080002230123FB62FB6906EB430A0BF0020308
:10981800BB625645BCD016F8021B16F8013C54F83A
:1098280023909B4B994502D39A4B99453AD3BB69F0
:10983800002B44D0786A0BF09EFA00283FD0964857
:10984800036813F0060F13D0E9468AB06A46934BB3
:1098580053617B6AC2E906314FF400731384904B5D
:1098680042F8103F00234FF4125100F00BFECD4692
:10987800023DCEE716F8013BF96254F82300FFF7E2
:10988800CFF8D7F88430F96A01304BB1D7F888306F
:1098980098453EBFD7F8843023F8180008F101082E
:1098A800054494E7BB6923B1786A0BF064FA002891
:1098B800C5D11BF0010F05D1FB6AED1AA9E7BB6AF8
:1098C800002BA6D04846FFF7ABF8D7F8843053B141
:1098D800D7F8883098453FBFD7F88420431C22F832
:1098E800183008F10108054493E7BAF1000F73D066
:1098F8001BF0040673D0D046002607F148005246F4
:109908003B61B9620EF086FFB96A3B6901EB0A0256
:10991800BA62FA69F9695200FA60BA6A02EB41025E
:109928003A610BF00202BA603A69B96A8A4258D1C0
:1099380062781BF0020F18BF00217A6208BF4FEA55
:109948005801B2181BF0010FD2B240F09F801BF0F3
:10995800040F14BF40460020BB616270A070E17024
:1099680020463A6A7969FB6A9847051EFFF610AFE8
:10997800BB69414623707B6A3A6A6370FB6984F865
:1099880002A0E37007F14800FB6A9847B0F10008AD
:10999800C0F2BA807B69A9EB0A01C91AFB683A6A66
:1099A800C91AD7E90A0398470028C0F2AF804FF0D8
:1099B800000BA84408EB000507F1380AB34571D33A
:1099C80000213A6A0846FB6A9847E1E656464FF096
:1099D800000807F1380092E75646D04696E7B046A9
:1099E80094E7BA6A12F8021B12F8015CBA6254F8DA
:1099F8002500274A904202D3264A90421ED3BA69CC
:109A080032B1786A7B600BF0B6F97B6800288BD19D
:109A1800BA6802BB08F1280207F1300C08F101000E
:109A2800944407F1580208F1020852FA80F00CF841
:109A3800101C5FFA88F800F8105C75E7BA693AB14B
:109A4800786A7B600BF097F97B6800287FF46CAF2D
:109A58001BF0010F09D006F1280207F13000711C34
:109A6800161806F8205CCEB25EE71BF0040F3FF430
:109A78005BAF08F1280207F1300008F1010102EBA1
:109A8800000808F8105C5FFA81F84DE7002063E7EA
:109A9800FC8C0100ACBF010028C70020AC9F01006E
:109AA800040000011BF80A3054F8239087F8373077
:109AB800D7F884302BB3D7F888309B4521D2D7F814
:109AC800843033F81B8001213A6AFB6A07F13700BA
:109AD800984700281ADB0544B8F1000F06D148461C
:109AE800FEF79EFF00F101081FFA88F84146484634
:109AF8003A6AFB6A9847002808DB05440BF1010B1A
:109B08005CE74FF00008DEE7454641E605463FE6DC
:109B1800014B1860704700BF80C5002080B505461E
:109B28000E461746984608F0DFFE03460FF0D8F8B1
:109B38000446DFF81890424649F800303946304666
:109B4800A84754F8090003F091FB00BF0800000083
:109B58002DE9F047058B04462807904611D40229C1
:109B680005F0070540F0CC8020460BF09BFB78B150
:109B78000138218B042811D8DFE800F0C2106D8568
:109B8800950001290CBF45F0100545F020052583F7
:109B980088F31188BFF36F8FBDE8F08701F0070ADB
:109BA800AA4500F0A5800027B9463E46A368002BC9
:109BB80000F0BC8041F00801218388F31188BFF3CD
:109BC8006F8FA168002900F0BA800D68002900F0A5
:109BD800B680334652462046D1F80480C047002D4F
:109BE80076D02B6829461D46F0E701F007035A1F77
:109BF800012A1BD8002221F00701062B276889B209
:109C0800C4E9002209D13B4603E0628B013262833A
:109C18001B68002BF9D141F00201204621830BF08B
:109C280041FB00287AD041F0200176E0042B0AD1CC
:109C380021F0070189B2204621830BF033FB10B1D4
:109C480041F020012183218B01F0070AAA454FD05A
:109C58000027B946AAE7236921F0070141F0060168
:109C6800062DD3F8009021832DD1B9F1000F3FD0F4
:109C780041F00801218388F31188BFF36F8F2046D4
:109C88003949C84729E021F00701236941F0040157
:109C980089B2042DD3F804902183E6D000274FF031
:109CA800040A3E4682E721F00701236941F00501D5
:109CB80089B2052DD3F808902183D6D000274FF01C
:109CC800050A3E4672E700274FF0060A3E466DE752
:109CD8002B4687E7B9F1000FD1D1EFF31188202384
:109CE80083F31288BFF36F8F238B23F0080323833A
:109CF800258BEA062ED525F01003238305F00705EA
:109D08006669218B002EBFF670AF00232768C4E96F
:109D1800003321F0070141F001012183218B4FF02D
:109D2800000901F0070AAA457FF440AF002F9CD034
:109D380041F00801218388F31188BFF36F8F002F4A
:109D4800C8D03D6839463346524620460BF0D6FA0D
:109D58002F46F4E7AB067FF51BAF25F020032383DE
:109D680005F0070500E700BF315301002DE9F04772
:109D7800044607464FF00109DFF8508014B9384609
:109D8800BDE8F08794FAA4F5B5FA85F509FA05F364
:109D98002E0108EB05156FEA030A24EA03042B7B5E
:109DA800002BEBD058F806301B694BB94644736852
:109DB80004222846196807EA0A0700F023FBDDE7B2
:109DC800284698470028D9D1F0E700BF4C910100F8
:109DD80030B5002289B00F490F480EF093FB0022DE
:109DE80000230024CDE906230E230C4DCDE90334CE
:109DF8004FF440722846CDE90144094B09490094C3
:109E080008F0D8FA0849284608F018FA204609B098
:109E180030BD00BF359E000068CC0020A8C70020D8
:109E280051A10000B8DE002060A00100014808F040
:109E3800ABB900BF90C700202DE9F04780461F4806
:109E48000F460BF0CCFB0646002830D000252846EC
:109E5800BDE8F087237B6BB12368DB680BB1204634
:109E6800984723681B69D3B9636804222046196898
:109E780000F0C8FA013610344C45EBD3B8F1000FA6
:109E8800E5D0002DE2D02846FFF770FF0546002FE9
:109E9800F7D000214FF4A4700EF073FAF1E72046D2
:109EA80098470028E0D00AFA06F31D43E2E7054682
:109EB8004FF0010A024CDFF80C90DDE780D3002058
:109EC8004C9101005C91010008B5034608462BB18E
:109ED800044A136000F078FD002008BD6FF01500FB
:109EE800FBE700BF84C5002010B5044C237813B9E4
:109EF800034808F049F90123237010BD4CDE002007
:109F080090C7002010B5044609480BF068FB3CB127
:109F1800084BD3E8EF1F0139C3E8E21F002AF8D144
:109F280005480EF0FBFABDE81040044808F02CB9CB
:109F380078D300207CD3002068CC002090C7002074
:109F480000200146034BD3E8EF0FC3E8E21F002AC5
:109F5800F9D1704778D3002070B5FFF7F1FF0546B7
:109F6800074C084EB44200D370BD63685B792BB1CF
:109F780023685B6813B12946204698471034F1E7F7
:109F88004C9101005C91010010B5044C0449204635
:109F98000BF021F8034B1C6010BD00BFDCC600208D
:109FA8008895010070D3002008B50023084A4FF4B3
:109FB80000411370074A08481360084A1360FFF706
:109FC80083FFFFF7E1FFBDE8084000F06BB900BF71
:109FD8004DDE002078D30020E35501007CD300201B
:109FE80001460022002301480BF016B8DCC6002009
:109FF80001480BF0AFB800BFDCC60020024B014699
:10A0080018680BF0FBB800BF70D3002001480BF0B4
:10A0180030B900BFDCC600202DE9F041334B187879
:10A02800002860D0FFF7E4FF044678B1304BD3E84E
:10A03800EF1F0139C3E8E21F002AF8D12D4DDFF8E0
:10A04800B88045452DD32046FFF7D8FF2B4B2C4C25
:10A058001B68002B19DD0EF00EFA4FF47A72A0FB84
:10A06800020302FB0131C30B43EA4143D4E9002058
:10A078009B1A40F2E9324FEAD13161EB0001934279
:10A0880071F1000101D3FFF767FFD4E9003213F53E
:10A098007A7342F10002C4E90032BDE8F041FFF7EB
:10A0A800B5BF6B685B793BB121784B0706D52B6848
:10A0B800214628461B6898471035C2E7204626885F
:10A0C800C1F3C20700F0BEFAC6F382160246002E9C
:10A0D800EDD00028EBDB01233946284600F0ACF927
:10A0E800B042E9D3E3E7BDE8F08100BF4CDE0020D1
:10A0F8007CD300204C9101005C91010078D30020B2
:10A1080060CC002070B50D4D297861B90120FFF7AA
:10A1180093FE0B4C0B4EB44206D3FFF77DFF00288D
:10A12800FBD101232B7070BD63685B791BB1236879
:10A1380020469B6898471034EDE700BF4DDE0020AD
:10A148004C9101005C91010000212DE9F04708467F
:10A15800FFF772FE044658B340F267684FF00009F3
:10A168000EF0BEFD1B4B1C4A1B58136033B11B4B32
:10A178001B68092B02DD1A4808F006F80025194F5C
:10A18800DFF85CA044B12046FFF7F0FD044618B99B
:10A198004FF0FF384FF0FF39FFF73EFF064628B96A
:10A1A800B5B942464B46504608F022F83546E9E72D
:10A1B8004FF0FF384FF0FF39D2E72B689B691BB18E
:10A1C80000222846114698471035BD42F5D3E8E7E6
:10A1D800054DFAE70800000074D300207CD3002066
:10A1E80090C700205C9101004C91010013B51848FC
:10A1F8000BF0F5F9174B1B7873B1EFF3118420239B
:10A2080083F31288BFF36F8FFFF706FF84F311887B
:10A21800BFF36F8F02B010BD0F4B1B68002BF9D036
:10A2280050B9002200230D48CDE900234FF4004225
:10A23800002308F06BFEEDE70928EBD107480EF084
:10A248006DF9074802B0BDE8104007F09DBF00BF98
:10A258007CD300204DDE002074D3002068CC002081
:10A2680090C7002010B5064B04461B689847214646
:10A27800A06004480AF04FFFBDE81040FFF7B6BFE2
:10A2880084C50020DCC60020044A054B9B1AB1EBAC
:10A29800D30F34BF52F8310000207047BC90010042
:10A2A8004C91010000210B480B4B30B51B1A0B4C8D
:10A2B800DB080430994200D130BD10F83120256800
:10A2C80002F0070225F007052A4344F8042B013160
:10A2D800F0E700BFBC9001004C91010020C70020AE
:10A2E800F8B5064600240A4F0A4DED1BED08AC42AE
:10A2F80003D14FF0FF342046F8BD57F8340020B1A1
:10A308003146FEF77BFB0028F5D00134EFE700BFAC
:10A31800BC9001004C91010000282DE9F0478846C7
:10A3280015461F461DDA4FF0000A5446DFF8909094
:10A33800244EA6EB09063609B24509F1100902D1E7
:10A348002046BDE8F08759F80C0C3B462A464146A2
:10A358000079FFF7E1FF844238BF04460AF1010A99
:10A36800EAE7194B194AD21AB5EBD20F26D203EBFA
:10A37800C5031C79BC4228BF3C460722144EC0B214
:10A3880000EB400056F82530824023EA020304F02F
:10A398000702824013430021032223FA02F000F04F
:10A3A8000700814202F1030238BF01461E2AF4D198
:10A3B80023F007030B4346F82530C1E70024DCE708
:10A3C8004C9101005C910100BC9001004C9101008E
:10A3D80020C70020F8B506460F460024074D084B55
:10A3E800ED1AED08AC4200D3F8BD002122B23B467D
:10A3F800304601340BF00FF9A4B2F3E74C91010099
:10A40800BC90010038B50D4611460A4B4268C31A84
:10A418001B1104460133137143689971FFF7DAFF82
:10A42800012263681D6063685A71BDE83840FFF710
:10A438005BBD00BF4C91010070B14168097973B1EF
:10A44800002A17DBCBB20C4903EB430351F8220077
:10A45800D84000F0070070474FF0FF31EFE7074999
:10A468000748401AB2EBD00F3ABF01EBC201087996
:10A47800184670470420704720C70020BC90010090
:10A488004C9101002DE9F04F8FB0C1F34A2804AF79
:10A498000D469146B8607B600C0DB8F1000F67D08F
:10A4A80000264FF0040B4FF00A0A07F11403C7F80F
:10A4B8000C80C7E907667E620193CDF808B0CDF835
:10A4C80000A007F11C0332464846F968FFF736F941
:10A4D800B0F5006F034620D32A48036813F0060F2F
:10A4E80017D06C468AB0D9F8041004AB264D1A462A
:10A4F800C3E9055140F2FF71D9614FF40071198425
:10A50800224B42F8103F4FF412513346FFF7BAFF7F
:10A51800A5462C37BD46BDE8F08FC0F30A0804F104
:10A528001700184420F0070080083B60FFF758FD2B
:10A5380068F35325044690B13B6800F11001C7E960
:10A54800083607F11403F961CDE900A3CDF808B086
:10A5580048460F4AF96807F11C03FFF7EFF868F35C
:10A5680053252A4620467B68B9680BF07EF8D0E769
:10A5780004F1170020F007008008FFF731FD0446BA
:10A58800EDE700BF40C7002075A0010004000001EE
:10A59800475601002DE9F04F87B00446DDE9105A0F
:10A5A800DDE91279934698460391DFB13B4652465E
:10A5B80010210020CDF80090CDF81490FEF7ECFEA5
:10A5C800B0F5006F06460ED31C48036813F0060F5B
:10A5D80030D040F2FF730221194A07B0BDE8F04FAE
:10A5E8000BF09CB83E4605F11700304420F00700F8
:10A5F8008008FFF7F5FC04F007040BF0070BE400F4
:10A6080044EA8B1444EA462444EA0554054640B11A
:10A618003FB13B4652463146CDF800901030FEF728
:10A62800BBFE434622462846039907B0BDE8F04FD3
:10A638000BF01BB807B0BDE8F08F00BF40C7002083
:10A64800B4A00100406820B1034BC01A40F38F004A
:10A6580070474FF0FF30704720C700200EB403B595
:10A6680003AB53F8042B01460448019303F040F967
:10A6780002B05DF804EB03B0704700BF87570100D4
:10A68800CA0605D48B064CBF02490349FFF7E6BF4B
:10A69800704700BF5CA401004BBE01002DE9F04FDC
:10A6A80089B09B46149B9DF84CA00693159B0446C5
:10A6B8000593169B0D469046179E0493BAF1000F1A
:10A6C80000F09D8006F4807307930AF0A2FF06F05D
:10A6D8000209024600283ED020469149FFF7BEFFF6
:10A6E8000746B9F1000F08D016F0440F35D12A46B5
:10A6F80020468C49FFF7B2FF074406F0010353B127
:10A70800894B204653F82A20884B8949002A08BFDC
:10A718001A46FFF7A3FF06F48073002B49D006F012
:10A728000803002B63D1B8F1000F66D042462046DB
:10A738008049FFF793FF0546069B3D44002B6DD1EA
:10A74800049B002B73D1F30700F1E48031462046C7
:10A75800FFF796FFD8E00746C3E7774B186800284D
:10A76800CAD0764B4FF47A791B684FF03C0CB5FB96
:10A77800F3F5B5FBF0F14FF4616300FB115509FBEC
:10A7880005F5B1FBF3F2B5FBF0FE03FB121100FB7C
:10A798001E55B1FBFCF309FB05F5B5FBF0F50CFB09
:10A7A800131120460091CDE901E56549FFF756FFF1
:10A7B800A2E706F00803EBB1624B204653F82A20C3
:10A7C8006149FFF74BFF0546B8F1000F05D0424637
:10A7D80020465849FFF742FF0544BBF1000FABD0B4
:10A7E8005A4620465949FFF739FF0544A4E74FF078
:10A7F800000BE1E706F00805E6E745469CE7BBF1F4
:10A80800010F069B06D1002B64D1049B002B7BD043
:10A8180000250CE0002BF8D04D485CE04D48069B25
:10A8280022464D490AF076FA049B002B68D0DFF8DF
:10A838002C81DFF82C91049F3146102F204628BF29
:10A8480010274FF0000BFFF71BFF5D4545DC059B0C
:10A85800494620461A78FFF701FF4FF0010B1BF01D
:10A86800070F03D141462046FFF7F8FE5F453BD965
:10A87800059B4946204613F80B20FFF7EFFE0BF126
:10A88800010BBBF1100FEAD14FF0000B2046354900
:10A89800FFF7E4FE5A46059B20469A5CA2F1200188
:10A8A8005F2928BF2E223049FFF7D8FE0BF1010B94
:10A8B800BBF1100F1DD01BF0070F03D141462046F6
:10A8C800FFF7CCFE5F455A46E5D841462046FFF7DC
:10A8D800C5FEEBE71F485546A1E741462046FFF76E
:10A8E800BDFE0BF1010BB0E720462049FFF7B6FE8D
:10A8F800C5E7059B3B440593049BDB1B04939AD156
:10A90800BAF1000F7FF41FAF204609B0BDE8F04F41
:10A918000AF028BF2046054A0549FFF79FFE15E7BC
:10A92800F1A00100F5A001009C950100ECA0010038
:10A9380045A501001AA1010088D3002084D3002076
:10A94800FEA00100B09501001EA1010024A1010094
:10A95800B557010087570100F9D8000031A101005F
:10A9680029A1010033A101006AAB01002FA1010058
:10A9780042F20F7373B58B4228BF0B460568044635
:10A98800052168460D4A08F0D9FC06466368284642
:10A998000B225B680A490AF0D7FE636832466946AB
:10A9A80028465B680AF0D0FE63681B2228465B686D
:10A9B80004490AF0C9FE02B070BD00BF34BC0100F2
:10A9C80051A1010035A1010000210123064A90424E
:10A9D80006D8064A01B901231360054B1860704771
:10A9E800012140085B00F2E740420F0084D30020B9
:10A9F80088D30020014B036000207047C4950100F4
:10AA080010B504460CF061FF0349024620460BF0DE
:10AA1800ADF8002010BD00BF94A10100134600222C
:10AA280073B5044601920A21586801AA01F0EEFBA9
:10AA3800019D95B920EAE0744FF40046294640F29A
:10AA4800E7304FF47A720023C4FB0601FDF7BCFF20
:10AA58000DF097FC284602B070BD2A4620460249F0
:10AA68000BF0A0F8019DF5E7C0A1010008B5034A65
:10AA780003490BF07BF8002008BD00BFB0A201001D
:10AA8800B7A201002DE9F3411746002304460A2125
:10AA9800B86801AA019301F0B9FB019DC6B24DB196
:10AAA8002A46204613490BF07DF8019D284602B03E
:10AAB800BDE8F081042E09D9324620460E490BF034
:10AAC80071F820460BF0C2F80125EFE77868FFF728
:10AAD80007FCB0F1000804DA20467A6807490BF051
:10AAE80061F80021334608460FFA88F20AF093FD10
:10AAF800DCE700BFE2A2010009A3010020A30100D6
:10AB080010B5044604F02AFB0749024620460BF01C
:10AB18002DF8204605490BF029F82146044808F08D
:10AB28002BF8002010BD00BF7FA301009EA30100E9
:10AB38003DAB000070B58EB004460D46D0F89C6061
:10AB48000DF060FB03460EF0CBF8214A214910585E
:10AB5800214A002B18BF1A460092204A23468442F5
:10AB680018BF0A4628461E490BF000F8D4E90A2304
:10AB7800CDE90023284694F90E30227B19490AF0C2
:10AB8800F5FF06A92022204607F068FB636E0246FF
:10AB9800154928460AF0EAFF204605A90DF040FBB2
:10ABA800024628B1284611490AF0E0FF0EB070BDF0
:10ABB8006422059B2846F11A4A43B2FBF6F200913B
:10ABC800CDE901620A4932460AF0D0FFEEE700BF3C
:10ABD8000800000031A10100A8A30100CAB50100C6
:10ABE800ABA30100B7A30100E3A30100FAA301008E
:10ABF80027A40100F0B50025044691B0294608AF06
:10AC08001C2209A80DF02DFE134E1A2220213846C9
:10AC18000DF027FE2146114807F0AEFF07AA4FF4B2
:10AC2800006130460DF0F0FA6423079A2046C2F519
:10AC380000614B43DB0A05934FF400630097CDE9AD
:10AC48000313CDE9013206492B4632460AF08EFF3E
:10AC5800284611B0F0BD00BFB8E900206DAC000077
:10AC680078A4010070B504460D46D0F89C6088B001
:10AC780007A90DF0D5FA024628B128460E490AF070
:10AC880075FF08B070BD20460DF0BCFA6422079B22
:10AC98000096F11A4A43B2FBF6F2CDE90131074BAF
:10ACA800CDE90362002818BF034622462846044916
:10ACB8000AF05CFFE5E700BFFAA30100A8A30100C2
:10ACC800C1A401002DE9F04F87B00446684606F09C
:10ACD80059FF1823009F082103FB0077264A2046C6
:10ACE8000AF029FFDFF894A0009DDFF894B0BD4278
:10ACF80003D3002007B0BDE8F08F2B680BB11A789A
:10AD080032B92B4614211F4A01A808F017FB01ABE2
:10AD18005246082120460AF00EFF28460DF0A3F9F6
:10AD2800194B0821002808BF5B46184A20460AF03C
:10AD380002FF6B69A3B11E6896B1336883B108211D
:10AD48002046134A0AF0F7FEB1464FF00008336870
:10AD5800104A434506D8082120460F4A0AF0EBFE60
:10AD68001835C4E70821204659F8043F0AF0E3FEE5
:10AD780008F10108EBE700BF34A5010043A5010075
:10AD88002BA501003EA5010025A50100C9AB0100C6
:10AD980048A5010044A501005CA401002DE9F0418B
:10ADA80014468846074610220021606808F068FBB0
:10ADB800B8F1020F064607D8202308213846244A4E
:10ADC8000AF0B9FE336816E00A220021A06808F0EC
:10ADD80057FBC5B22B46082138461D4A0AF0ABFE80
:10ADE800B8F1030F1AD1102D0CD0202DEAD0082D60
:10ADF8000BD13378DBB208213846164A0AF09BFE9D
:10AE0800002009E033889BB2F5E738460821124A4A
:10AE18000AF091FE6FF01500BDE8F08110220021C4
:10AE2800E06808F02DFB0821034604460B4A384623
:10AE38000AF081FE102D06D0202D07D0082DE4D170
:10AE4800E4B23470DCE7A4B23480D9E73460D7E7E1
:10AE580089A50100B4A501009EA50100C5A50100B2
:10AE680000232DE9F04F91464FF0FF35012287B0BE
:10AE78000193504B074688461A60202602F07AFD57
:10AE88002C46DFF834A149465246404602F096FD6A
:10AE9800411C06D16A1C41D1484938460AF082FE55
:10AEA80017E073281AD0772828D0612811D1DFF845
:10AEB80010B11021DBF8000001AA01F0A7F9019BED
:10AEC8000546002BDFD0DBF800203E4938460AF063
:10AED80069FE6FF0150007B0BDE8F08FDFF8E0B04D
:10AEE8000021DBF8000001AA01F090F9019B04465B
:10AEF800002BC8D0DBF800203349E7E7DFF8C0B003
:10AF08000021DBF8000001AA01F080F9019B064648
:10AF1800002BB8D0DBF800202C49D7E7631C01D1FF
:10AF28002B49BAE75FFA86F8C6F3C406002C3FD06F
:10AF380002AB29461A46A6EB050C0CE0B8F1100F37
:10AF48001DD0B8F1200F20D0B8F1080F2AD1087809
:10AF5800187031443344A64203D80CEB0100102882
:10AF6800ECD9102CA14628BF4FF0100929464B46B2
:10AF7800384601F023F81035A4EB0904D6E7088811
:10AF880080B21870000A5870E3E708684FEA102E7C
:10AF9800187083F801E04FEA104E000E83F802E0C3
:10AFA800D870D6E7082138460A4A0AF0C4FD90E767
:10AFB800204690E7F0C5002013A601001AA601005C
:10AFC8004CD70020D9A50100ECA50100FFA5010080
:10AFD80037A601009EA5010070B50F4E04460D4628
:10AFE800337871B123B10D49BDE870400AF0DABD7C
:10AFF8000123337020460A490AF0B8FD0123337053
:10B0080004E083F001033370002BF3D12946204676
:10B01800BDE870400AF037BE4EDE002051A60100A0
:10B028008CA6010070B504463B480378182B02D162
:10B038000B78112B31D00B46013A8D18AB4225D134
:10B048008B5C0A780370A2F13003092B334C04D9C6
:10B0580022F02003413B052B04D823683049CA5409
:10B06800013323602368022B33D1102200212C489E
:10B0780008F006FA2B4A136803F8010B13602A4AF2
:10B088001368013313600023236022E013F8016B77
:10B09800182ED3D11E78112ED0D1234D20462A68E0
:10B0A80022490AF063FD20460021FFF795FF204B57
:10B0B800187870B91F4A2B681168042B0ADC08B18C
:10B0C80011602B6013F003010BD1126813681BBACF
:10B0D800136070BD0868043B00BA41F8040B0120F6
:10B0E800EBE75B4203F0030358BF5942022904D13E
:10B0F800126813885BBA9BB2EAE70329E9D11068A2
:10B1080002681104C2F3074301F47F010B4302F400
:10B118007F4213430360DCE74FDE00208CD300201E
:10B1280051DE002098D3002090D30020B6A601005D
:10B1380050DE002094D300202DE9F84F0023064666
:10B1480015460C462949DFF8A8800B602949DFF825
:10B15800A890DFF8A8B088F800300B60012C2F46C3
:10B1680055F804AF1ED90222494650460DF0BBFBE4
:10B1780080B99AF80220003A18BF0122924450463A
:10B1880002221F490DF0AFFB30B9012388F80030C7
:10B19800013CE3E70022F1E749465046FDF72EFC63
:10B1A800A8B9043700227868114608F069F9002226
:10B1B800144B11461860786808F062F9124B13496D
:10B1C80018603046FFF708FF0020BDE8F88F9AF8AE
:10B1D80000202D2AE6D19AF80120002AE2D0524612
:10B1E800594630460AF0C2FCD2E700BF8CD3002093
:10B1F80050DE002090D30020D0A60100D6A6010082
:10B20800D3A6010098D3002094D300202DB00000CD
:10B2180007B50A480CF027FF60B10423084A0093D9
:10B22800126801230549074800F02EFF002003B0EB
:10B238005DF804FB6FF01200F9E700BFB48D010060
:10B248006C9601005C91010010B54468A36040232E
:10B25800C4E9001242680821D36402F15803136359
:10B268000023C2E90E33C2E91133C2E90633C2E949
:10B278000933D162146802F15001536313641161F8
:10B2880053611362C2F8D030A36823B11B6C13B1A9
:10B29800204604499847A3681B6A0BB12046984783
:10B2A800002010BDB1B200002DE9F74304460D4659
:10B2B8008368DB6B03B19847A368DB6A0BBB4FF06D
:10B2C800000905F130084046EA6C01A90AF0D0F8F7
:10B2D8000746002836D0A36801991B693BB302468C
:10B2E80020469847064628B3314640460AF0DDF81E
:10B2F800B7424FF00109E6D00020D5E9013198475F
:10B3080003E0204698470028D9D1A368DB6963BBCE
:10B3180005F110073846EA6A01A90AF0FAF8064664
:10B3280050BB20460AF095FAC5F8D0602FE06FF0C0
:10B338005706D9E7014640460AF0B7F8B9F1000FB9
:10B34800E3D0D9E71648036813F0060F03D00221AB
:10B35800144A0AF0DAF9A3681B69002BEED001221F
:10B3680020460DF103019847E8E720469847002852
:10B37800CED103B0BDE8F083A3680199DB685BB167
:10B38800024620469847014638460AF0DEF8D5E9D5
:10B39800013101209847ECE76FF05701F4E700BF4F
:10B3A8005CC700203DA8010010B50446816818312B
:10B3B80001F05EF9A1682046BDE81040014A183145
:10B3C80001F0FCB87FA8010038B583680446D3F8BB
:10B3D8007832DB071DD4C0690BF0C7F960680368D1
:10B3E8005B689847054620B9E0680BF06BFBA368DB
:10B3F8001D75A3685B6C13B1294620469847002247
:10B408000DF06EFCA368C3F82023034B185801F015
:10B418002DFF6FF00F05ECE70800000001490AF066
:10B42800AABA00BF5CA40100F7B5044680680D46BF
:10B43800D0F878325A0705D500210AF0C4FAE06836
:10B448000BF012FBE368DB6873B9002D3BD0A668EC
:10B4580006F1560738460AF09BFA002835D03946D7
:10B4680006F5AB70FDF7D4FAA2682946E0680DF13D
:10B47800060356320BF0FBFA58B9A06800F5AB7119
:10B488005630FDF7C5FAA06856300AF081FAADF8D3
:10B49800060020460AF031FFA368D3F874329B06F1
:10B4A80003D50B4960690AF066FA204600F014FFDC
:10B4B800A268BDF806302046A2F85230A268A2F869
:10B4C80050300AF07FFE03B0F0BD86F85601CBE796
:10B4D800A89201002DE9F04FA7B00446542200219C
:10B4E80011A80DF0BEF90023CDE90533A368204665
:10B4F800563302930AF008FF20460AF04CFE10B9B2
:10B508006069FFF78BFF00264FF0FF37B246B3465E
:10B518003546B146A0681422002118300DF0A1F973
:10B5280020460AF0D0FDA168E068B1F850205631F5
:10B538000BF0D4FA20460BF053FB0DF144080396A8
:10B54800DDE90532012A6DD0132B6ED85FBBBBF144
:10B55800000F0AD020460BF064FB1423A26811A93F
:10B5680056320DEB03000AF02EFCB9F1000F0CD097
:10B5780099F81130FE2B08D1059B26AA02EB83020D
:10B5880052F8542C0AB101330593A068059D436A0B
:10B59800002B40F0B680CEB1C3699E422DD00D96E7
:10B5A80000F1180524E002234146029A06A80AF091
:10B5B8000AFCD8F8042006990346029231B1012901
:10B5C8000AD148B16D4A20460AF04CFF6FF00705D2
:10B5D800284627B0BDE8F08F059B002B34D0D8F85B
:10B5E800000001F065F898B166B1A5680D961835A8
:10B5F8000CAE0FCE0FC533682B602046FFF7D4FE84
:10B608000125E5E75E4A012120460AF02BFFDDE728
:10B61800059BCBB129462046D8F8002001F0EAF96D
:10B62800022809D1059B132B91D9069B022B8ED199
:10B638000121544B544AC6E7032805D0059B4FF017
:10B64800010B013305937BE7039B33B94846D8F8D0
:10B65800001007AA0AF0AEFC054608F10408013FED
:10B668009DB3EB68BBF1000F08D0F3B120460AF098
:10B678004BFE20460AF0A6FD444AC4E7ABB1AE46ED
:10B68800A368DDF814A003F1180CBEE80F00ACE8BD
:10B698000F00DEF80030CCF80030AB682BB96B7CBB
:10B6A800FE2B04BF2F7C07F1FF37D5F804C0BCF18F
:10B6B800000F08D0AE460CAEBEE80F000FC6DEF88D
:10B6C800003033606646A94603E0059B53B1012369
:10B6D8000393069B17B9022B7FF432AF059B013306
:10B6E80005932DE7A368DB6A13B1DB68002BEED165
:10B6F800274B012100932046119B264A0AF0B2FEEF
:10B70800E5E790F82830A5EB0A05BBB14FF6FF72C4
:10B7180090F82910FF2918BF0A469D4202D3134406
:10B728009D420BD98369012120461B4A0AF09AFEE3
:10B738002046FFF739FE6FF0150549E701210AF0A9
:10B7480037F9A06800F543700AF056F9A36811AA02
:10B75800294602EB8A0220465B6A98470546A0689C
:10B768004FF0FF324FF0FF3300F543700AF0EBF86B
:10B778000021A0680AF01CF92AE700BF8DA8010083
:10B78800A1A8010002A90100D6B60100BFA80100C6
:10B79800EEA80100F6AB010026A90100022210B5AF
:10B7A800836804461A7583689B6CBBB90AF0AAF8CB
:10B7B8008368D3F87832DB040BD50321084B094A98
:10B7C8000AF050FEA0686FF4805100F51E700AF070
:10B7D800AFF82046BDE8104000F0D2BE10BD00BF53
:10B7E80041A9010045A501002DE9F04F04468068F4
:10B7F8000121B1B000F51E700AF08FF8A3681B7D17
:10B80800022B20D100230993A36860689E6C03680B
:10B818001D6909AB0EB310221BA9A847099B93B158
:10B828000121A0680AF0C4F82046099A1BA9B0476C
:10B838000021A0680AF0BCF8A3689B6C002BE3D138
:10B848002046FFF7ABFF6FF00101A06800F51E70FE
:10B8580031B0BDE8F04F0AF06BB801220DF12301B9
:10B86800A847099B002BEED09DF923209DF82310B3
:10B87800002AA368C8DB5A7D032A00F29782DFE812
:10B8880012F0040084029B0295020D297CD00A293B
:10B8980058D0B3F8782209296FF3CA02A3F878229E
:10B8A800A06800F086803DD80029ADD0082900F0B6
:10B8B800FB810346D3F874229207A5D501391629CE
:10B8C800A2D801A252F821F061BE0000EBBC000032
:10B8D800F3BC0000E3BC000055BE000011BD000031
:10B8E80011B8000011B8000011B8000011B800002C
:10B8F80019BD000021BD000011B800004BBD0000BB
:10B9080011B8000055BD000011B8000011B80000C2
:10B9180011B8000011B8000059BD000011B80000AE
:10B9280083BD00001B2941D07F2900F0C981A1F106
:10B9380020025E2A0346BDD801210AF044F89DF88A
:10B948002310B9E0D3F87822C2F3C7022AB1D3F89A
:10B958007822C2F3C7020A2AACD1B3F8782261F37D
:10B96800CA02A3F87822A568B5F85010C1B92846CC
:10B978000AF029F8E0680BF077F86069FFF74EFDE8
:10B988002046FFF70BFF3FE7D3F87822C2F3C70240
:10B99800002AE2D0D3F87822C2F3C7020D2ADBE7E7
:10B9A8002046FFF797FDC5F82403E9E7012343750F
:10B9B8002AE7D0F874329B077FF526AF01210AF0F9
:10B9C80002F8A068B0F85030FF2B3FF41DAF0025F7
:10B9D800B0F8522000F1560100F5AB700CF01AFFD8
:10B9E800A3681BA9B3F852200BA8134483F8565137
:10B9F800A268142302F5AB720AF0E5F90B99142931
:10BA08003FF602AF30AB03EB810343F8545CA36805
:10BA1800B3F85220002A53D0134493F85530202B02
:10BA280002D0093B042B4BD800294CD100250A959C
:10BA38000A9B30AA02EB830353F854AC0026504605
:10BA480009F0A6FFB3468146B04637463946284630
:10BA580016AA00F0A1FB0346002840D1012EA768D2
:10BA680065D10A9B30AA02EB830353F8540C09F002
:10BA78008FFF4146064607F11802284600F08CFB66
:10BA88000568284609F084FF864205D0821B92B2D9
:10BA98002046A9190AF02DFDA068B0F852300344D9
:10BAA80093F85630202B31D0093B042B2ED9D0F8EF
:10BAB8007432DF072FD42021204600F029FDA3E6A9
:10BAC8000129B3D9013900200CAB009301900AABCE
:10BAD8001BAA0AF09AFA05460028A9D194E61B6821
:10BAE8004A465146184603930CF0FDFE60B9039B85
:10BAF8001846FCF795FF584538BF5846002E08BF32
:10BB0800B8461FFA80FB013601379FE7012120461E
:10BB18000AF08CFB78E6002109F05FFF202120461F
:10BB280000F0F6FC0121A06809F057FF6CE60490CC
:10BB38007FF66AAE0A9A30AB03EB820252F8543CA5
:10BB4800C1461846039309F023FF049B0590A7F804
:10BB580040300496A26849462846183200F01CFB7B
:10BB6800039BD0F800A009F101094BB1BAF1000F0D
:10BB780006D019465046059A0CF0B5FE0028E9D1C2
:10BB8800A168BAF1000F4DD1A1F840A0049B013B78
:10BB98000493DFD16069FFF741FC204600F0F0FC18
:10BBA8000A9B30AA02EB830353F8540C09F0F0FE09
:10BBB800414611AA8146284600F0EEFA0746A068D9
:10BBC8003968FF2200F5AB700CF09FFE3B684FF61A
:10BBD800FF7708F1010AB84603935146284616AA8A
:10BBE8000AF1010B00F0D8FA002851D00022A16810
:10BBF800036801F2551111F801EF985C704503D103
:10BC080010B101324245F6D1B9F1000F01D04A45D1
:10BC180006DBBA42A8BF3A46013E012E97B237D09A
:10BC2800DA46DAE79848069109F0B2FE069900EB81
:10BC38000B074A8FBFB2121A92FBF7F2504692B224
:10BC48000791069209F0A4FE07993F1AB1F840003F
:10BC5800069A00F1010CA1F840C0B0FBF2F102FB1A
:10BC6800110080B2BFB260B906212046864B874AD0
:10BC7800CDF800A00AF0F6FB3946204600F016FB86
:10BC880084E7534606212046814A0AF0EBFBF3E796
:10BC9800002F3FF4B9AD0399A7EB0902204692B2F1
:10BCA80049440AF026FCAFE5D0F874329E077FF5C8
:10BCB800ABAD012109F087FE20460AF03BFCA3E565
:10BCC800D0F874329D077FF59FAD012109F07BFE06
:10BCD800A368D3F874321907EED420460AF00BFC97
:10BCE80092E520460AF019FB8EE520460AF00CFB87
:10BCF80020460AF050FA10B96069FFF78FFB01215E
:10BD0800A06809F060FE3BE620460AF00FFB7BE5E1
:10BD180020460AF016FB77E5D3F874329B0603D564
:10BD28005C49606909F027FEA368D3F874329F065E
:10BD380003D55949606909F01EFE204600F020FC31
:10BD480062E500212046FFF76FFB5DE50121F9E779
:10BD580020460AF0D2FA204609F0D4FD0121A06855
:10BD680009F031FEA368D3F874329E067FF54CAD16
:10BD78004A49606909F0FFFD46E5204600F026FBC8
:10BD88000121A06809F01FFE3EE55B2902D10222CD
:10BD98005A7539E5D3F874329D0706D5622907D15B
:10BDA8004FF0FF3120460AF06AFAA3680022EFE755
:10BDB8006629FAD10121F5E700225A75A268D2F85E
:10BDC800743298077FF520ADA1F131031B2B3FF6A4
:10BDD8001BAD01A151F823F05DBE000069BE000053
:10BDE8007DBE000051BE000011B8000011B800006F
:10BDF80011B8000011B8000011B8000011B8000017
:10BE080011B8000011B8000011B8000011B8000006
:10BE180011B8000011B8000055BD00004BBD00006E
:10BE280011BD0000EBBC000011B8000055BE0000B9
:10BE380011B8000061BE000011B8000011B8000080
:10BE480011B800006DBE00000323537520460AF0A8
:10BE58005BFAD9E40323537520460AF04EFAD3E47B
:10BE680003235375A068D0F8741201F0010181F022
:10BE7800010159E603235375A368D3F874329B076D
:10BE88007FF5C2AC29E700BF30A1010085A90100F8
:10BE980045A50100AD920100B2920100A8920100EF
:10BEA8002DE9F04104468068154600F51E7000290A
:10BEB80037D04FF4804109F030FDA3680021DD64DC
:10BEC800606803689B68984700284BD1204609F0B2
:10BED800BAFD002846D1244E244FDFF89480A0688C
:10BEE80000F52F704FF0FF324FF0FF33032107F0BA
:10BEF80047F80546A0684FF0FF324FF0FF3300F5D2
:10BF080043709DB109F01FFD20462B460121194AB7
:10BF18000AF0A8FAA068BDE8F04100F5437009F0FE
:10BF28006BBD6FF4804109F003FDC6E709F00BFD16
:10BF380032460221204609F008FD3A4629462046A5
:10BF480009F003FD20464246012109F0FEFC606825
:10BF580003685B6903B19847A06800F5437009F06E
:10BF68004BFDBCE7BDE8F081D1B30000F1B700009C
:10BF7800055A01008BA9010010B504460A4909F0C9
:10BF8800F5FD2046094909F0F1FD2046084909F068
:10BF9800EDFD2046074909F0E9FD20460021064A43
:10BFA80000F00CFB002010BDA2A90100E0A90100CF
:10BFB8003FAA010093AA01002DAB0100F8B51E4667
:10BFC80017460A462949044609F0D0FD3EB32046E3
:10BFD8003A78274909F0CAFD01256A0703D12046A6
:10BFE800244909F0C3FDAE421ED920467A5D204996
:10BFF80009F0BCFD0135102DEFD120461E4909F08E
:10C00800B5FDB6B920461B4909F0B0FD0125AE4281
:10C018002B4610D82046174909F0A8FD15E0204600
:10C02800164909F0A3FD01252046144909F09EFD93
:10C03800E0E700252B46FA5C2046A2F120035F2B9F
:10C0480028BF2E220E4909F091FD0135102D06D08A
:10C058006B07DCD12046074909F088FDD7E7204661
:10C06800BDE8F840074909F081BD00BF43AB0100B6
:10C0780029A1010031A1010033A101002FA1010074
:10C088006AAB01004AAB01002DE9F0430446806821
:10C098008846D0F8201315461F4689B0002960D17C
:10C0A8004FF44A720CF0DDFBE0680AF07FFDA068EF
:10C0B80000F543700CF089F84FF42F794FF41F7690
:10C0C800A06830440CF074FBA06800228319012199
:10C0D800484410360CF043FBB6F52F7F09F11409DC
:10C0E800EED10026A36902211E60A06866F38205CE
:10C0F80000F51E7009F011FC5022A36820465A87EB
:10C108001822A3681A87216809F072FDA3684146BE
:10C11800C3F874526068144A03681D682346A84728
:10C128000546D0B90122A3681A75D4E90A0100228C
:10C138000023CDE906230E230393109B4FF40062DE
:10C14800CDE901730495094B009406F033F9A3680F
:10C15800C3F82003616A06F071F8284609B0BDE803
:10C16800F0836FF07705F8E7A5590100A9BE000034
:10C1780010B5044613460A460146064801F0B8FBC6
:10C1880023691B7923B12046BDE8104009F081BD21
:10C1980010BD00BFB35C010038B50B46154648B961
:10C1A8001449154A521AB3EB920F05D251F823508D
:10C1B800284638BD84680CB90025F9E70F4A94422F
:10C1C8000AD30F4A944207D2184629462268904754
:10C1D8002B68002BECD1EFE70A4A944202D30A4AB3
:10C1E800944205D3246814225343E518E358F0E732
:10C1F8000133F8E78C910100B89101009492010095
:10C2080098920100B891010094920100F7B5037863
:10C2180004462D2B164605D16FF015030020336018
:10C2280003B0F0BD0CF05CFD002305460A4F0A463A
:10C23800C35101A9204607F023F9EB59222B02D15B
:10C248006FF02103EAE7002BE6D1019BA342E3D07C
:10C258001B78002BE4D0DFE70C0000008368D3F8DC
:10C2680074329B0603D50249406909F075BF7047CF
:10C27800B8920100014909F06FBF00BF5CA401003A
:10C288000A1E0DDC0ED042238168D1F8741289068B
:10C2980008D5002A04494069B8BF524209F05CBF7A
:10C2A8004123F1E7704700BF66AB01000A1E0DDCB1
:10C2B8000ED044238168D1F87412890608D5002A63
:10C2C80004494069B8BF524209F046BF4323F1E729
:10C2D800704700BF66AB01002DE9F047856804464A
:10C2E80005F15600FCF79CFB0023984695F83C7036
:10C2F800DFF8549086B2A268558FED1BB54209DB72
:10C30800002E1FDD5633606910491A44BDE8F04716
:10C3180009F022BF1D442A4492F856A082F856809C
:10C32800A26856331A444946606909F015FFA368A4
:10C338002B4483F856A0A3685B8FDB1BF61A0027F3
:10C348002B46D8E7BDE8F087D6B6010045A5010021
:10C3580008290A4617D8836893F83E10914212D0EC
:10C3680083F83E208368082AD3F8743205D09906EA
:10C3780009D50549406909F0EFBE9B0603D5034975
:10C38800406909F0E9BE70476DAB0100BD9201003C
:10C3980038B50D4609780446FFF7DAFF6A78072AA8
:10C3A80011D8A36893F83F1091420CD083F83F202E
:10C3B800A368D3F874329B0605D560690249BDE8C5
:10C3C800384009F0C9BE38BD76AB0100F8B58368BE
:10C3D8000446B3F85020002A55D0B3F8521000296B
:10C3E80051D0553103F156050B441846A84206D3DF
:10C3F800014611F80169202E3CD0A8423CD286B2F1
:10C408009DB2AB1B9BB2591C471CD21A014438463B
:10C418000CF00DFAA268711BB2F85030204613FADE
:10C4280081F3A2F85030A36809B2B3F8502013443E
:10C43800002283F8562009F0F9FEA368D3F8743275
:10C448009A0603D51049606909F086FE3B46082123
:10C4580020460E4A0AF006F82046FFF7FFFEA368BA
:10C46800D3F874329B060ED560690949BDE8F840D7
:10C4780009F072BE0846B9E7014611F80169202E95
:10C48800BDD00846B9E7F8BDC292010045A5010034
:10C49800C69201002DE9F04104460D4617460AB13F
:10C4A800FFF7DCFEA368B3F85220D3F874125632B3
:10C4B80013444A0721D51846FCF7B2FA0646DFF8B6
:10C4C8004880A6B9A368B3F85020A3F85220A06802
:10C4D80009F04FFE20B107B115B16069FFF7CAFE38
:10C4E80069422046BDE8F04109B209F09FBE4146C5
:10C4F800606909F031FE013EE3E708212046034A5E
:10C5080009F0B0FFDEE700BFCAB5010045A501008C
:10C5180013B583688DF80710D3F874220446D00742
:10C5280025D5B3F85210B3F850208A421FD0481CC2
:10C538009DF80720A3F852000B4483F85620A368FF
:10C54800D3F87412890710D5D3F87432606913F0E0
:10C55800040F18BF2A22094909F0FEFD204609F0F8
:10C568001AFE10B16069FFF785FE02B010BD012206
:10C5780020460DF1070109F082FFF6E76AAB0100DA
:10C5880010B5044683680221084A09F06BFFA368C6
:10C59800D3F874329B0707D52046FFF79DFE204647
:10C5A800BDE8104009F01DBE10BD00BF45A5010043
:10C5B80001490AF048B900BF5CA401002DE9F04F19
:10C5C8000E460021044617460D4689B0304603AA98
:10C5D80001F10108FFF7E0FDB0B995B127B13A467E
:10C5E8000821204609F03EFF00211E4FDFF8789011
:10C5F800DFF878A0304603AA01F10108FFF7CCFD67
:10C6080060B909B0BDE8F08F006810B1FCF708FA0E
:10C6180080B2854238BF05464146D7E703688BB1EB
:10C628001A787AB1D0F804B04A46CDE90053082107
:10C638003B46204609F016FFBBF1000F04D16069A4
:10C64800FFF7B6FF4146D5E7524620463B4608214C
:10C6580009F008FFAA1D5946204692B20AF000F9CF
:10C66800F0E700BF94AB01007FAB010024A10100FB
:10C67800F7B50F6805460E46A7B13846FCF7D0F95E
:10C6880084B2094B2846009308213B46074A09F023
:10C69800E9FE2846E21C716892B203B0BDE8F0409A
:10C6A8000AF0DEB83C46ECE790AB010086A9010031
:10C6B80010B507490446FCF7A1F938B120460549E9
:10C6C800FCF79CF9B0FA80F0400910BD0120FCE7A6
:10C6D80086AB010089AB010010B583680446D3F826
:10C6E80074329B0603D5064940690AF030F9502296
:10C6F800A36800205A871822A3681A8710BD00BFB4
:10C70800CA92010008B5836902491A6809F02EFA2D
:10C71800002008BD97AB01002DE9F3410D490546FE
:10C7280009F024FA00220C4C0C4EDFF83480B44295
:10C7380002F1010703D3002002B0BDE8F081636A6B
:10C7480092B20093A3684146284609F00FFA3034A4
:10C758003A46ECE7A7AB01005C9101008C9101001F
:10C76800BFAB010008B5024909F042FA002008BD34
:10C778005DA4010073B5044600250D4EA2680DF1B5
:10C7880006030121E06802F5AB720AF070F9BDF802
:10C798000600A36840B12A463146204603F5AB732C
:10C7A80009F0E4F90135E9E783F8560102B070BDF4
:10C7B800D0AB010010B5044609F05DFA0349024602
:10C7C800204609F0D3F9002010BD00BFCCA6010017
:10C7D800022907B50BD153680C49009312680C4B1A
:10C7E80009F0E0F96FF0150003B05DF804FB836809
:10C7F800084AD3F87432084913F0020F074B18BFE0
:10C808001A4609F0B3F90020EEE700BFF3AB0100C8
:10C81800DEAB0100DAAB0100FCAB0100CFA20100E6
:10C8280010B583680446D3F874329A0603D50749CD
:10C8380040690AF08CF8A368D3F874329B0603D5D4
:10C84800034960690AF083F8002010BDD192010005
:10C85800D6920100F0B50129044685B00AD0536884
:10C868005E49009312685E4B09F09CF96FF0150061
:10C8780005B0F0BD8368D3F87432990603D55949D9
:10C8880040690AF064F800256FF0F9012046FFF7C7
:10C89800F7FCFA212046FFF709FDA0684FF48072E3
:10C8A800294600F5AB708DF80B500BF0DAFF4E49B6
:10C8B80060690AF04CF8606909F0EBF94FF47A7690
:10C8C8006068012203680DF10B011F6903ABB847CB
:10C8D800039BEBB9013E4FF47A70B6B20BF0BEFB86
:10C8E800002EEDD1A368D3F874329B0603D53F49D7
:10C8F80060690AF02CF85022A36820465A8718224B
:10C90800A3683B491A8709F03FF96FF00700AFE7C2
:10C918009DF80B20A3681B2A53D093F856111B29A6
:10C92800CED1522A4DD15A19002382F85631A66821
:10C9380096F857215B2A2BD1022506F2571010F8DA
:10C94800011F2A463B2905F10105ADB223D1FF2A73
:10C95800C8D002F5AB7216FA82F1002211F8010F65
:10C9680018BBFA2A28BFFA22FA2B28BFFA2386F81E
:10C978005601A1684A87A2681387A368D3F874325E
:10C988009A0603D51949606909F0E1FF00206FE7AD
:10C9980086F85631A6E703EB8303303901EB4301F0
:10C9A800B5F5807F8BB2CAD19CE7013502EB8202D4
:10C9B800ADB2303800EB4200B5F5807F82B2CDD100
:10C9C80090E72B440135ADB2092D83F856217FF647
:10C9D80077AF0022A36883F8562183E7F3AB010001
:10C9E800DEAB0100DC92010047AC0100E0920100DF
:10C9F8000DAC01002DE9F04F07461546894689B070
:10CA080021B110460AF0D8F800285BD1032455E07C
:10CA18005C463CE029460AF5AB700BF092FF0646EF
:10CA2800002854D0FBF7FCFF82B2601C314601326B
:10CA380030440BF0FCFE2246594630460BF0EAFE25
:10CA48004FF020033355BAF8543008F10108013388
:10CA58001C44AAF85440002401994B1C484603AAD8
:10CA68000193FFF799FB0646E8B100222846316892
:10CA78000AF077FA0028EFD1D6F800B0D7F808A066
:10CA8800BBF1000FC4D05846FBF7CAFF84B2BAF80E
:10CA980054302344FF2BBDDD2B46032138460D4A75
:10CAA80009F0E0FC0124B8F1000F07D0B8682A4665
:10CAB80000F1540100F5AB7009F055FA204609B0B1
:10CAC800BDE8F08F4FF0000802244146C5E7022474
:10CAD800E9E700BF09B1010008B5044808F072F998
:10CAE800BDE80840024808F06DB900BF5BB101001D
:10CAF80090B101002DE9F84305460C4600AF002926
:10CB080048D0DFF8B890D9F800305A0742D0D1E9B8
:10CB180000016E468AB06A46A3684FF00508DFF840
:10CB2800A0C0C2E90713C2E905C042F8108F00236C
:10CB38004FF421514846FDF7A5FCD9F80030B54619
:10CB48005B0727D0D4E903018AB06A466369DFF836
:10CB580074C0C2E90713C2E905C042F8108F002368
:10CB680048464FF42151FDF78DFCD9F80030B54601
:10CB780058070FD0E36901214846134A08F0CEFD53
:10CB8800D9F80030590705D0A369012148460F4A52
:10CB980008F0C4FD012D0AD1EFF3058307480268A8
:10CBA800520704D00A4A2946103B08F0B7FD21462F
:10CBB800284605F059F8BD46BDE8F88354C700205B
:10CBC800BEB10100EDB101001CB201002BB20100A1
:10CBD80059B2010030BFFFF7FDBF00BF2DE9F0419A
:10CBE80005460B4EDFF82C80324606EB0807CC1BB7
:10CBF800204609490BF00EFEA01942460021083CC8
:10CC08000BF02FFEC5F8A84007F10800BDE8F08139
:10CC1800000000000800000098920100074A93688D
:10CC280093F90E10002907DB526993421FBF044A8B
:10CC3800536843F080535360704700BF0CDE0020F8
:10CC480000ED00E0F8B5364C064623680D465B0754
:10CC580003D02046334909F0FFFF334B9B6ADF06B8
:10CC68005CD52368580703D030492D4809F0F4FFF4
:10CC780011202D4B9B6A190707D523685A0703D043
:10CC88002B49274809F0E8FF1220274FBB6A9B076A
:10CC980019D52368580703D02649214809F0DCFF35
:10CCA8007B6BBA6A11060DD52268520704D00121A0
:10CCB800214A1B4808F032FD26B11B4A936A23F02B
:10CCC800800393621320184B9B6ADB0707D5236800
:10CCD8005F0703D01949124809F0BEFF1420124B10
:10CCE8009B6A9E0607D52368580703D014490C4849
:10CCF80009F0B2FF15200C4B9A6AD10658BF9A6A00
:10CD08009A6A920642BF5A6A22F400525A629A6A92
:10CD180042F0FF029A6200232B70F8BD1020A8E7AA
:10CD280054C700206CB2010000ED00E082B201009F
:10CD3800B5B20100C8B20100E0B20100F6B20100CC
:10CD480015B3010010B5334C2368580703D02046AB
:10CD5800314909F081FF314B9B6A990157D5236806
:10CD68005A0703D02E492B4809F076FF1E202B4B7B
:10CD78009B6ADB0107D52368580703D02949254852
:10CD880009F06AFF1F20254B9B6AD90207D5236843
:10CD98005A0703D024491F4809F05EFF02201F4BA1
:10CDA8009B6A1B0307D52368580703D01F491948F6
:10CDB80009F052FF2120194B9B6A590307D52368B4
:10CDC8005A0703D01A49134809F046FF2220134B8B
:10CDD8009B6A9B0307D52368590703D015490D485B
:10CDE80009F03AFF23200D4B9B6ADA0307D5236825
:10CDF8005B0703D01049074809F02EFF2420074A93
:10CE0800936A6FEA03436FEA1343936210BD1D20D0
:10CE1800ADE700BF54C7002044B3010000ED00E0B7
:10CE28005CB301006FB3010089B30100B3B3010023
:10CE3800D1B30100F6B3010010B40100F8B5374CC6
:10CE4800064623680D465B0703D02046344909F09F
:10CE580003FF344B9B6ADF0451D52368580703D07E
:10CE680031492E4809F0F8FE17202E4B9B6A190508
:10CE780007D523685A0703D02C49284809F0ECFE47
:10CE88001820284FBB6A9B0519D52368580703D07B
:10CE98002749224809F0E0FEBB6BBA6A11040DD598
:10CEA8002268520704D00121224A1C4808F036FCA7
:10CEB80026B11C4A936A23F4004393621920194B44
:10CEC8009B6A5B0507D523685F0703D01A49134897
:10CED80009F0C2FE1A20134B9A6AD60511D52368A9
:10CEE800590703D015490D4809F0B6FE1B200D4A15
:10CEF800936A43F47F43936200232B70F8BD162096
:10CF0800B3E79B6A9A04F2D523685B0703D00C4900
:10CF1800024809F0A1FE1C20E9E700BF54C7002021
:10CF28003BB4010000ED00E051B40100B5B20100CE
:10CF380062B401007BB4010090B40100ABB40100FD
:10CF480015B301002DE9F0478AB0774B0446D3F8B2
:10CF580004908A461646002500AFC9F3080885F3F1
:10CF68001188BFF36F8F02F07F43B3F17F4F21D158
:10CF7800D3071FD4500603D411070BD401250BE0A7
:10CF88006A4803685A0702D0694909F065FE16F035
:10CF9800040600D0544600250023FB71A8F10303C2
:10CFA800092B00F29B80DFE803F0078D908999999F
:10CFB800999999932C46EFE75C4E33685B0703D049
:10CFC80030465C4909F048FE0023FB71564BDA6A8B
:10CFD800900708D53368590703D05749534809F0D3
:10CFE8003BFE002333E0DA6A002A04DA33685A0782
:10CFF800F7D05249F2E7DB6A5B00F2D5336858078D
:10D0080003D04F49494809F027FE474BA1695A699F
:10D0180042F480725A61BFF34F8FBFF36F8F5A6922
:10D0280031F8021C22F480725A61BFF34F8FBFF3AC
:10D038006F8F4DF6027291422BD13368590705D094
:10D04800236801213F4A394808F068FB2368FA79C8
:10D05800DAB907F1080604F1200C32462068616845
:10D06800083403C264451646F7D17A6A002D56D0B3
:10D07800C2F3080121B96FEA52226FEA42227A62AA
:10D08800184607F10801FFF735FD2837BD46BDE80A
:10D09800F0879A6AD2B222B10120F91DFFF7D2FDBA
:10D0A8000EE09A6A12F47F4F04D00120F91DFFF7B1
:10D0B800C5FE05E09B6AB3F5803F92D3FFF742FEB9
:10D0C8000346C4E70020F91DE8E70020F91DEEE754
:10D0D800164803685A0784D01B4980E71348036839
:10D0E8005B073FF47EAF194A6E4619F4F87F8AB0A1
:10D0F800174B18BF13466A461649C2E90513A8F12B
:10D108001003D3614FF400731384134B42F8103F9C
:10D1180000234FF41151FDF7B5F9B54661E722F444
:10D12800FF7222F00102AAE700ED00E054C70020D8
:10D13800F1B4010014B501002BB501004CB5010094
:10D148005AB5010079B5010095B50100D8B40100C0
:10D15800C3B40100B9B5010004000001064B5A69C7
:10D1680042F010025A615A6942F480625A615A695F
:10D1780022F008025A61704700ED00E0EFF30880E2
:10D18800EFF3098101B57246FFF7DCFE01BD00BF70
:10D19800002080F31488BFF36F8F002080F30A8883
:10D1A80080F30B88124880F308880AF01DFC0020E1
:10D1B80010490860BFF34F8F00F032F8202080F349
:10D1C80011880D484FF0AA014FF400620AF076FF6B
:10D1D80009484FF40061401880F30988EFF3148080
:10D1E8000221084380F31488BFF36F8F00F0E6F83C
:10D1F800F8F6002094ED00E0B8E900200023184676
:10D208000649D1F89020C2F30722934200DB704709
:10D21800C1F89830C1F8A0000133F6E700ED00E04E
:10D2280010B572B6002484F31388FFF7E7FF23468E
:10D238004FF0FF300C4A03F120010133102B42F864
:10D248002100F8D100234FF0FF30074A03F16001B5
:10D258000133102B42F82100F8D162B6BFF34F8F8B
:10D26800BFF36F8F10BD00BF00E100E0084B9B6863
:10D2780083420BD1EFF3058343B1064B5A6842F062
:10D2880080525A605A6A22F400425A6205F032BB50
:10D298000CDE002000ED00E019498A6882F8B5E04C
:10D2A8004FF030001044EFF3098C80E8F01F202085
:10D2B80080F31288BFF36F8F124F4FF000664A69F0
:10D2C8008A603E604FF0A804141920680E4C206054
:10D2D80092F9B5E0D2F8AC000023C2F8AC3080F384
:10D2E800118802F1300090E8F01F8CF3098802F1F0
:10D2F800000004B509F0BAFCBDE80440704700001E
:10D308000CDE002004ED00E024D700201EF0040FFE
:10D318000CBFEFF30880EFF30980816911F8021C54
:10D328000229FFD001B5724609F08BFC01BD00BF90
:10D3380040B2002807DB01234109034A00F01F001F
:10D34800834042F82130704700E100E040B20028F5
:10D358000CDB01220649430900F01F0082402033FC
:10D3680041F82320BFF34F8FBFF36F8F704700BF83
:10D3780000E100E0054B420953F82220012300F0A8
:10D388001F0003FA00F01040704700BF00E100E002
:10D3980040B2002801F10101ACBF00F16040064B2A
:10D3A8004FEA4111C9B2ABBF00F5614000F00F0070
:10D3B80080F800131954704714ED00E00B4A08B5C3
:10D3C8000B4B22F07F029A60BFF34F8FBFF36F8F32
:10D3D800D3F8882022F47002C3F8882004F044FDB2
:10D3E80005F0EEFB00F04EF804F082FD008000002E
:10D3F80000ED00E042F8203C009B0D4942F81C3C3F
:10D40800019B21F0010142F8183C029B42F8081CDC
:10D4180042F8143C4FF0807342F8043C0023C0F8F3
:10D42800AC304FF43C43203A0265C0F8B430704742
:10D43800259B000000B50C4B15469860D0F8A82035
:10D448000A4B0E461A60D0F8983083F30B882C46A6
:10D4580086F309880020064B9847204600210022C1
:10D468000023044C204700BF0CDE002024D70020F6
:10D478007F6C0100259B00001022014B1A61704748
:10D4880000ED00E0002320210348C2180133412B9E
:10D4980082F80013F9D1704700E100E008B5EFF316
:10D4A8000583064A103B02EBC30152F83300496872
:10D4B8008847BDE80840FFF7B1BB00BFFC8D0100FD
:10D4C8001FB5094C094A23460121094800F01CF9F7
:10D4D80000230393074B0121E41A01A80193029446
:10D4E80000F01CF904B010BD0000042080C5002025
:10D4F800D0990100A8C7002010B50C7A0B6804F079
:10D508001F0223F01F031A43CB68640923F01F038B
:10D51800054943EA440343F00103C1F89800C1F800
:10D528009C20C1F8A03010BD00ED00E010B50C4BF8
:10D538000446D3F89030C3F30723013B98420BD934
:10D54800084803685B0704D001212346064A08F00F
:10D55800E5F86FF0150010BDFFF7CEFFFBE700BF41
:10D5680000ED00E04CC70020D0B501002DE9F04FD8
:10D578008946144606464FF00008544D85B0C84504
:10D588002EDAD6F804A0BAF1000F4BD0BAF11F0F6B
:10D598001BD91AF01F0F18D1D6F800B01BF01F0FB7
:10D5A80013D1584609F08AFB07460AEB0B000138ED
:10D5B80009F084FB874217D06FF0150744480368C9
:10D5C8005B070BD0434A3B4605E0414803685A07CE
:10D5D80004D04346404A012108F0A0F86FF0150432
:10D5E800204605B0BDE8F08F17F1160FE6D0BC4213
:10D5F800E4DDC5F89870D5F89C10C5F89870D5F892
:10D60800A03021F01F0143F01F0BD6E900321A4465
:10D61800994202F1FF3A1DD1D34507D13146F8B2FC
:10D6280009F055FB08F101080C36A8E73146C5F8A2
:10D638009870D5F89C3022F01F0203F01F031343A3
:10D64800C5F89C30E0B209F042FB10F1160FC5D0C6
:10D65800441CE7E7C5F89870D5F8A020013B23F0F3
:10D668001F0302F01F021343D3453146E0B2C5F849
:10D67800A030E8D009F02BFB10F1160FAED0C5F89A
:10D688009870D5F89C209DF808300BF1FF3B62F3A9
:10D6980004038DF80830D5F8A0309DF808205B0801
:10D6A80063F347128DF80820D6E90032134400933B
:10D6B80023F01F035B44A3EB0A03013023F01F038D
:10D6C8006946C0B20393FFF731FFBEE700ED00E003
:10D6D8004CC7002019B60100F6B501000522044B1D
:10D6E800C3F89420BFF34F8FBFF36F8F704700BF0D
:10D6F80000ED00E0BFF35F8F0022024BC3F89420D7
:10D70800704700BF00ED00E010B5034C2278FFF72A
:10D718002DFF207010BD00BF71DE00202DE9F74FEE
:10D72800294D8A4606464FF00008AB46274FD0459C
:10D738001BDAD6F80490B9F1000F3FD031680846DB
:10D74800019109F0BBFA0199044609EB010001387F
:10D7580009F0B4FA84424FF014021D4B08D002FBC2
:10D7680008F36FF015024BF8032003B0BDE8F08F03
:10D7780014F1160F2C60F8D01978A142F5DD02FBE0
:10D7880008B0C7F89840C7F89840D7F89C4000F10F
:10D798000801007B64F304000871D7F8A0000C7935
:10D7A800400860F347140C71D7F89C1021F01F0152
:10D7B8006960D7F8A01021F01F01296108F101085C
:10D7C80014350C36B3E700BF28D7002000ED00E081
:10D7D80071DE0020F0B54149414CD1F89030256800
:10D7E800C3F307239D4287B075D80020FFF782FF57
:10D7F8003C4BC1F8C030854216D13B4C01A825707E
:10D80800FDF7F8F800250646384FAE4213D1002040
:10D8180023783249D1F89020C2F30722934254DB8F
:10D82800FFF75CFF00202FE0616801EB0011FFF7B4
:10D8380063FE0130DFE70199280101EB0513DA687F
:10D848003A40B2F5001F21D0B2F5800F2BD0B2F5C7
:10D85800801F38D15A689B680958013B22F01F0085
:10D8680003440120844623F01F0340EA4C10CDE90D
:10D8780002218DF8100002A920780593FFF756FEC3
:10D8880000281DDA6FF0150007B0F0BD5A689B68D4
:10D898000958013B22F01F0003444FF0020C0120FD
:10D8A80023F01F03E1E75A689B680958013B22F0FF
:10D8B8001F0003444FF0000C062023F01F03D4E799
:10D8C80023780133237001359FE7C1F89830C1F8F8
:10D8D800A00001339EE74FF0FF30D5E700ED00E0F0
:10D8E800DC990100AAFF440071DE00200000F0FF6F
:10D8F800F0B587B007460E46144600211022684648
:10D908001D460AF0AEFF02238DF80230054B2A4669
:10D9180021466846CDE90476019305F0B1FE07B0CB
:10D92800F0BD00BF096D010008B5024B1B689847A0
:10D93800002008BD3CD70020034B044A18609378A8
:10D9480043F00203937070473CD70020C8C50020FD
:10D9580008B50649064821F00701C1F1005202F551
:10D96800802207F07FF9002008BD00BFFFFE0020DD
:10D9780040D7002008B500F0B7F801220023094974
:10D98800C0E9002241610849C0E902330A60074939
:10D9980003610A60064A1360064A1360064A136068
:10D9A80008BD00BF5DA40100F4C50020F0C500203B
:10D9B80054D7002050D700204CD700202DE9F04143
:10D9C80007460E46154600F08FF8C36804461BB993
:10D9D80043691A78002A41D10023E3606368BB4297
:10D9E80056F8232008DB324B6361204600F062F8CA
:10D9F8004FF0FF30BDE8F081511C616192F8008062
:10DA0800B8F12D0FEFD1911C616151782D29A160DA
:10DA180004D192786AB901336360E4E749B9244BC9
:10DA28004146284663610AF034FF0028DDD0C4F877
:10DA38000880D4F80880284641460AF02AFFB8F141
:10DA48003A0F636900D070B91B7813B96368013362
:10DA58006360204600F02EF83F20CBE75A1C426155
:10DA68001B788360E5E742783A2A0BD000222261CE
:10DA78001B7813B9636801336360204600F01AF815
:10DA8800A068B7E718786268094928B9013297424F
:10DA9800626004DD56F82230C4E90431EAE76161C6
:10DAA8002D7820463A2DD5D100F004F82846A1E774
:10DAB8005DA401000268074B1A604268064B1A60B1
:10DAC8008268064B1A60C268054B1A600269054BEA
:10DAD8001A607047F4C50020F0C5002054D7002014
