:108000006808012051D30000FB6D01003DD3000042
:108010003DD300003DD300003DD300003DD3000020
:10802000000000000000000000000000CDD40000AF
:108030003DD300000000000059D400003DD30000F3
:108040005DD600005DD600005DD600005DD6000064
:108050005DD600005DD600005DD600005DD6000054
:108060005DD600005DD600005DD600005DD6000044
:108070005DD600005DD600005DD600005DD6000034
:108080005DD600005DD600005DD600005DD6000024
:108090005DD600005DD600005DD600005DD6000014
:1080A0005DD600005DD600005DD600005DD6000004
:1080B0005DD600005DD600005DD600005DD60000F4
:1080C0005DD600005DD600005DD600005DD60000E4
:1080D0005DD600005DD600005DD600005DD60000D4
:1080E0005DD600005DD600005DD600005DD60000C4
:1080F0005DD600005DD600005DD600005DD60000B4
:108100005DD600005DD600005DD600005DD60000A3
:108110005DD600005DD600005DD600005DD6000093
:108120005DD600005DD600005DD600005DD6000083
:108130005DD600005DD600005DD600005DD6000073
:048140005DD6000008
:108148004FF0FF0C1CEAD0521EBF1CEAD15392EA32
:108158000C0F93EA0C0F6FD01A4480EA010C40020E
:1081680018BF5FEA41211ED04FF0006343EA501068
:1081780043EA5111A0FB01310CF00040B1F5000FAA
:108188003EBF490041EAD3715B0040EA010062F159
:108198007F02FD2A1DD8B3F1004F40EBC25008BF43
:1081A80020F00100704790F0000F0CF0004C08BF61
:1081B80049024CEA502040EA51207F3AC2BFD2F12E
:1081C800FF0340EAC250704740F400004FF000033C
:1081D800013A5DDC12F1190FDCBF00F00040704776
:1081E800C2F10002410021FA02F1C2F1200200FAB4
:1081F80002FC5FEA310040F1000053EA4C0308BF7B
:1082080020EADC70704792F0000F00F0004C02BFCB
:10821800400010F4000F013AF9D040EA0C0093F046
:10822800000F01F0004C02BF490011F4000F013BA0
:10823800F9D041EA0C018FE70CEAD15392EA0C0F0E
:1082480018BF93EA0C0F0AD030F0004C18BF31F079
:10825800004CD8D180EA010000F00040704790F04F
:10826800000F17BF90F0004F084691F0000F91F0F3
:10827800004F14D092EA0C0F01D142020FD193EAB9
:108288000C0F03D14B0218BF084608D180EA010041
:1082980000F0004040F0FE4040F40000704740F01D
:1082A800FE4040F44000704781F0004102E000BF0A
:1082B80083F0004330B54FEA41044FEA430594EA9E
:1082C800050F08BF90EA020F1FBF54EA000C55EAD9
:1082D800020C7FEA645C7FEA655C00F0E2804FEAAA
:1082E8005454D4EB5555B8BF6D420CDD2C4480EA8C
:1082F800020281EA030382EA000083EA010180EABC
:10830800020281EA0303362D88BF30BD11F0004F09
:108318004FEA01314FF4801C4CEA113102D040423F
:1083280061EB410113F0004F4FEA03334CEA13337A
:1083380002D0524263EB430394EA050F00F0A78092
:10834800A4F10104D5F1200E0DDB02FA0EFC22FA8D
:1083580005F2801841F1000103FA0EF2801843FA81
:1083680005F359410EE0A5F120050EF1200E012A72
:1083780003FA0EFC28BF4CF0020C43FA05F3C018B0
:1083880051EBE37101F0004507D54FF0000EDCF129
:10839800000C7EEB00006EEB0101B1F5801F1BD3D2
:1083A800B1F5001F0CD349085FEA30004FEA3C0CD6
:1083B80004F101044FEA445212F5800F80F09A80CC
:1083C800BCF1004F08BF5FEA500C50F1000041EBD0
:1083D800045141EA050130BD5FEA4C0C404141EBD4
:1083E8000101013C28BFB1F5801FE9D291F0000FCF
:1083F80004BF01460020B1FA81F308BF2033A3F17E
:108408000B03B3F120020CDA0C3208DD02F1140C74
:10841800C2F10C0201FA0CF021FA02F10CE002F1AF
:108428001402D8BFC2F1200C01FA02F120FA0CFCA8
:10843800DCBF41EA0C019040E41AA2BF01EB0451F1
:10844800294330BD6FEA04041F3C1CDA0C340EDCEF
:1084580004F11404C4F1200220FA04F001FA02F332
:1084680040EA030021FA04F345EA030130BDC4F1F0
:108478000C04C4F1200220FA02F001FA04F340EAE5
:108488000300294630BD21FA04F0294630BD94F096
:10849800000F83F4801306BF81F480110134013D7D
:1084A8004EE77FEA645C18BF7FEA655C29D094EAEE
:1084B800050F08BF90EA020F05D054EA000C04BF6C
:1084C8001946104630BD91EA030F1EBF0021002057
:1084D80030BD5FEA545C05D14000494128BF41F0F6
:1084E800004130BD14F580043CBF01F5801130BD5A
:1084F80001F0004545F0FE4141F470014FF00000E5
:1085080030BD7FEA645C1ABF194610467FEA655C95
:108518001CBF0B46024650EA013406BF52EA033537
:1085280091EA030F41F4002130BD00BF90F0000F25
:1085380004BF0021704730B54FF4806404F1320461
:108548004FF000054FF0000150E700BF90F0000F1A
:1085580004BF0021704730B54FF4806404F1320441
:1085680010F0004548BF40424FF000013EE700BF11
:1085780042004FEAE2014FEA31014FEA02701FBFA1
:1085880012F07F4393F07F4F81F06051704732F0D3
:108598007F4208BF704793F07F4F04BF41F400212A
:1085A800704730B54FF4607401F0004521F0004188
:1085B8001CE700BF50EA010208BF704730B54FF012
:1085C80000050AE050EA010208BF704730B511F013
:1085D800004502D5404261EB41014FF4806404F14B
:1085E80032045FEA915C3FF4D8AE4FF003025FEAD1
:1085F800DC0C18BF03325FEADC0C18BF033202EB55
:10860800DC02C2F1200300FA03FC20FA02F001FAAE
:1086180003FE40EA0E0021FA02F11444BDE600BF51
:1086280080F0004002E000BF81F0004142001FBF1F
:108638005FEA410392EA030F7FEA226C7FEA236C28
:108648006AD04FEA1262D2EB1363C1BFD21841401D
:1086580048404140B8BF5B42192B88BF704710F0B3
:10866800004F40F4000020F07F4018BF404211F056
:10867800004F41F4000121F07F4118BF494292EABE
:10868800030F3FD0A2F1010241FA03FC10EB0C00EA
:10869800C3F1200301FA03F100F0004302D5494277
:1086A80060EB4000B0F5000F13D3B0F1807F06D324
:1086B80040084FEA310102F10102FE2A51D2B1F11C
:1086C800004F40EBC25008BF20F0010040EA030011
:1086D8007047490040EB0000013A28BFB0F5000F91
:1086E800EDD2B0FA80FCACF1080CB2EB0C0200FA47
:1086F8000CF0AABF00EBC25052421843BCBFD04096
:108708001843704792F0000F81F4000106BF80F40F
:1087180000000132013BB5E74FEA41037FEA226CD2
:1087280018BF7FEA236C21D092EA030F04D092F09D
:10873800000F08BF0846704790EA010F1CBF0020D1
:10874800704712F07F4F04D1400028BF40F000402E
:10875800704712F100723CBF00F50000704700F04E
:10876800004343F0FE4040F4000070477FEA226275
:1087780016BF08467FEA23630146420206BF5FEA46
:10878800412390EA010F40F4800070474FF0000346
:1087980004E000BF10F0004348BF40425FEA000C0D
:1087A80008BF704743F0964301464FF000001CE0B5
:1087B80050EA010208BF70474FF000030AE000BF0B
:1087C80050EA010208BF704711F0004302D5404249
:1087D80061EB41015FEA010C02BF844601460020BB
:1087E80043F0B64308BFA3F18053A3F50003BCFAD6
:1087F8008CF2083AA3EBC25310DB01FA02FC634483
:1088080000FA02FCC2F12002BCF1004F20FA02F289
:1088180043EB020008BF20F00100704702F120027C
:1088280001FA02FCC2F1200250EA4C0021FA02F2DD
:1088380043EB020008BF20EADC7070474FF0FF3CB2
:1088480006E000BF4FF0010C02E000BF4FF0010C42
:108858004DF804CD4FEA40024FEA41037FEA226C0B
:1088680018BF7FEA236C11D001B052EA530C18BF2D
:1088780090EA010F58BFB2EB030088BFC81738BF92
:108888006FEAE17018BF40F0010070477FEA226C80
:1088980002D15FEA402C05D17FEA236CE4D15FEA7C
:1088A800412CE1D05DF8040B704700BF84460846B0
:1088B8006146FFE70FB5FFF7C9FF002848BF10F171
:1088C800000F0FBD4DF808EDFFF7F4FF0CBF0120B6
:1088D80000205DF808FB00BF4DF808EDFFF7EAFF40
:1088E80034BF012000205DF808FB00BF4DF808EDFB
:1088F800FFF7E0FF94BF012000205DF808FB00BFF0
:108908004DF808EDFFF7D2FF94BF012000205DF875
:1089180008FB00BF4DF808EDFFF7C8FF34BF012082
:1089280000205DF808FB00BF7BB972B90029BEBF03
:1089380000204FF0004106E008BF00281CBF6FF080
:1089480000414FF0FF3000F057B8ADF1080C6DE969
:1089580004CE002909DB002B1ADB00F069F8DDF8EA
:1089680004E0DDE9022304B07047404261EB4101B5
:10897800002B1BDB00F05CF8DDF804E0DDE90223E6
:1089880004B0404261EB4101524263EB430370473C
:10899800524263EB430300F04BF8DDF804E0DDE9F5
:1089A800022304B0404261EB41017047524263EB3D
:1089B800430300F03DF8DDF804E0DDE9022304B0EC
:1089C800524263EB4303704753B94AB9002908BFC1
:1089D80000281CBF4FF0FF314FF0FF3000F00CB8FB
:1089E800ADF1080C6DE904CE00F022F8DDF804E0E2
:1089F800DDE9022304B07047704700BF10F8012B6F
:108A080011F8013B012A28BF9A42F7D0D01A7047C3
:108A1800034611F8012B03F8012B002AF9D17047FE
:108A2800034613F8012B002AFBD1181A01387047A6
:108A38002DE9F04786468C460846089E154674463A
:108A48001946002B40F0C1808542B2FA82F245D91E
:108A58004AB1C2F1200300FA02FC954094402EFA74
:108A680003F343EA0C0C4FEA154EA8B2230CBCFBE7
:108A7800FEF80EFB18CC08FB00F943EA0C439945B5
:108A880028D9EB1808F1FF3704D2994502D9A8F183
:108A980002072B44A3EB0903A4B2B3FBFEFC0EFBB5
:108AA8001C330CFB00F044EA0344A04214D92C19EF
:108AB8000CF1FF3304D2A04202D9ACF102032C44DA
:108AC800241A43EA07401EB1D4400023346073607F
:108AD800BDE8F0874746DDE76346F1E792BB431BF5
:108AE80001214FEA154EAFB2200CB3FBFEFC0EFB82
:108AF8001C330CFB07F840EA0343984561D9EB188F
:108B08000CF1FF3004D2984502D9ACF102002B4495
:108B1800A3EB0803A4B2B3FBFEFC0EFB1C330CFB57
:108B280007F744EA0344A7424DD92C190CF1FF3347
:108B380004D2A74202D9ACF102032C44E41B43EA55
:108B48000040C0E7C2F120039540944020FA03F1A9
:108B58002EFA03F34FEA154E9040AFB20343B1FB30
:108B6800FEFC0EFB1C10190C0CFB07F841EA004137
:108B7800884522D969180CF1FF3004D2884502D9FA
:108B8800ACF102002944A1EB08019BB2B1FBFEFC49
:108B98000EFB1C110CFB07F743EA01439F420ED959
:108BA800EB180CF1FF3104D29F4202D9ACF102015B
:108BB8002B44DB1B41EA004193E76046E3E761464B
:108BC800F7E76046A4E76346B8E7834206D916B9D3
:108BD800002108467CE7C6E900E0F9E7B3FA83F725
:108BE8008FB9834201D3724508D8BEEB020460EB0B
:108BF800030301209C461EB9002169E73846FAE7BD
:108C0800C6E9004CF8E7C7F1200CBB400EFA07F59F
:108C180022FA0CF42EFA0CF1BA401C4320FA0CF399
:108C2800B8404FEA144901431FFA84FEB3FBF9F830
:108C380009FB18300B0C08FB0EFA43EA00439A456F
:108C480040D9E31808F1FF3004D29A4502D9A8F1B7
:108C580002002344A3EB0A0389B2B3FBF9F809FB2A
:108C6800183308FB0EFE41EA03418E452CD96118E2
:108C780008F1FF3304D28E4502D9A8F1020321443A
:108C880043EA0040A1EB0E01A0FB02984145CE4605
:108C9800434602D306D14D4504D20138B9EB020E42
:108CA80068EB0403002EA7D0B5EB0E0261EB0301BD
:108CB80001FA0CFC22FA07F3F9404CEA0303C6E96F
:108CC800003199E74046C5E74346D9E70000000070
:108CD8002DE9F04706460F46904688B00FF09FFCF6
:108CE8004FF47A73A0FB034503FB0155E40B012FF6
:108CF80044EA45444FEAD53507D122462B4630464B
:108D080027490DF007F8002012E0D8F8047025482C
:108D18003946FFF773FE70B139462348FFF76EFEF8
:108D280048B130463A4621490DF010F86FF004007A
:108D380008B0BDE8F087204617A3D3E900232946E9
:108D4800FFF7F2FD05460C4610461946184A00235F
:108D5800FFF7EAFD80460F46104619464EF6602298
:108D68000023FFF7E1FD82468946104619464FF475
:108D78007A720023FFF7D8FDCDE902A9CDE90623D1
:108D8800CDE904012A4623463046CDE90087094942
:108D98000CF0C0FFB7E700BF005C2605000000002C
:108DA8005AA501006BA501006EA5010077A5010079
:108DB80080EE36008FA5010010B403460A4603482A
:108DC80081680C691946234610BC18478C8F01002E
:108DD80010B588B00DF10703029301230393002314
:108DE8008DF810300723CDE905128DF807008DF8AE
:108DF8001C3007489DF81C30826843F002038DF848
:108E08001C3094682823022202A9A04708B010BD8C
:108E1800748F0100074B1A691268520748BF80F027
:108E2800010020B19B68DB680421024818479B6851
:108E38001B69F9E7448F010010B5044609480FF093
:108E4800E6F948B9084803685B070AD0BDE810404E
:108E58000121064A0BF06FBD2046BDE81040FFF720
:108E6800D9BF10BD448F010024C70020469F0100D0
:108E7800F8B5844616481646036800AF03F00703A2
:108E8800022B22D94FF47A744B680A6893FBF4F3E7
:108E98006D468CB004FB02336A460E49C2E9051CD4
:108EA80093FBF4F104FB1133002BB8BF5B42C2E91A
:108EB8000836094BD1619362084B42F8103F0023F2
:108EC8004FF4635101F0BAFBAD46BD46F8BD00BF93
:108ED80024C70020669F0100000203050600000267
:108EE800BFB5304C236803F00703022B04D90321D4
:108EF80020462D4A0BF01FFD2C4D2D4E2D4F2B7863
:108F08002BB140F6CD4000210BF019FDF7E7B3680F
:108F18003F21DB6826489847034640B1226852073C
:108F280026D0254A01211F480BF007FD20E069469D
:108F38000D20FFF741FF0346E8B969461F4A20485C
:108F4800FFF796FF102002A9FFF736FF0346D8B9AE
:108F58001C4A1D4802A9FFF78BFF0E2004A9FFF742
:108F68002BFF0346C8B9194A194804A9FFF780FF1F
:108F78004FF40040C7E722685007E3D00121154AA3
:108F880008480BF0DAFCDDE722685107E5D001213B
:108F9800114A04480BF0D1FCDFE722685207E7D0FA
:108FA8003A46BFE724C70020769F0100BCDF0020B7
:108FB8008C8F010013A001008A9F0100B29F01005D
:108FC800B79F0100E09F0100E39F010006A0010098
:108FD8000AA00100C39F0100EC9F01001FB50223F6
:108FE8008DF800008DF80110CDF804D002938DF8AB
:108FF8000C3007489DF80C30826843F002038DF866
:109008000C3094682823012201A9A04704B010BDA0
:10901800748F01002DE98048A54E8BB002AFA54B97
:109028001B78012B05D040F6CD4000210BF087FCC2
:10903800F5E7336803F00703022B04D90321304610
:109048009D4A0BF078FC4FF42F700BF07AFC00204F
:10905800012207F11701F875FFF7BAFE10B9FB7D79
:10906800A02B0DD033685C0707D0FB7D012100934E
:10907800924A034630460CF02FFC4FF40040D4E7E8
:10908800326802F00702022A04D9032130468C4ACA
:109098000BF053FC00213D20FFF7A0FF044648B128
:1090A80033685807BBD0234601213046854A0BF068
:1090B80044FCB4E714200BF044FC21463E20FFF7A3
:1090C8008DFF034630B132685107A8D07E4A01218E
:1090D8007748ECE70A200BF034FC0C213D20FFF721
:1090E8007DFF044628B133685A0798D00346774A6B
:1090F800EDE732200BF025FC002325464FF0010850
:109108003B607B60FC606B4B1B78012B5FFA83F93B
:109118000AD0336803F00703022B80D903216C4A75
:1091280063480BF008FC7AE706221A2007F11801B9
:10913800FFF74EFE824660B133685B0705D00346F1
:109148004946644A5A480BF0F8FB64200BF0F9FBD7
:10915800D9E7B7F91A00FFF71DFB4FF07651FEF774
:10916800EFFFB860B7F91C00FFF714FB4FF076511A
:10917800FEF7E6FF8346B8F1000F2FD0336803F0FF
:109188000703022B24D9E9468AB08AB00DF10808F2
:10919800514BB868C8F81430FFF7EAF900220023E9
:1091A800FFF788F8C8E906015846FFF7E1F90022F9
:1091B8000023FFF77FF842460623C8E9080142F872
:1091C800103F4FF443515346394801F037FACD4622
:1091D800BB68D146C7F800B07B6022E07968B86800
:1091E800FFF722FA3968B8605846FFF71DFABB68DE
:1091F800824620F0004B394923F00040FFF78AFBF4
:10920800B8B958463549FFF785FB00286AD1444666
:109218004546336803F00703022B00F2B3804FF092
:10922800000964200BF08DFB4FF00008C7F80C9084
:1092380069E70021B868FFF74FFB78B9FF2D23D104
:1092480058462649FFF766FB00286BD14446FB6861
:10925800022B40F09F804FF00209E2E7FF2D23D157
:1092680058461E49FFF756FB002862D14446FB6862
:10927800012BD6D0336813F0060FD2D00221184A3A
:109288000B480BF058FBCCE7C84601355846134944
:10929800EDB2FFF73FFB00284ED1092D0446B8D99F
:1092A800B8F1FF3FD3D1E2E74FF0FF38EDE700BF59
:1092B80024C70020BCDF00202DA001004BA0010026
:1092C80073A0010088A00100ABA00100CBA00100A1
:1092D800F3A10100ECA0010008A101000000704109
:1092E8003CA1010000215046FFF7F6FA60B1FF2CBF
:1092F8004ED00134E4B2092C45468AD9FB68032BC9
:1093080053D14FF003098CE7FF2C39D00134E4B274
:10931800092C45467FF67DAFFB68042B4FD14FF0F3
:1093280004097EE7C846FF2C01D00134E4B2FF25CA
:10933800B6E74FF0FF38F6E700215046FFF7CCFAC2
:1093480030B9FF2C0BD1092DE6D9FF2DE4D1A7E7C1
:10935800FF2C0ED1092DD1D9FF2DCFD1A0E70123A4
:109368000134092DE4B207D9A54299D20133D3D1EA
:10937800C4E74FF0FF33F3E7092C7FF64AAFF5E770
:109388004546C9E70321134A13480BF0D4FA46E7C8
:109398004546B3E7336813F0060F3FF45CAF02218C
:1093A8000E4A0D480BF0C7FA55E7336813F0060F5D
:1093B800A7D002210A4A08480BF0BDFAA1E7336892
:1093C80013F0060FABD00221064A03480BF0B3FA9C
:1093D800A5E700BF35A1010024C7002061A1010055
:1093E80087A10100BDA1010008B508480EF00FFFD4
:1093F80048B9074803685B0707D0BDE80840012162
:10940800044A0BF098BAFFF705FE08BD748F0100F7
:1094180024C700201EA2010008B508480EF0F7FE78
:1094280048B9074803685B0707D0BDE80840012131
:10943800044A0BF080BAFFF753FD08BD8C8F01007A
:1094480024C700203BA201002DE9F041364C2368D7
:1094580003F00703022B04D903212046334A0BF0FB
:109468006AFA334D28460EF0D2FE48B923685907E8
:1094780057D0BDE8F04101212E4A2B480BF05BBACA
:109488002A69A9681368284643F0040313600B6827
:10949800294A02219847034648B12268520740D01A
:1094A800BDE8F0410121254A1F480BF046BA244D7A
:1094B8002870FFF7C1FC236803F00703022B04D9C7
:1094C8000321204A18480BF036FA4FF001081E4FC6
:1094D800154E00202870FFF7AFFC236803F0070340
:1094E800022B04D93A46032130460BF024FA4FF4F4
:1094F800203000210BF023FA0120FFF79DFC2368A0
:1095080085F8008003F00703022B04D903213046B5
:109518000E4A0BF010FA4FF4A02000210BF00FFABE
:10952800D7E7BDE8F08100BF24C7002053A201009F
:10953800448F0100469F010001000A007DA201003E
:10954800BCDF0020A2A20100BAA20100D8A201003B
:109558002DE9F04F91B0009302F004030293C2F397
:10956800C2030133840705460E46DDF8688003927E
:10957800059340F0BB81041D30B1072909D86FF06D
:109588001B0011B0BDE8F08F01F007063444C6F1A6
:109598000806009B4FF000094FF0040A591E4FF0CF
:1095A800FF334F460193CB465346CDF810900DB18B
:1095B800009A22600598002800F3E8809848009AED
:1095C800824203D397488242C0F0E080039AA4EB1A
:1095D800050E92074FEA9E0000F103810F2F00F25B
:1095E800B180002D00F0058107F140020DEB020C5F
:1095F800019A0CF8200C0CF8102C049801300490F7
:10960800E7E07A285DD84B280ED8472859D829286A
:109618002DD8252852D054D820287AD02338D0F1F4
:10962800000B4BEB000B74E04C382E2849D8DFE8D0
:1096380000F07048484848484848484848484B4817
:109648004848484848484859484B4B595959704B1D
:109658006D487048184B184848827F4B48484B481B
:109668007F0000204FF0000B4FF0040A38E0012281
:109678002A38C0B202FA00F010EA0E0F49D110F0F1
:10968800625C2FD110EA020B43D06046013C54447F
:10969800B4FBFAF40AFB04F4002D61D0A3EB050C2B
:1096A800A444B4453FF66BAF002868D1042B47D1DA
:1096B80058F8043B2360042304342AE0019A013A51
:1096C80001924FF0000B24E011F8010C6C2834D102
:1096D800002011F8023C83466C2BC5D14FF0080AD4
:1096E8005346D3E708F1070828F00708073424F0A1
:1096F8000704F8E802AB35B106982044B0423FF6BB
:109708003EAFC4E900AB4FF0000B08344FF0080A35
:10971800534611F8010F002878D0BBF1000F7FF4F1
:1097280070AF2528F5D14FF0010B019B0133019350
:109738004FF0040AECE7584694E700208346A5E773
:10974800082B02D06FF015001BE708F1070828F076
:109758000708F8E80223C4E9002308230834D8E7F7
:1097680068B9042B02D108F10408A4E7082BE9D151
:1097780008F1070828F0070808F10808EDE7059A36
:10978800013A059258F8042B009210E7039A9007C3
:1097980020D54FF0010CA4EB050E4FEA9E00BEF554
:1097A800007FCFD20F2FCDD8F5B107F140020DEBD6
:1097B800020E019AC0B20EF8200C0EF8102CBCF163
:1097C800000F3FF41AAF60F07F000EF8200C09F18B
:1097D80001090137C5F108024FF6DA7E0434069212
:1097E80097E74FF0000CDAE7BCF1000F01D0013623
:1097F800EFE7029802360028EBD10098CDE9063150
:10980800FFF70EF9DDE906310644E2E7631BB3F51D
:10981800806F97D245B9A6F10804E018B1E600BFF9
:10982800A48E01001CC30100029A9B0828602B70BB
:109838009DF81030C2B1EB7085F80290B9F1000FB5
:1098480005D0002208A8C5F1010C97420ED14FF0AF
:10985800000AC5F101030DF1200801930DF1300B49
:10986800574512D1601B8CE66B70E5E710F8013B99
:10987800190608D50CEB040EB64503F07F033FF636
:109888007EAE04F8013B0132DFE7B9F1000F03D0E7
:1098980098F90020002A17DB029BD3B11AF80B2095
:1098A80004F8012B0022019B18191044B0423FF61E
:1098B80066AE98F80000009904F8010B2046039260
:1098C8000FF07CF8039A14440AF1010A08F1010820
:1098D800C6E798F8002055F822300093029B0098BC
:1098E80045F82230FFF79CF8421CDCE76FF00D00CA
:1098F80047E600BF2DE9F04F97B000AFD7F880B02A
:109908003B62CBF3C0030446894690F802A0FA6292
:10991800BB6141B9457800780AEB800020444D4589
:1099280017D8A0EB0409E378FB61BAF1000F02D065
:109938001BF0010F16D1FB6953BBFB6A1BB14946EB
:1099480020463A6A98474D4628465C37BD46BDE8EA
:10995800F08F461C3046FFF763F80130304409F1B8
:109968000109DCE7626823787A62FA6A990079610A
:1099780004EB8301002A40F005810E464FF00008F1
:109988004D4601EB0A094E4550D101EB0A0610E09D
:109998001BF0020FD1D023789A007A61626804EB39
:1099A80083017A62FA6A002A7BD14D46904601EB20
:1099B8000A061BF0050F0CBF02230123FB62FB699B
:1099C80006EB430A0BF00203BB625645BCD016F8FF
:1099D800021B16F8013C54F823909B4B994502D37F
:1099E8009A4B99453AD3BB69002B44D0786A0BF05F
:1099F80096FA00283FD09648036813F0060F13D054
:109A0800E9468AB06A46934B53617B6AC2E90631DC
:109A18004FF400731384904B42F8103F00234FF427
:109A2800125100F00BFECD46023DCEE716F8013B81
:109A3800F96254F82300FEF7F3FFD7F88430F96A87
:109A480001304BB1D7F8883098453EBFD7F88430FD
:109A580023F8180008F10108054494E7BB6923B10D
:109A6800786A0BF05CFA0028C5D11BF0010F05D10C
:109A7800FB6AED1AA9E7BB6A002BA6D04846FEF799
:109A8800CFFFD7F8843053B1D7F8883098453FBF17
:109A9800D7F88420431C22F8183008F1010805443F
:109AA80093E7BAF1000F73D01BF0040673D0D046C9
:109AB800002607F1480052463B61B9620EF07EFF6E
:109AC800B96A3B6901EB0A02BA62FA69F96952009C
:109AD800FA60BA6A02EB41023A610BF00202BA601C
:109AE8003A69B96A8A4258D162781BF0020F18BFE6
:109AF80000217A6208BF4FEA5801B2181BF0010F23
:109B0800D2B240F09F801BF0040F14BF40460020E3
:109B1800BB616270A070E17020463A6A7969FB6A9D
:109B28009847051EFFF610AFBB69414623707B6A54
:109B38003A6A6370FB6984F802A0E37007F1480091
:109B4800FB6A9847B0F10008C0F2BA807B69A9EBBC
:109B58000A01C91AFB683A6AC91AD7E90A03984779
:109B68000028C0F2AF804FF0000BA84408EB0005B6
:109B780007F1380AB34571D300213A6A0846FB6AEF
:109B88009847E1E656464FF0000807F1380092E79B
:109B98005646D04696E7B04694E7BA6A12F8021BD2
:109BA80012F8015CBA6254F82500274A904202D3A1
:109BB800264A90421ED3BA6932B1786A7B600BF0AC
:109BC800AEF97B6800288BD1BA6802BB08F128027D
:109BD80007F1300C08F10100944407F1580208F12C
:109BE800020852FA80F00CF8101C5FFA88F800F8A6
:109BF800105C75E7BA693AB1786A7B600BF08FF947
:109C08007B6800287FF46CAF1BF0010F09D006F1C8
:109C1800280207F13000711C161806F8205CCEB235
:109C28005EE71BF0040F3FF45BAF08F1280207F171
:109C3800300008F1010102EB000808F8105C5FFA37
:109C480081F84DE7002063E7A48E01001CC30100E2
:109C580028C700201DA30100040000011BF80A30DA
:109C680054F8239087F83730D7F884302BB3D7F8D7
:109C780088309B4521D2D7F8843033F81B800121E6
:109C88003A6AFB6A07F13700984700281ADB05444F
:109C9800B8F1000F06D14846FEF7C2FE00F10108F0
:109CA8001FFA88F8414648463A6AFB6A98470028EE
:109CB80008DB05440BF1010B5CE74FF00008DEE719
:109CC800454641E605463FE6014B1860704700BF30
:109CD80080C5002080B505460E461746984608F010
:109CE800DFFE03460FF0D0F80446DFF8189042462E
:109CF80049F8003039463046A84754F8090003F0BF
:109D080091FB00BF080000002DE9F047058B0446D1
:109D18002807904611D4022905F0070540F0CC80A9
:109D280020460BF093FB78B10138218B042811D819
:109D3800DFE800F0C2106D85950001290CBF45F0E1
:109D4800100545F02005258388F31188BFF36F8F30
:109D5800BDE8F08701F0070AAA4500F0A5800027B2
:109D6800B9463E46A368002B00F0BC8041F00801CC
:109D7800218388F31188BFF36F8FA168002900F051
:109D8800BA800D68002900F0B68033465246204656
:109D9800D1F80480C047002D76D02B6829461D468F
:109DA800F0E701F007035A1F012A1BD8002221F00F
:109DB8000701062B276889B2C4E9002209D13B466E
:109DC80003E0628B013262831B68002BF9D141F0FA
:109DD8000201204621830BF039FB00287AD041F09C
:109DE800200176E0042B0AD121F0070189B2204630
:109DF80021830BF02BFB10B141F020012183218B33
:109E080001F0070AAA454FD00027B946AAE72369F7
:109E180021F0070141F00601062DD3F800902183B7
:109E28002DD1B9F1000F3FD041F00801218388F30B
:109E38001188BFF36F8F20463949C84729E021F0C0
:109E48000701236941F0040189B2042DD3F8049075
:109E58002183E6D000274FF0040A3E4682E721F02E
:109E68000701236941F0050189B2052DD3F808904F
:109E78002183D6D000274FF0050A3E4672E7002717
:109E88004FF0060A3E466DE72B4687E7B9F1000F0B
:109E9800D1D1EFF31188202383F31288BFF36F8F9A
:109EA800238B23F008032383258BEA062ED525F080
:109EB8001003238305F007056669218B002EBFF682
:109EC80070AF00232768C4E9003321F0070141F08F
:109ED80001012183218B4FF0000901F0070AAA45EF
:109EE8007FF440AF002F9CD041F00801218388F314
:109EF8001188BFF36F8F002FC8D03D6839463346AD
:109F0800524620460BF0CEFA2F46F4E7AB067FF513
:109F18001BAF25F02003238305F0070500E700BFEA
:109F2800D95401002DE9F047044607464FF00109CE
:109F3800DFF8508014B93846BDE8F08794FAA4F5E4
:109F4800B5FA85F509FA05F32E0108EB05156FEA50
:109F5800030A24EA03042B7B002BEBD058F80630C5
:109F68001B694BB94644736804222846196807EAF6
:109F78000A0700F023FBDDE7284698470028D9D1D7
:109F8800F0E700BF5893010030B5002289B00F49AF
:109F98000F480EF08BFB002200230024CDE9062396
:109FA8000E230C4DCDE903344FF440722846CDE919
:109FB8000144094B0949009408F0D8FA0849284691
:109FC80008F018FA204609B030BD00BFED9F000028
:109FD800D8CD002018C9002009A3000028F00020CF
:109FE800D1A30100014808F0ABB900BF90C7002019
:109FF8002DE9F04780461F480F460BF0C4FB064684
:10A00800002830D000252846BDE8F087237B6BB1B7
:10A018002368DB680BB12046984723681B69D3B9CE
:10A02800636804222046196800F0C8FA0136103423
:10A038004C45EBD3B8F1000FE5D0002DE2D028460F
:10A04800FFF770FF0546002FF7D000214FF4A470EA
:10A058000EF06BFAF1E7204698470028E0D00AFA9C
:10A0680006F31D43E2E705464FF0010A024CDFF80C
:10A078000C90DDE7F0D400205893010068930100AC
:10A0880008B5034608462BB1044A136000F078FD72
:10A09800002008BD6FF01500FBE700BF84C5002055
:10A0A80010B5044C237813B9034808F049F9012383
:10A0B800237010BDBDDF002090C7002010B50446F6
:10A0C80009480BF060FB3CB1084BD3E8EF1F01399E
:10A0D800C3E8E21F002AF8D105480EF0F3FABDE8FC
:10A0E8001040044808F02CB9E8D40020ECD4002033
:10A0F800D8CD002090C7002000200146034BD3E8AC
:10A10800EF0FC3E8E21F002AF9D17047E8D4002016
:10A1180070B5FFF7F1FF0546074C084EB44200D36F
:10A1280070BD63685B792BB123685B6813B12946FE
:10A13800204698471034F1E75893010068930100CE
:10A1480010B5044C044920460BF019F8034B1C6069
:10A1580010BD00BFDCC6002098970100E0D40020A5
:10A1680008B50023084A4FF400411370074A08480D
:10A178001360084A1360FFF783FFFFF7E1FFBDE8AC
:10A18800084000F06BB900BFBEDF0020E8D4002013
:10A198008B570100ECD4002001460022002301481F
:10A1A8000BF00EB8DCC6002001480BF0A7B800BFC2
:10A1B800DCC60020024B014618680BF0F3B800BF5C
:10A1C800E0D4002001480BF028B900BFDCC600200D
:10A1D8002DE9F041334B1878002860D0FFF7E4FFF1
:10A1E800044678B1304BD3E8EF1F0139C3E8E21FCA
:10A1F800002AF8D12D4DDFF8B88045452DD32046EB
:10A20800FFF7D8FF2B4B2C4C1B68002B19DD0EF0E9
:10A2180006FA4FF47A72A0FB020302FB0131C30B6A
:10A2280043EA4143D4E900209B1A40F2E9324FEA5D
:10A23800D13161EB0001934271F1000101D3FFF7C5
:10A2480067FFD4E9003213F57A7342F10002C4E9DA
:10A258000032BDE8F041FFF7B5BF6B685B793BB1F1
:10A2680021784B0706D52B68214628461B68984756
:10A278001035C2E720462688C1F3C20700F0BEFAAF
:10A28800C6F382160246002EEDD00028EBDB012330
:10A298003946284600F0ACF9B042E9D3E3E7BDE817
:10A2A800F08100BFBDDF0020ECD4002058930100EE
:10A2B80068930100E8D40020D0CD002070B50D4D82
:10A2C800297861B90120FFF793FE0B4C0B4EB4427D
:10A2D80006D3FFF77DFF0028FBD101232B7070BD4B
:10A2E80063685B791BB1236820469B6898471034E4
:10A2F800EDE700BFBEDF002058930100689301001E
:10A3080000212DE9F0470846FFF772FE044658B3CE
:10A3180040F267684FF000090EF0B6FD1B4B1C4A6F
:10A328001B58136033B11B4B1B68092B02DD1A48FD
:10A3380008F006F80025194FDFF85CA044B1204664
:10A34800FFF7F0FD044618B94FF0FF384FF0FF391A
:10A35800FFF73EFF064628B9B5B942464B46504678
:10A3680008F022F83546E9E74FF0FF384FF0FF399B
:10A37800D2E72B689B691BB10022284611469847F3
:10A388001035BD42F5D3E8E7054DFAE708000000AF
:10A39800E4D40020ECD4002090C70020689301008A
:10A3A8005893010013B518480BF0EDF9174B1B78BB
:10A3B80073B1EFF31184202383F31288BFF36F8FF7
:10A3C800FFF706FF84F31188BFF36F8F02B010BD4B
:10A3D8000F4B1B68002BF9D050B9002200230D4801
:10A3E800CDE900234FF40042002308F06BFEEDE7AF
:10A3F8000928EBD107480EF065F9074802B0BDE817
:10A40800104007F09DBF00BFECD40020BEDF002045
:10A41800E4D40020D8CD002090C7002010B5064B0A
:10A4280004461B6898472146A06004480AF047FF85
:10A43800BDE81040FFF7B6BF84C50020DCC6002089
:10A44800044A054B9B1AB1EBD30F34BF52F83100C5
:10A4580000207047C89201005893010000210B4862
:10A468000B4B30B51B1A0B4CDB080430994200D15A
:10A4780030BD10F83120256802F0070225F00705E5
:10A488002A4344F8042B0131F0E700BFC8920100C9
:10A498005893010020C70020F8B5064600240A4F4B
:10A4A8000A4DED1BED08AC4203D14FF0FF342046B6
:10A4B800F8BD57F8340020B13146FEF79FFA00285E
:10A4C800F5D00134EFE700BFC892010058930100AE
:10A4D80000282DE9F047884615461F461DDA4FF03B
:10A4E800000A5446DFF89090244EA6EB0906360978
:10A4F800B24509F1100902D12046BDE8F08759F8A4
:10A508000C0C3B462A4641460079FFF7E1FF84429E
:10A5180038BF04460AF1010AEAE7194B194AD21A68
:10A52800B5EBD20F26D203EBC5031C79BC4228BF7A
:10A538003C460722144EC0B200EB400056F82530C6
:10A54800824023EA020304F00702824013430021F9
:10A55800032223FA02F000F00700814202F103020D
:10A5680038BF01461E2AF4D123F007030B4346F8EF
:10A578002530C1E70024DCE7589301006893010007
:10A58800C89201005893010020C70020F8B506467C
:10A598000F460024074D084BED1AED08AC4200D3D6
:10A5A800F8BD002122B23B46304601340BF007F9D2
:10A5B800A4B2F3E758930100C892010038B50D46DC
:10A5C80011460A4B4268C31A1B1104460133137122
:10A5D80043689971FFF7DAFF012263681D606368B9
:10A5E8005A71BDE83840FFF75BBD00BF58930100C2
:10A5F80070B14168097973B1002A17DBCBB20C49F5
:10A6080003EB430351F82200D84000F007007047DD
:10A618004FF0FF31EFE707490748401AB2EBD00F78
:10A628003ABF01EBC2010879184670470420704709
:10A6380020C70020C8920100589301002DE9F04F6F
:10A648008FB0C1F34A2804AF0D469146B8607B60CD
:10A658000C0DB8F1000F67D000264FF0040B4FF037
:10A668000A0A07F11403C7F80C80C7E907667E6277
:10A678000193CDF808B0CDF800A007F11C033246CD
:10A688004846F968FFF736F9B0F5006F034620D35E
:10A698002A48036813F0060F17D06C468AB0D9F819
:10A6A800041004AB264D1A46C3E9055140F2FF7168
:10A6B800D9614FF400711984224B42F8103F4FF4CE
:10A6C80012513346FFF7BAFFA5462C37BD46BDE801
:10A6D800F08FC0F30A0804F11700184420F00700AF
:10A6E80080083B60FFF758FD68F35325044690B196
:10A6F8003B6800F11001C7E9083607F11403F96156
:10A70800CDE900A3CDF808B048460F4AF96807F12B
:10A718001C03FFF7EFF868F353252A4620467B68A9
:10A72800B9680BF076F8D0E704F1170020F00700BD
:10A738008008FFF731FD0446EDE700BF40C7002061
:10A74800E6A3010004000001EF5701002DE9F04FD6
:10A7580087B00446DDE9105ADDE912799346984638
:10A768000391DFB13B46524610210020CDF80090FE
:10A77800CDF81490FEF7ECFEB0F5006F06460ED348
:10A788001C48036813F0060F30D040F2FF73022113
:10A79800194A07B0BDE8F04F0BF094B83E4605F1F2
:10A7A8001700304420F007008008FFF7F5FC04F09C
:10A7B80007040BF0070BE40044EA8B1444EA462430
:10A7C80044EA0554054640B13FB13B46524631463E
:10A7D800CDF800901030FEF7BBFE434622462846CF
:10A7E800039907B0BDE8F04F0BF013B807B0BDE808
:10A7F800F08F00BF40C7002025A40100406820B1A9
:10A80800034BC01A40F38F0070474FF0FF3070477A
:10A8180020C700200EB403B503AB53F8042B014640
:10A828000448019303F040F902B05DF804EB03B06B
:10A83800704700BF2F590100CA0605D48B064CBFCC
:10A8480002490349FFF7E6BF704700BFCDA70100E3
:10A85800BCC101002DE9F04F89B09B46149B9DF8BF
:10A868004CA00693159B04460593169B0D469046EF
:10A87800179E0493BAF1000F00F09D8006F48073D0
:10A8880007930AF09AFF06F00209024600283ED014
:10A8980020469149FFF7BEFF0746B9F1000F08D0DF
:10A8A80016F0440F35D12A4620468C49FFF7B2FFEF
:10A8B800074406F0010353B1894B204653F82A2078
:10A8C800884B8949002A08BF1A46FFF7A3FF06F4F8
:10A8D8008073002B49D006F00803002B63D1B8F130
:10A8E800000F66D0424620468049FFF793FF054691
:10A8F800069B3D44002B6DD1049B002B73D1F307BD
:10A9080000F1E48031462046FFF796FFD8E007467D
:10A91800C3E7774B18680028CAD0764B4FF47A798A
:10A928001B684FF03C0CB5FBF3F5B5FBF0F14FF4A9
:10A93800616300FB115509FB05F5B1FBF3F2B5FBAB
:10A94800F0FE03FB121100FB1E55B1FBFCF309FBE3
:10A9580005F5B5FBF0F50CFB131120460091CDE988
:10A9680001E56549FFF756FFA2E706F00803EBB1DA
:10A97800624B204653F82A206149FFF74BFF0546F2
:10A98800B8F1000F05D0424620465849FFF742FF6C
:10A998000544BBF1000FABD05A4620465949FFF792
:10A9A80039FF0544A4E74FF0000BE1E706F008057E
:10A9B800E6E745469CE7BBF1010F069B06D1002B55
:10A9C80064D1049B002B7BD000250CE0002BF8D031
:10A9D8004D485CE04D48069B22464D490AF06EFA08
:10A9E800049B002B68D0DFF82C81DFF82C91049FA2
:10A9F8003146102F204628BF10274FF0000BFFF7D5
:10AA08001BFF5D4545DC059B494620461A78FFF744
:10AA180001FF4FF0010B1BF0070F03D14146204601
:10AA2800FFF7F8FE5F453BD9059B4946204613F8DA
:10AA38000B20FFF7EFFE0BF1010BBBF1100FEAD172
:10AA48004FF0000B20463549FFF7E4FE5A46059BB8
:10AA580020469A5CA2F120015F2928BF2E223049A6
:10AA6800FFF7D8FE0BF1010BBBF1100F1DD01BF047
:10AA7800070F03D141462046FFF7CCFE5F455A46F3
:10AA8800E5D841462046FFF7C5FEEBE71F48554687
:10AA9800A1E741462046FFF7BDFE0BF1010BB0E7E9
:10AAA80020462049FFF7B6FEC5E7059B3B440593C2
:10AAB800049BDB1B04939AD1BAF1000F7FF41FAFFC
:10AAC800204609B0BDE8F04F0AF020BF2046054AED
:10AAD8000549FFF79FFE15E762A4010066A401007F
:10AAE800AC9701005DA40100B6A801008BA4010089
:10AAF800F8D40020F4D400206FA40100C09701000E
:10AB08008FA4010095A401005D5901002F5901008F
:10AB1800B1DA0000A2A401009AA40100A4A40100D3
:10AB2800DBAE0100A0A4010042F20F7373B58B42A3
:10AB380028BF0B4605680446052168460D4A08F0FB
:10AB4800D9FC0646636828460B225B680A490AF066
:10AB5800CFFE63683246694628465B680AF0C8FE3D
:10AB680063681B2228465B6804490AF0C1FE02B0EC
:10AB780070BD00BFA5BF0100C2A40100A6A40100CA
:10AB880000210123064A904206D8064A01B901234A
:10AB98001360054B18607047012140085B00F2E71D
:10ABA80040420F00F4D40020F8D40020014B036089
:10ABB80000207047D497010010B504460CF059FFE7
:10ABC8000349024620460BF0A5F8002010BD00BF3F
:10ABD80005A501001346002273B5044601920A2117
:10ABE800586801AA01F0EEFB019D95B920EAE074CE
:10ABF8004FF40046294640F2E7304FF47A720023BA
:10AC0800C4FB0601FDF7E0FE0DF08FFC284602B0FC
:10AC180070BD2A46204602490BF098F8019DF5E7D9
:10AC280031A5010008B5034A03490BF073F8002069
:10AC380008BD00BF21A6010028A601002DE9F341A7
:10AC48001746002304460A21B86801AA019301F0B7
:10AC5800B9FB019DC6B24DB12A46204613490BF0F7
:10AC680075F8019D284602B0BDE8F081042E09D987
:10AC7800324620460E490BF069F820460BF0BAF828
:10AC88000125EFE77868FFF707FCB0F1000804DA60
:10AC980020467A6807490BF059F8002133460846E0
:10ACA8000FFA88F20AF08BFDDCE700BF53A601001B
:10ACB8007AA6010091A6010010B5044604F02AFB0B
:10ACC8000749024620460BF025F8204605490BF0B7
:10ACD80021F82146044808F02BF8002010BD00BFD9
:10ACE800F0A601000FA70100F5AC000070B58EB00A
:10ACF80004460D46D0F89C600DF058FB03460EF054
:10AD0800C3F8214A21491058214A002B18BF1A4676
:10AD18000092204A2346844218BF0A4628461E4904
:10AD28000AF0F8FFD4E90A23CDE90023284694F96C
:10AD38000E30227B19490AF0EDFF06A92022204691
:10AD480007F068FB636E0246154928460AF0E2FFE1
:10AD5800204605A90DF038FB024628B128461149BE
:10AD68000AF0D8FF0EB070BD6422059B2846F11A80
:10AD78004A43B2FBF6F20091CDE901620A49324634
:10AD88000AF0C8FFEEE700BF08000000A2A4010017
:10AD980019A701003BB901001CA7010028A7010061
:10ADA80054A701006BA7010098A70100F0B5002582
:10ADB800044691B0294608AF1C2209A80DF025FECB
:10ADC800134E1A22202138460DF01FFE2146114845
:10ADD80007F0AEFF07AA4FF4006130460DF0E8FA1D
:10ADE8006423079A2046C2F500614B43DB0A0593AA
:10ADF8004FF400630097CDE90313CDE9013206490A
:10AE08002B4632460AF086FF284611B0F0BD00BF37
:10AE180028FB002025AE0000E9A7010070B5044614
:10AE28000D46D0F89C6088B007A90DF0CDFA02460F
:10AE380028B128460E490AF06DFF08B070BD2046BB
:10AE48000DF0B4FA6422079B0096F11A4A43B2FB4C
:10AE5800F6F2CDE90131074BCDE90362002818BFAE
:10AE680003462246284604490AF054FFE5E700BF96
:10AE78006BA7010019A7010032A801002DE9F04FC6
:10AE880087B00446684606F059FF1823009F08213A
:10AE980003FB0077264A20460AF021FFDFF894A03A
:10AEA800009DDFF894B0BD4203D3002007B0BDE891
:10AEB800F08F2B680BB11A7832B92B4614211F4A30
:10AEC80001A808F017FB01AB5246082120460AF0FA
:10AED80006FF28460DF09BF9194B0821002808BFEA
:10AEE8005B46184A20460AF0FAFE6B69A3B11E6851
:10AEF80096B1336883B108212046134A0AF0EFFE61
:10AF0800B1464FF000083368104A434506D8082177
:10AF180020460F4A0AF0E3FE1835C4E70821204608
:10AF280059F8043F0AF0DBFE08F10108EBE700BF1F
:10AF3800A5A80100B4A801009CA80100AFA80100C1
:10AF480096A801003AAF0100B9A80100B5A8010010
:10AF5800CDA701002DE9F041144688460746102286
:10AF68000021606808F068FBB8F1020F064607D8B0
:10AF7800202308213846244A0AF0B1FE336816E037
:10AF88000A220021A06808F057FBC5B22B46082109
:10AF980038461D4A0AF0A3FEB8F1030F1AD1102D46
:10AFA8000CD0202DEAD0082D0BD13378DBB2082144
:10AFB8003846164A0AF093FE002009E033889BB20F
:10AFC800F5E738460821124A0AF089FE6FF01500A5
:10AFD800BDE8F08110220021E06808F02DFB08216F
:10AFE800034604460B4A38460AF079FE102D06D06F
:10AFF800202D07D0082DE4D1E4B23470DCE7A4B2E8
:10B008003480D9E73460D7E7FAA8010025A9010000
:10B018000FA9010036A9010000232DE9F04F914640
:10B028004FF0FF35012287B00193504B0746884601
:10B038001A60202602F07AFD2C46DFF834A1494632
:10B048005246404602F096FD411C06D16A1C41D189
:10B05800484938460AF07AFE17E073281AD077284C
:10B0680028D0612811D1DFF810B11021DBF80000D9
:10B0780001AA01F0A7F9019B0546002BDFD0DBF8F8
:10B0880000203E4938460AF061FE6FF0150007B00F
:10B09800BDE8F08FDFF8E0B00021DBF8000001AA7E
:10B0A80001F090F9019B0446002BC8D0DBF8002082
:10B0B8003349E7E7DFF8C0B00021DBF8000001AA58
:10B0C80001F080F9019B0646002BB8D0DBF8002080
:10B0D8002C49D7E7631C01D12B49BAE75FFA86F8F8
:10B0E800C6F3C406002C3FD002AB29461A46A6EB8D
:10B0F800050C0CE0B8F1100F1DD0B8F1200F20D0CE
:10B10800B8F1080F2AD10878187031443344A642A0
:10B1180003D80CEB01001028ECD9102CA14628BF4D
:10B128004FF0100929464B46384601F023F81035F0
:10B13800A4EB0904D6E7088880B21870000A587092
:10B14800E3E708684FEA102E187083F801E04FEA29
:10B15800104E000E83F802E0D870D6E70821384672
:10B168000A4A0AF0BCFD90E7204690E7F0C50020A7
:10B1780084A901008BA90100BCD800204AA90100BC
:10B188005DA9010070A90100A8A901000FA901008B
:10B1980070B50F4E04460D46337871B123B10D4991
:10B1A800BDE870400AF0D2BD0123337020460A4939
:10B1B8000AF0B0FD0123337004E083F0010333701B
:10B1C800002BF3D129462046BDE870400AF02FBE77
:10B1D800BFDF0020C2A90100FDA9010070B5044627
:10B1E8003B480378182B02D10B78112B31D00B4632
:10B1F800013A8D18AB4225D18B5C0A780370A2F115
:10B208003003092B334C04D922F02003413B052B92
:10B2180004D823683049CA54013323602368022BB9
:10B2280033D1102200212C4808F006FA2B4A136863
:10B2380003F8010B13602A4A1368013313600023D3
:10B24800236022E013F8016B182ED3D11E78112E3B
:10B25800D0D1234D20462A6822490AF05BFD2046BA
:10B268000021FFF795FF204B187870B91F4A2B680B
:10B278001168042B0ADC08B111602B6013F003017C
:10B288000BD1126813681BBA136070BD0868043BC1
:10B2980000BA41F8040B0120EBE75B4203F003031B
:10B2A80058BF5942022904D1126813885BBA9BB26D
:10B2B800EAE70329E9D1106802681104C2F30743D9
:10B2C80001F47F010B4302F47F4213430360DCE780
:10B2D800C0DF0020FCD40020C2DF002008D50020F9
:10B2E80000D5002027AA0100C1DF002004D50020D6
:10B2F8002DE9F84F0023064615460C462949DFF884
:10B30800A8800B602949DFF8A890DFF8A8B088F872
:10B3180000300B60012C2F4655F804AF1ED90222CD
:10B32800494650460DF0B3FB80B99AF80220003A1E
:10B3380018BF01229244504602221F490DF0A7FB74
:10B3480030B9012388F80030013CE3E70022F1E737
:10B3580049465046FDF752FBA8B9043700227868E1
:10B36800114608F069F90022144B114618607868F4
:10B3780008F062F9124B134918603046FFF708FFCE
:10B388000020BDE8F88F9AF800202D2AE6D19AF817
:10B398000120002AE2D05246594630460AF0BAFC4B
:10B3A800D2E700BFFCD40020C1DF002000D5002078
:10B3B80041AA010047AA010044AA010008D50020BB
:10B3C80004D50020E5B1000007B50A480CF01FFFBE
:10B3D80060B10423084A009312680123054907480D
:10B3E80000F02EFF002003B05DF804FB6FF01200A0
:10B3F800F9E700BF5C8F01007C98010068930100A9
:10B4080010B54468A3604023C4E9001242680821CB
:10B41800D36402F1580313630023C2E90E33C2E96F
:10B428001133C2E90633C2E90933D162146802F163
:10B43800500153631364116153611362C2F8D03031
:10B44800A36823B11B6C13B1204604499847A3682D
:10B458001B6A0BB120469847002010BD69B4000054
:10B468002DE9F74304460D468368DB6B03B1984723
:10B47800A368DB6A0BBB4FF0000905F130084046B2
:10B48800EA6C01A90AF0C8F80746002836D0A36874
:10B4980001991B693BB3024620469847064628B3E4
:10B4A800314640460AF0D5F8B7424FF00109E6D0D8
:10B4B8000020D5E90131984703E020469847002845
:10B4C800D9D1A368DB6963BB05F110073846EA6A7E
:10B4D80001A90AF0F2F8064650BB20460AF08DFA98
:10B4E800C5F8D0602FE06FF05706D9E7014640460F
:10B4F8000AF0AFF8B9F1000FE3D0D9E716480368AE
:10B5080013F0060F03D00221144A0AF0D2F9A368F7
:10B518001B69002BEED0012220460DF1030198474C
:10B52800E8E7204698470028CED103B0BDE8F0836D
:10B53800A3680199DB685BB102462046984701463B
:10B5480038460AF0D6F8D5E9013101209847ECE7EA
:10B558006FF05701F4E700BF5CC70020AEAB0100F5
:10B5680010B504468168183101F05EF9A1682046DB
:10B57800BDE81040014A183101F0FCB8F0AB0100F9
:10B5880038B583680446D3F87832DB071DD4C06920
:10B598000BF0BFF9606803685B689847054620B9F7
:10B5A800E0680BF063FBA3681D75A3685B6C13B1BF
:10B5B80029462046984700220DF066FCA368C3F888
:10B5C8002023034B185801F02DFF6FF00F05ECE70F
:10B5D8000800000001490AF0A2BA00BFCDA7010087
:10B5E800F7B5044680680D46D0F878325A0705D575
:10B5F80000210AF0BCFAE0680BF00AFBE368DB689C
:10B6080073B9002D3BD0A66806F1560738460AF0F4
:10B6180093FA002835D0394606F5AB70FDF7F8F9EE
:10B62800A2682946E0680DF1060356320BF0F3FADA
:10B6380058B9A06800F5AB715630FDF7E9F9A06874
:10B6480056300AF079FAADF8060020460AF029FFCC
:10B65800A368D3F874329B0603D50B4960690AF0D6
:10B668005EFA204600F014FFA268BDF806302046B6
:10B67800A2F85230A268A2F850300AF077FE03B060
:10B68800F0BD86F85601CBE7B89401002DE9F04FDC
:10B69800A7B004465422002111A80DF0B6F90023E2
:10B6A800CDE90533A3682046563302930AF000FF1C
:10B6B80020460AF044FE10B96069FFF78BFF0026A8
:10B6C8004FF0FF37B246B3463546B146A06814225C
:10B6D800002118300DF099F920460AF0C8FDA1683C
:10B6E800E068B1F8502056310BF0CCFA20460BF048
:10B6F8004BFB0DF144080396DDE90532012A6DD0B4
:10B70800132B6ED85FBBBBF1000F0AD020460BF09D
:10B718005CFB1423A26811A956320DEB03000AF052
:10B7280026FCB9F1000F0CD099F81130FE2B08D186
:10B73800059B26AA02EB830252F8542C0AB1013366
:10B748000593A068059D436A002B40F0B680CEB1F2
:10B75800C3699E422DD00D9600F1180524E00223FE
:10B768004146029A06A80AF002FCD8F80420069975
:10B778000346029231B101290AD148B16D4A2046E7
:10B788000AF044FF6FF00705284627B0BDE8F08FA0
:10B79800059B002B34D0D8F8000001F065F898B16B
:10B7A80066B1A5680D9618350CAE0FCE0FC5336877
:10B7B8002B602046FFF7D4FE0125E5E75E4A01210C
:10B7C80020460AF023FFDDE7059BCBB1294620463A
:10B7D800D8F8002001F0EAF9022809D1059B132BBB
:10B7E80091D9069B022B8ED10121544B544AC6E7AE
:10B7F800032805D0059B4FF0010B013305937BE728
:10B80800039B33B94846D8F8001007AA0AF0A6FCEB
:10B81800054608F10408013F9DB3EB68BBF1000F32
:10B8280008D0F3B120460AF043FE20460AF09EFDF8
:10B83800444AC4E7ABB1AE46A368DDF814A003F1EF
:10B84800180CBEE80F00ACE80F00DEF80030CCF8AA
:10B858000030AB682BB96B7CFE2B04BF2F7C07F143
:10B86800FF37D5F804C0BCF1000F08D0AE460CAEC7
:10B87800BEE80F000FC6DEF8003033606646A94602
:10B8880003E0059B53B101230393069B17B9022BD1
:10B898007FF432AF059B013305932DE7A368DB6A7C
:10B8A80013B1DB68002BEED1274B01210093204612
:10B8B800119B264A0AF0AAFEE5E790F82830A5EB86
:10B8C8000A05BBB14FF6FF7290F82910FF2918BF7F
:10B8D8000A469D4202D313449D420BD98369012134
:10B8E80020461B4A0AF092FE2046FFF739FE6FF009
:10B8F800150549E701210AF02FF9A06800F5437002
:10B908000AF04EF9A36811AA294602EB8A022046DA
:10B918005B6A98470546A0684FF0FF324FF0FF3347
:10B9280000F543700AF0E3F80021A0680AF014F962
:10B938002AE700BFFEAB010012AC010073AC0100A6
:10B9480047BA010030AC01005FAC010067AF0100ED
:10B9580097AC0100022210B5836804461A75836803
:10B968009B6CBBB90AF0A2F88368D3F87832DB0481
:10B978000BD50321084B094A0AF048FEA0686FF46A
:10B98800805100F51E700AF0A7F82046BDE8104067
:10B9980000F0D2BE10BD00BFB2AC0100B6A80100D5
:10B9A8002DE9F04F044680680121B1B000F51E7002
:10B9B8000AF087F8A3681B7D022B20D10023099386
:10B9C800A36860689E6C03681D6909AB0EB31022FA
:10B9D8001BA9A847099B93B10121A0680AF0BCF8EC
:10B9E8002046099A1BA9B0470021A0680AF0B4F8BC
:10B9F800A3689B6C002BE3D12046FFF7ABFF6FF0E9
:10BA08000101A06800F51E7031B0BDE8F04F0AF0E2
:10BA180063B801220DF12301A847099B002BEED042
:10BA28009DF923209DF82310002AA368C8DB5A7DBE
:10BA3800032A00F29782DFE812F0040084029B02D6
:10BA480095020D297CD00A2958D0B3F87822092903
:10BA58006FF3CA02A3F87822A06800F086803DD868
:10BA68000029ADD0082900F0FB810346D3F87422E1
:10BA78009207A5D501391629A2D801A252F821F0BA
:10BA880019C00000A3BE0000ABBE00009BBE0000B2
:10BA98000DC00000C9BE0000C9B90000C9B9000046
:10BAA800C9B90000C9B90000D1BE0000D9BE000064
:10BAB800C9B9000003BF0000C9B900000DBF0000EC
:10BAC800C9B90000C9B90000C9B90000C9B9000066
:10BAD80011BF0000C9B900003BBF00001B2941D0BD
:10BAE8007F2900F0C981A1F120025E2A0346BDD852
:10BAF80001210AF03CF89DF82310B9E0D3F8782228
:10BB0800C2F3C7022AB1D3F87822C2F3C7020A2ABD
:10BB1800ACD1B3F8782261F3CA02A3F87822A568F9
:10BB2800B5F85010C1B928460AF021F8E0680BF0C2
:10BB38006FF86069FFF74EFD2046FFF70BFF3FE700
:10BB4800D3F87822C2F3C702002AE2D0D3F87822C9
:10BB5800C2F3C7020D2ADBE72046FFF797FDC5F8B9
:10BB68002403E9E7012343752AE7D0F874329B07D9
:10BB78007FF526AF012109F0FAFFA068B0F8503030
:10BB8800FF2B3FF41DAF0025B0F8522000F15601FD
:10BB980000F5AB700CF012FFA3681BA9B3F8522094
:10BBA8000BA8134483F85651A268142302F5AB720C
:10BBB8000AF0DDF90B9914293FF602AF30AB03EB1D
:10BBC800810343F8545CA368B3F85220002A53D089
:10BBD800134493F85530202B02D0093B042B4BD843
:10BBE80000294CD100250A950A9B30AA02EB830351
:10BBF80053F854AC0026504609F09EFFB3468146E0
:10BC0800B04637463946284616AA00F0A1FB034637
:10BC1800002840D1012EA76865D10A9B30AA02EB03
:10BC2800830353F8540C09F087FF4146064607F191
:10BC38001802284600F08CFB0568284609F07CFFAE
:10BC4800864205D0821B92B22046A9190AF025FD2A
:10BC5800A068B0F85230034493F85630202B31D006
:10BC6800093B042B2ED9D0F87432DF072FD42021BA
:10BC7800204600F029FDA3E60129B3D901390020A7
:10BC88000CAB009301900AAB1BAA0AF092FA054686
:10BC98000028A9D194E61B684A46514618460393E2
:10BCA8000CF0F5FE60B9039B1846FCF7B9FE584541
:10BCB80038BF5846002E08BFB8461FFA80FB013629
:10BCC80001379FE7012120460AF084FB78E600212E
:10BCD80009F057FF2021204600F0F6FC0121A0685A
:10BCE80009F04FFF6CE604907FF66AAE0A9A30AB13
:10BCF80003EB820252F8543CC1461846039309F0FC
:10BD08001BFF049B0590A7F840300496A26849469B
:10BD18002846183200F01CFB039BD0F800A009F15C
:10BD280001094BB1BAF1000F06D019465046059AE1
:10BD38000CF0ADFE0028E9D1A168BAF1000F4DD191
:10BD4800A1F840A0049B013B0493DFD16069FFF791
:10BD580041FC204600F0F0FC0A9B30AA02EB83036A
:10BD680053F8540C09F0E8FE414611AA81462846CA
:10BD780000F0EEFA0746A0683968FF2200F5AB70BC
:10BD88000CF097FE3B684FF6FF7708F1010AB846BA
:10BD980003935146284616AA0AF1010B00F0D8FA77
:10BDA800002851D00022A168036801F2551111F84A
:10BDB80001EF985C704503D110B101324245F6D1CC
:10BDC800B9F1000F01D04A4506DBBA42A8BF3A468E
:10BDD800013E012E97B237D0DA46DAE79848069145
:10BDE80009F0AAFE069900EB0B074A8FBFB2121A98
:10BDF80092FBF7F2504692B20791069209F09CFE28
:10BE080007993F1AB1F84000069A00F1010CA1F811
:10BE180040C0B0FBF2F102FB110080B2BFB260B9C2
:10BE280006212046864B874ACDF800A00AF0EEFB93
:10BE38003946204600F016FB84E753460621204683
:10BE4800814A0AF0E3FBF3E7002F3FF4B9AD039909
:10BE5800A7EB0902204692B249440AF01EFCAFE55E
:10BE6800D0F874329E077FF5ABAD012109F07FFE53
:10BE780020460AF033FCA3E5D0F874329D077FF51D
:10BE88009FAD012109F073FEA368D3F87432190736
:10BE9800EED420460AF003FC92E520460AF011FB96
:10BEA8008EE520460AF004FB20460AF048FA10B94D
:10BEB8006069FFF78FFB0121A06809F058FE3BE697
:10BEC80020460AF007FB7BE520460AF00EFB77E5E3
:10BED800D3F874329B0603D55C49606909F01FFEEC
:10BEE800A368D3F874329F0603D55949606909F0ED
:10BEF80016FE204600F020FC62E500212046FFF7F0
:10BF08006FFB5DE50121F9E720460AF0CAFA2046F1
:10BF180009F0CCFD0121A06809F029FEA368D3F837
:10BF280074329E067FF54CAD4A49606909F0F7FD09
:10BF380046E5204600F026FB0121A06809F017FE1F
:10BF48003EE55B2902D102225A7539E5D3F87432ED
:10BF58009D0706D5622907D14FF0FF3120460AF028
:10BF680062FAA3680022EFE76629FAD10121F5E712
:10BF780000225A75A268D2F8743298077FF520AD6E
:10BF8800A1F131031B2B3FF61BAD01A151F823F0A2
:10BF980015C0000021C0000035C0000009C0000025
:10BFA800C9B90000C9B90000C9B90000C9B9000081
:10BFB800C9B90000C9B90000C9B90000C9B9000071
:10BFC800C9B90000C9B90000C9B90000C9B9000061
:10BFD8000DBF000003BF0000C9BE0000A3BE0000E3
:10BFE800C9B900000DC00000C9B9000019C000009F
:10BFF800C9B90000C9B90000C9B9000025C00000CE
:10C008000323537520460AF053FAD9E403235375E2
:10C0180020460AF046FAD3E403235375A068D0F803
:10C02800741201F0010181F0010159E603235375EF
:10C03800A368D3F874329B077FF5C2AC29E700BF29
:10C04800A1A40100F6AC0100B6A80100BD9401004E
:10C05800C2940100B89401002DE9F04104468068BB
:10C06800154600F51E70002937D04FF4804109F0BD
:10C0780028FDA3680021DD64606803689B68984711
:10C0880000284BD1204609F0B2FD002846D1244EA5
:10C09800244FDFF89480A06800F52F704FF0FF322E
:10C0A8004FF0FF33032107F047F80546A0684FF02B
:10C0B800FF324FF0FF3300F543709DB109F017FDD3
:10C0C80020462B460121194A0AF0A0FAA068BDE8CB
:10C0D800F04100F5437009F063BD6FF4804109F049
:10C0E800FBFCC6E709F003FD32460221204609F0B1
:10C0F80000FD3A462946204609F0FBFC2046424608
:10C10800012109F0F6FC606803685B6903B1984790
:10C11800A06800F5437009F043FDBCE7BDE8F08175
:10C1280089B50000A9B90000AD5B0100FCAC0100B5
:10C1380010B504460A4909F0EDFD2046094909F001
:10C14800E9FD2046084909F0E5FD2046074909F0C0
:10C15800E1FD20460021064A00F00CFB002010BD3E
:10C1680013AD010051AD0100B0AD010004AE0100F6
:10C178009EAE0100F8B51E4617460A4629490446F0
:10C1880009F0C8FD3EB320463A78274909F0C2FDB8
:10C1980001256A0703D12046244909F0BBFDAE42B8
:10C1A8001ED920467A5D204909F0B4FD0135102DCD
:10C1B800EFD120461E4909F0ADFDB6B920461B490E
:10C1C80009F0A8FD0125AE422B4610D82046174994
:10C1D80009F0A0FD15E02046164909F09BFD012550
:10C1E8002046144909F096FDE0E700252B46FA5C45
:10C1F8002046A2F120035F2B28BF2E220E4909F00A
:10C2080089FD0135102D06D06B07DCD12046074982
:10C2180009F080FDD7E72046BDE8F840074909F056
:10C2280079BD00BFB4AE01009AA40100A2A4010028
:10C23800A4A40100A0A40100DBAE0100BBAE010074
:10C248002DE9F043044680688846D0F82013154647
:10C258001F4689B0002960D14FF44A720CF0D5FB13
:10C26800E0680AF077FDA06800F543700CF081F8EB
:10C278004FF42F794FF41F76A06830440CF06CFB14
:10C28800A068002283190121484410360CF03BFBBA
:10C29800B6F52F7F09F11409EED10026A369022112
:10C2A8001E60A06866F3820500F51E7009F009FC9F
:10C2B8005022A36820465A871822A3681A87216843
:10C2C80009F06AFDA3684146C3F874526068144ACD
:10C2D80003681D682346A8470546D0B90122A3680C
:10C2E8001A75D4E90A0100220023CDE906230E239A
:10C2F8000393109B4FF40062CDE901730495094B39
:10C30800009406F033F9A368C3F82003616A06F0C5
:10C3180071F8284609B0BDE8F0836FF07705F8E7B3
:10C328004D5B010061C0000010B5044613460A4683
:10C338000146064801F0B8FB23691B7923B1204662
:10C34800BDE8104009F079BD10BD00BF5B5E01007B
:10C3580038B50B46154648B91449154A521AB3EB75
:10C36800920F05D251F82350284638BD84680CB97D
:10C378000025F9E70F4A94420AD30F4A944207D29C
:10C3880018462946226890472B68002BECD1EFE726
:10C398000A4A944202D30A4A944205D324681422D2
:10C3A8005343E518E358F0E70133F8E798930100A1
:10C3B800C4930100A0940100A4940100C493010057
:10C3C800A0940100F7B5037804462D2B164605D135
:10C3D8006FF015030020336003B0F0BD0CF054FD7E
:10C3E800002305460A4F0A46C35101A9204607F013
:10C3F80023F9EB59222B02D16FF02103EAE7002B36
:10C40800E6D1019BA342E3D01B78002BE4D0DFE701
:10C418000C0000008368D3F874329B0603D50249E8
:10C42800406909F06DBF7047C8940100014909F0DF
:10C4380067BF00BFCDA701000A1E0DDC0ED0422346
:10C448008168D1F87412890608D5002A0449406920
:10C45800B8BF524209F054BF4123F1E7704700BF0B
:10C46800D7AE01000A1E0DDC0ED044238168D1F836
:10C478007412890608D5002A04494069B8BF524297
:10C4880009F03EBF4323F1E7704700BFD7AE010074
:10C498002DE9F0478568044605F15600FCF7C0FA17
:10C4A8000023984695F83C70DFF8549086B2A2684D
:10C4B800558FED1BB54209DB002E1FDD5633606931
:10C4C80010491A44BDE8F04709F01ABF1D442A4430
:10C4D80092F856A082F85680A26856331A44494604
:10C4E800606909F00DFFA3682B4483F856A0A36880
:10C4F8005B8FDB1BF61A00272B46D8E7BDE8F087D1
:10C5080047BA0100B6A8010008290A4617D8836867
:10C5180093F83E10914212D083F83E208368082A8F
:10C52800D3F8743205D0990609D50549406909F050
:10C53800E7BE9B0603D50349406909F0E1BE704791
:10C54800DEAE0100CD94010038B50D4609780446E9
:10C55800FFF7DAFF6A78072A11D8A36893F83F1023
:10C5680091420CD083F83F20A368D3F874329B061D
:10C5780005D560690249BDE8384009F0C1BE38BD3B
:10C58800E7AE0100F8B583680446B3F85020002AE6
:10C5980055D0B3F85210002951D0553103F1560542
:10C5A8000B441846A84206D3014611F80169202E0B
:10C5B8003CD0A8423CD286B29DB2AB1B9BB2591C60
:10C5C800471CD21A014438460CF005FAA268711BC0
:10C5D800B2F85030204613FA81F3A2F85030A3681D
:10C5E80009B2B3F850201344002283F8562009F00A
:10C5F800F1FEA368D3F874329A0603D5104960692E
:10C6080009F07EFE3B46082120460E4A09F0FEFF4F
:10C618002046FFF7FFFEA368D3F874329B060ED5B9
:10C6280060690949BDE8F84009F06ABE0846B9E7FB
:10C63800014611F80169202EBDD00846B9E7F8BDBA
:10C64800D2940100B6A80100D69401002DE9F0416A
:10C6580004460D4617460AB1FFF7DCFEA368B3F897
:10C668005220D3F87412563213444A0721D518467B
:10C67800FCF7D6F90646DFF84880A6B9A368B3F8F0
:10C688005020A3F85220A06809F047FE20B107B156
:10C6980015B16069FFF7CAFE69422046BDE8F0415E
:10C6A80009B209F097BE4146606909F029FE013ECA
:10C6B800E3E708212046034A09F0A8FFDEE700BFA8
:10C6C8003BB90100B6A8010013B583688DF80710BF
:10C6D800D3F874220446D00725D5B3F85210B3F81E
:10C6E80050208A421FD0481C9DF80720A3F852000A
:10C6F8000B4483F85620A368D3F87412890710D521
:10C70800D3F87432606913F0040F18BF2A2209495C
:10C7180009F0F6FD204609F012FE10B16069FFF736
:10C7280085FE02B010BD012220460DF1070109F077
:10C738007AFFF6E7DBAE010010B5044683680221F4
:10C74800084A09F063FFA368D3F874329B0707D53A
:10C758002046FFF79DFE2046BDE8104009F015BEB3
:10C7680010BD00BFB6A8010001490AF040B900BFDA
:10C77800CDA701002DE9F04F0E46002104461746CB
:10C788000D4689B0304603AA01F10108FFF7E0FD24
:10C79800B0B995B127B13A460821204609F036FFCD
:10C7A80000211E4FDFF87890DFF878A0304603AA02
:10C7B80001F10108FFF7CCFD60B909B0BDE8F08FC1
:10C7C800006810B1FCF72CF980B2854238BF0546E5
:10C7D8004146D7E703688BB11A787AB1D0F804B02C
:10C7E8004A46CDE9005308213B46204609F00EFF92
:10C7F800BBF1000F04D16069FFF7B6FF4146D5E7EA
:10C80800524620463B46082109F000FFAA1D59461A
:10C81800204692B20AF0F8F8F0E700BF05AF010031
:10C82800F0AE010095A40100F7B50F6805460E4665
:10C83800A7B13846FCF7F4F884B2094B28460093B0
:10C8480008213B46074A09F0E1FE2846E21C7168C8
:10C8580092B203B0BDE8F0400AF0D6B83C46ECE727
:10C8680001AF0100F7AC010010B507490446FCF719
:10C87800C5F838B120460549FCF7C0F8B0FA80F091
:10C88800400910BD0120FCE7F7AE0100FAAE010037
:10C8980010B583680446D3F874329B0603D506495D
:10C8A80040690AF028F95022A36800205A87182204
:10C8B800A3681A8710BD00BFDA94010008B5836920
:10C8C80002491A6809F026FA002008BD08AF0100DD
:10C8D8002DE9F3410D49054609F01CFA00220C4CDC
:10C8E8000C4EDFF83480B44202F1010703D3002074
:10C8F80002B0BDE8F081636A92B20093A368414632
:10C90800284609F007FA30343A46ECE718AF010038
:10C91800689301009893010030AF010008B50249FF
:10C9280009F03AFA002008BDCEA7010073B5044605
:10C9380000250D4EA2680DF106030121E06802F5FD
:10C94800AB720AF068F9BDF80600A36840B12A4640
:10C958003146204603F5AB7309F0DCF90135E9E708
:10C9680083F8560102B070BD41AF010010B504460E
:10C9780009F055FA03490246204609F0CBF9002090
:10C9880010BD00BF3DAA0100022907B50BD15368AD
:10C998000C49009312680C4B09F0D8F96FF0150098
:10C9A80003B05DF804FB8368084AD3F87432084979
:10C9B80013F0020F074B18BF1A4609F0ABF9002015
:10C9C800EEE700BF64AF01004FAF01004BAF0100BD
:10C9D8006DAF010040A6010010B583680446D3F886
:10C9E80074329A0603D5074940690AF084F8A368A7
:10C9F800D3F874329B0603D5034960690AF07BF8C3
:10CA0800002010BDE1940100E6940100F0B5012971
:10CA1800044685B00AD053685E49009312685E4B9D
:10CA280009F094F96FF0150005B0F0BD8368D3F8EC
:10CA38007432990603D5594940690AF05CF8002513
:10CA48006FF0F9012046FFF7F7FCFA212046FFF7BF
:10CA580009FDA0684FF48072294600F5AB708DF887
:10CA68000B500BF0D2FF4E4960690AF044F8606938
:10CA780009F0E3F94FF47A766068012203680DF152
:10CA88000B011F6903ABB847039BEBB9013E4FF499
:10CA98007A70B6B20BF0B6FB002EEDD1A368D3F8CE
:10CAA80074329B0603D53F4960690AF024F8502286
:10CAB800A36820465A871822A3683B491A8709F0B9
:10CAC80037F96FF00700AFE79DF80B20A3681B2A22
:10CAD80053D093F856111B29CED1522A4DD15A1949
:10CAE800002382F85631A66896F857215B2A2BD185
:10CAF800022506F2571010F8011F2A463B2905F1B6
:10CB08000105ADB223D1FF2AC8D002F5AB7216FADF
:10CB180082F1002211F8010F18BBFA2A28BFFA2265
:10CB2800FA2B28BFFA2386F85601A1684A87A2681B
:10CB38001387A368D3F874329A0603D51949606934
:10CB480009F0D9FF00206FE786F85631A6E703EB16
:10CB58008303303901EB4301B5F5807F8BB2CAD12D
:10CB68009CE7013502EB8202ADB2303800EB42009F
:10CB7800B5F5807F82B2CDD190E72B440135ADB2B7
:10CB8800092D83F856217FF677AF0022A36883F832
:10CB9800562183E764AF01004FAF0100EC94010018
:10CBA800B8AF0100F09401007EAF01002DE9F04F0D
:10CBB80007461546894689B021B110460AF0D0F8D3
:10CBC80000285BD1032455E05C463CE029460AF581
:10CBD800AB700BF08AFF0646002854D0FBF720FF05
:10CBE80082B2601C3146013230440BF0F4FE22461A
:10CBF800594630460BF0E2FE4FF020033355BAF8A1
:10CC0800543008F1010801331C44AAF854400024A8
:10CC180001994B1C484603AA0193FFF799FB064666
:10CC2800E8B10022284631680AF06FFA0028EFD1EF
:10CC3800D6F800B0D7F808A0BBF1000FC4D058460A
:10CC4800FBF7EEFE84B2BAF854302344FF2BBDDD67
:10CC58002B46032138460D4A09F0D8FC0124B8F1C7
:10CC6800000F07D0B8682A4600F1540100F5AB70F0
:10CC780009F04DFA204609B0BDE8F08F4FF00008E2
:10CC880002244146C5E70224E9E700BF7AB401005F
:10CC980008B5044808F06AF9BDE80840024808F0F9
:10CCA80065B900BFCCB4010001B501002DE9F84316
:10CCB80005460C4600AF002948D0DFF8B890D9F8EF
:10CCC80000305A0742D0D1E900016E468AB06A4660
:10CCD800A3684FF00508DFF8A0C0C2E90713C2E94E
:10CCE80005C042F8108F00234FF421514846FDF744
:10CCF800A5FCD9F80030B5465B0727D0D4E9030175
:10CD08008AB06A466369DFF874C0C2E90713C2E9EA
:10CD180005C042F8108F002348464FF42151FDF713
:10CD28008DFCD9F80030B54658070FD0E3690121CA
:10CD38004846134A08F0C6FDD9F80030590705D00F
:10CD4800A369012148460F4A08F0BCFD012D0AD10C
:10CD5800EFF3058307480268520704D00A4A2946B8
:10CD6800103B08F0AFFD2146284605F059F8BD46AE
:10CD7800BDE8F88354C700202FB501005EB5010057
:10CD88008DB501009CB50100CAB5010030BFFFF7A1
:10CD9800FDBF00BF2DE9F04105460B4EDFF82C80A2
:10CDA800324606EB0807CC1B204609490BF006FE65
:10CDB800A01942460021083C0BF027FEC5F8A84000
:10CDC80007F10800BDE8F08100000000080000003D
:10CDD800A4940100074A936893F90E10002907DB11
:10CDE800526993421FBF044A536843F0805353600B
:10CDF800704700BF7CDF002000ED00E0F8B5364C3E
:10CE0800064623680D465B0703D02046334909F0E0
:10CE1800F7FF334B9B6ADF065CD52368580703D0BE
:10CE280030492D4809F0ECFF11202D4B9B6A19075A
:10CE380007D523685A0703D02B49274809F0E0FF94
:10CE48001220274FBB6A9B0719D52368580703D0C0
:10CE58002649214809F0D4FF7B6BBA6A11060DD523
:10CE68002268520704D00121214A1B4808F02AFDF4
:10CE780026B11B4A936A23F0800393621320184B50
:10CE88009B6ADB0707D523685F0703D01949124857
:10CE980009F0B6FF1420124B9B6A9E0607D523683B
:10CEA800580703D014490C4809F0AAFF15200C4B69
:10CEB8009A6AD10658BF9A6A9A6A920642BF5A6A13
:10CEC80022F400525A629A6A42F0FF029A620023E0
:10CED8002B70F8BD1020A8E754C70020DDB501006D
:10CEE80000ED00E0F3B5010026B6010039B60100F7
:10CEF80051B6010067B6010086B6010010B5334C83
:10CF08002368580703D02046314909F079FF314B8F
:10CF18009B6A990157D523685A0703D02E492B4895
:10CF280009F06EFF1E202B4B9B6ADB0107D5236897
:10CF3800580703D02949254809F062FF1F20254BCF
:10CF48009B6AD90207D523685A0703D024491F488A
:10CF580009F056FF02201F4B9B6A1B0307D5236865
:10CF6800580703D01F49194809F04AFF2120194BD7
:10CF78009B6A590307D523685A0703D01A491348EF
:10CF880009F03EFF2220134B9B6A9B0307D52368B9
:10CF9800590703D015490D4809F032FF23200D4BDE
:10CFA8009B6ADA0307D523685B0703D01049074853
:10CFB80009F026FF2420074A936A6FEA03436FEAC1
:10CFC8001343936210BD1D20ADE700BF54C7002076
:10CFD800B5B6010000ED00E0CDB60100E0B60100F5
:10CFE800FAB6010024B7010042B7010067B7010093
:10CFF80081B70100F8B5374C064623680D465B0734
:10D0080003D02046344909F0FBFE344B9B6ADF0409
:10D0180051D52368580703D031492E4809F0F0FE4E
:10D0280017202E4B9B6A190507D523685A0703D08A
:10D038002C49284809F0E4FE1820284FBB6A9B05B4
:10D0480019D52368580703D02749224809F0D8FE84
:10D05800BB6BBA6A11040DD52268520704D00121AE
:10D06800224A1C4808F02EFC26B11C4A936A23F475
:10D07800004393621920194B9B6A5B0507D5236807
:10D088005F0703D01A49134809F0BAFE1A20134B58
:10D098009A6AD60511D52368590703D015490D4852
:10D0A80009F0AEFE1B200D4A936A43F47F43936256
:10D0B80000232B70F8BD1620B3E79B6A9A04F2D5BB
:10D0C80023685B0703D00C49024809F099FE1C202D
:10D0D800E9E700BF54C70020ACB7010000ED00E04D
:10D0E800C2B7010026B60100D3B70100ECB70100B2
:10D0F80001B801001CB8010086B601002DE9F0470F
:10D108008AB0774B0446D3F804908A461646002521
:10D1180000AFC9F3080885F31188BFF36F8F02F0D9
:10D128007F43B3F17F4F21D1D3071FD4500603D4D7
:10D1380011070BD401250BE06A4803685A0702D08F
:10D14800694909F05DFE16F0040600D05446002532
:10D158000023FB71A8F10303092B00F29B80DFE891
:10D1680003F0078D90899999999999932C46EFE73F
:10D178005C4E33685B0703D030465C4909F040FEDB
:10D188000023FB71564BDA6A900708D533685907B4
:10D1980003D05749534809F033FE002333E0DA6AD5
:10D1A800002A04DA33685A07F7D05249F2E7DB6AF3
:10D1B8005B00F2D53368580703D04F49494809F056
:10D1C8001FFE474BA1695A6942F480725A61BFF346
:10D1D8004F8FBFF36F8F5A6931F8021C22F48072A7
:10D1E8005A61BFF34F8FBFF36F8F4DF602729142B2
:10D1F8002BD13368590705D0236801213F4A3948A4
:10D2080008F060FB2368FA79DAB907F1080604F137
:10D21800200C324620686168083403C2644516460B
:10D22800F7D17A6A002D56D0C2F3080121B96FEA06
:10D2380052226FEA42227A62184607F10801FFF784
:10D2480035FD2837BD46BDE8F0879A6AD2B222B1CB
:10D258000120F91DFFF7D2FD0EE09A6A12F47F4F04
:10D2680004D00120F91DFFF7C5FE05E09B6AB3F560
:10D27800803F92D3FFF742FE0346C4E70020F91D22
:10D28800E8E70020F91DEEE7164803685A0784D03E
:10D298001B4980E7134803685B073FF47EAF194AD0
:10D2A8006E4619F4F87F8AB0174B18BF13466A46C2
:10D2B8001649C2E90513A8F11003D3614FF40073AE
:10D2C8001384134B42F8103F00234FF41151FDF71C
:10D2D800B5F9B54661E722F4FF7222F00102AAE728
:10D2E80000ED00E054C7002062B8010085B80100D5
:10D2F8009CB80100BDB80100CBB80100EAB8010034
:10D3080006B9010049B8010034B801002AB9010082
:10D3180004000001064B5A6942F010025A615A692A
:10D3280042F480625A615A6922F008025A617047D1
:10D3380000ED00E0EFF30880EFF3098101B57246D4
:10D34800FFF7DCFE01BD00BF002080F31488BFF3A7
:10D358006F8F002080F30A8880F30B88124880F3CF
:10D3680008880AF015FC002010490860BFF34F8FA9
:10D3780000F032F8202080F311880D484FF0AA0100
:10D388004FF400620AF06EFF09484FF4006140183C
:10D3980080F30988EFF314800221084380F314888E
:10D3A800BFF36F8F00F0E6F86808012094ED00E005
:10D3B80028FB0020002318460649D1F89020C2F324
:10D3C8000722934200DB7047C1F89830C1F8A000EB
:10D3D8000133F6E700ED00E010B572B6002484F3DF
:10D3E8001388FFF7E7FF23464FF0FF300C4A03F19D
:10D3F80020010133102B42F82100F8D100234FF00F
:10D40800FF30074A03F160010133102B42F8210075
:10D41800F8D162B6BFF34F8FBFF36F8F10BD00BF57
:10D4280000E100E0084B9B6883420BD1EFF30583D2
:10D4380043B1064B5A6842F080525A605A6A22F445
:10D4480000425A6205F032BB7CDF002000ED00E0AC
:10D4580019498A6882F8B5E04FF030001044EFF3BC
:10D46800098C80E8F01F202080F31288BFF36F8FAB
:10D47800124F4FF000664A698A603E604FF0A80478
:10D48800141920680E4C206092F9B5E0D2F8AC006F
:10D498000023C2F8AC3080F3118802F1300090E824
:10D4A800F01F8CF3098802F1000004B509F0B2FC02
:10D4B800BDE80440704700007CDF002004ED00E078
:10D4C80094D800201EF0040F0CBFEFF30880EFF390
:10D4D8000980816911F8021C0229FFD001B5724642
:10D4E80009F083FC01BD00BF40B2002807DB01231F
:10D4F8004109034A00F01F00834042F82130704779
:10D5080000E100E040B200280CDB01220649430993
:10D5180000F01F008240203341F82320BFF34F8FD3
:10D52800BFF36F8F704700BF00E100E0054B420971
:10D5380053F82220012300F01F0003FA00F01040E6
:10D54800704700BF00E100E040B2002801F101018E
:10D55800ACBF00F16040064B4FEA4111C9B2ABBF06
:10D5680000F5614000F00F0080F80013195470476F
:10D5780014ED00E00B4A08B50B4B22F07F029A60CD
:10D58800BFF34F8FBFF36F8FD3F8882022F4700258
:10D59800C3F8882004F044FD05F0EEFB00F04EF8D7
:10D5A80004F082FD0080000000ED00E042F8203C1D
:10D5B800009B0D4942F81C3C019B21F0010142F8F7
:10D5C800183C029B42F8081C42F8143C4FF0807348
:10D5D80042F8043C0023C0F8AC304FF43C43203AF6
:10D5E8000265C0F8B4307047DD9C000000B50C4BF4
:10D5F80015469860D0F8A8200A4B0E461A60D0F855
:10D60800983083F30B882C4686F309880020064B54
:10D6180098472046002100220023044C204700BFE1
:10D628007CDF002094D80020276E0100DD9C0000DC
:10D638001022014B1A61704700ED00E00023202101
:10D648000348C2180133412B82F80013F9D17047FF
:10D6580000E100E008B5EFF30583064A103B02EB52
:10D66800C30152F8330049688847BDE80840FFF70E
:10D67800B1BB00BFA48F01001FB5094C094A23465E
:10D688000121094800F01CF900230393074B0121ED
:10D69800E41A01A80193029400F01CF904B010BD2B
:10D6A8000000042080C50020E09B0100A8C70020DE
:10D6B80010B50C7A0B6804F01F0223F01F031A43FD
:10D6C800CB68640923F01F03054943EA440343F088
:10D6D8000103C1F89800C1F89C20C1F8A03010BD22
:10D6E80000ED00E010B50C4B0446D3F89030C3F3BE
:10D6F8000723013B98420BD9084803685B0704D00D
:10D7080001212346064A08F0DDF86FF0150010BD28
:10D71800FFF7CEFFFBE700BF00ED00E04CC700209D
:10D7280041B901002DE9F04F8946144606464FF0ED
:10D738000008544D85B0C8452EDAD6F804A0BAF1D1
:10D74800000F4BD0BAF11F0F1BD91AF01F0F18D1B9
:10D75800D6F800B01BF01F0F13D1584609F082FB12
:10D7680007460AEB0B00013809F07CFB874217D00B
:10D778006FF01507444803685B070BD0434A3B46E4
:10D7880005E0414803685A0704D04346404A01214E
:10D7980008F098F86FF01504204605B0BDE8F08F42
:10D7A80017F1160FE6D0BC42E4DDC5F89870D5F83D
:10D7B8009C10C5F89870D5F8A03021F01F0143F0EF
:10D7C8001F0BD6E900321A44994202F1FF3A1DD1E3
:10D7D800D34507D13146F8B209F04DFB08F10108ED
:10D7E8000C36A8E73146C5F89870D5F89C3022F079
:10D7F8001F0203F01F031343C5F89C30E0B209F081
:10D808003AFB10F1160FC5D0441CE7E7C5F898702D
:10D81800D5F8A020013B23F01F0302F01F02134399
:10D82800D3453146E0B2C5F8A030E8D009F023FB73
:10D8380010F1160FAED0C5F89870D5F89C209DF859
:10D8480008300BF1FF3B62F304038DF80830D5F87C
:10D85800A0309DF808205B0863F347128DF8082074
:10D86800D6E900321344009323F01F035B44A3EB73
:10D878000A03013023F01F036946C0B20393FFF780
:10D8880031FFBEE700ED00E04CC700208AB9010077
:10D8980067B901000522044BC3F89420BFF34F8FEA
:10D8A800BFF36F8F704700BF00ED00E0BFF35F8FDD
:10D8B8000022024BC3F89420704700BF00ED00E03F
:10D8C80010B5034C2278FFF72DFF207010BD00BF64
:10D8D800E2DF00202DE9F74F294D8A4606464FF032
:10D8E8000008AB46274FD0451BDAD6F80490B9F1AB
:10D8F800000F3FD031680846019109F0B3FA019949
:10D90800044609EB0100013809F0ACFA84424FF0F3
:10D9180014021D4B08D002FB08F36FF015024BF8F8
:10D92800032003B0BDE8F08F14F1160F2C60F8D077
:10D938001978A142F5DD02FB08B0C7F89840C7F88E
:10D948009840D7F89C4000F10801007B64F304007C
:10D958000871D7F8A0000C79400860F347140C71DF
:10D96800D7F89C1021F01F016960D7F8A01021F0AA
:10D978001F01296108F1010814350C36B3E700BF0F
:10D9880098D8002000ED00E0E2DF0020F0B5414922
:10D99800414CD1F890302568C3F307239D4287B0E6
:10D9A80075D80020FFF782FF3C4BC1F8C030854294
:10D9B80016D13B4C01A82570FDF7F8F8002506465E
:10D9C800384FAE4213D1002023783249D1F8902045
:10D9D800C2F30722934254DBFFF75CFF00202FE0DD
:10D9E800616801EB0011FFF763FE0130DFE7019981
:10D9F800280101EB0513DA683A40B2F5001F21D07F
:10DA0800B2F5800F2BD0B2F5801F38D15A689B68C9
:10DA18000958013B22F01F0003440120844623F0EB
:10DA28001F0340EA4C10CDE902218DF8100002A92D
:10DA380020780593FFF756FE00281DDA6FF01500D1
:10DA480007B0F0BD5A689B680958013B22F01F00D7
:10DA580003444FF0020C012023F01F03E1E75A684A
:10DA68009B680958013B22F01F0003444FF0000C4B
:10DA7800062023F01F03D4E72378013323700135F0
:10DA88009FE7C1F89830C1F8A00001339EE74FF036
:10DA9800FF30D5E700ED00E0EC9B0100AAFF440051
:10DAA800E2DF00200000F0FFF0B587B007460E4621
:10DAB80014460021102268461D460AF0A6FF0223DC
:10DAC8008DF80230054B2A4621466846CDE9047692
:10DAD800019305F0B1FE07B0F0BD00BFB16E0100C3
